:020000040002F8
:10800000B8500020DD8302000784020009840200CA
:108010000B8402000D8402000F84020000000000A7
:10802000000000000000000000000000C983020002
:10803000138402000000000015840200178402006F
:1080400019840200198402001984020019840200B4
:108050001984020000000000198402001984020043
:108060001984020019840200198402001984020094
:108070001984020019840200198402001984020084
:10808000D197020059940200198402001984020059
:108090001984020019840200CD94020019840200A0
:1080A0001984020019840200000000000000000092
:1080B0001984020019840200000000000000000082
:1080C00000000000000000000000000000000000B0
:1080D00000000000000000000000000000000000A0
:1080E0000000000000000000000000000000000090
:1080F0000000000000000000000000000000000080
:10810000000000000000000000000000000000006F
:10811000000000000000000000000000000000005F
:10812000000000000000000000000000000000004F
:10813000000000000000000000000000000000003F
:10814000000000000000000000000000000000002F
:10815000000000000000000000000000000000001F
:10816000000000000000000000000000000000000F
:1081700000000000000000000000000000000000FF
:1081800000000000000000000000000000000000EF
:1081900000000000000000000000000000000000DF
:1081A00000000000000000000000000000000000CF
:1081B00000000000000000000000000000000000BF
:1081C00000000000000000000000000000000000AF
:1081D000000000000000000000000000000000009F
:1081E000000000000000000000000000000000008F
:1081F000000000000000000000000000000000007F
:10820000DFF80CD000F054F900480047C5A8020080
:10821000B850002080F308888E46104730B450E8EC
:10822000012F93B2C48923448489A34228BF1B1B16
:108230000489A34202BFBFF32F8F002007E0C3EAE7
:10824000020340E80134002CE9D14FF001000A603C
:1082500030BC704750E8012FC2EA024240E80121D9
:108260000029F7D1704730B450E8022F1FFAA2F36B
:10827000C488A34202BFBFF32F8F00200DE0C48942
:1082800023448489A34228BF1B1BC2EA034340E85E
:108290000234002CE8D14FF001000A6030BC704776
:1082A00050E8022FC2EA224240E802210029F7D119
:1082B0007047034653E8022FD988B2EB324F4FF094
:1082C000000017BF92B241EA014142EA014104E0D5
:1082D0005A68B2EB324F08BF012043E80212002A6D
:1082E000E8D1704730B4044654E8000F0D4644E826
:1082F0000053002BF8D1156030BC704730B40446F1
:1083000054E8000F40EA010544E80053002BF7D180
:10831000156030BC704730B4044654E8000F00EAE2
:10832000010544E80053002BF7D1156030BC7047BD
:1083300030B4044654E8000F80EA010544E80053D5
:10834000002BF7D1156030BC704730B4044654E8B8
:10835000000F00EB010544E80053002BF7D1156036
:1083600030BC704730B4044654E8000FA0EB010560
:1083700044E80053002BF7D1156030BC704770B44F
:1083800004464FF0000054E8006F0D68AE4207BF8E
:1083900044E80023012044E800630E60002B1CBF6A
:1083A0000020F0E770BC704730B4044654E8000F7A
:1083B00088422CBF451A054644E80053002BF5D1EE
:1083C000156030BC704700001EF0040F0CBFEFF3C7
:1083D0000880EFF3098003F07FBD00000F480068BC
:1083E0000F4909680A280AD1002908D10D480268F6
:1083F0006FF070031A404FF040031A4302600A48BE
:1084000080470A480047FEE7FEE7FEE7FEE7FEE793
:10841000FEE7FEE7FEE7FEE7FEE7000030010010A2
:1084200034010010E40E0040D194020001820200E9
:10843000202A04DB203A00FA02F100207047914024
:10844000C2F1200320FA03F319439040704740EA39
:1084500001039B0703D009E008C9121F08C0042AC2
:10846000FAD203E011F8013B00F8013B521EF9D2A9
:108470007047D2B201E000F8012B491EFBD27047D1
:108480000022F6E710B513460A4604461946FFF7E0
:10849000F0FF204610BD30B504460020034600E042
:1084A0005B1C934203D2E05CCD5C401BF8D030BD36
:1084B000064C074D06E0E06840F0010394E8070031
:1084C00098471034AC42F6D3FFF79EFE9CDC0200C6
:1084D000BCDC02002DE9F0478AB01446DDF848A064
:1084E00055461F4615F9046B0096804689462B4673
:1084F0000246214602A800F07DFC02A95246084629
:1085000000F074FC534602AA4146404600F05EFC6F
:10851000534602AA2146204600F058FC2B464A4604
:1085200039463846009600F065FC5246394602A8A6
:1085300000F05CFC02A92B4642460846009600F07B
:1085400059FC02A92B4622460846009600F052FC30
:108550002B46424621462046009600F04BFC5346EF
:1085600022464946484600F031FC2B4602AA4146C5
:108570002046009600F03EFC5346224639463846D7
:1085800000F024FC2B464A4639463846009600F057
:1085900031FC324602A9204600F0F3FD0AB0BDE8E6
:1085A000F087F0B5154689B01C4607460E461A46B8
:1085B0002946684600F01AFC23466A463946384682
:1085C00000F004FC23462A466946684600F0FEFB9C
:1085D00023466A463146304600F0F8FB09B0F0BD4C
:1085E0008B1810448B4200D1704713F8012D00F80E
:1085F000012DF7E72DE9F0471F46B3F9023013F1DB
:108600001F0448BF03F13E04DD1D48BF03F10E0502
:108610006611EC10944275B228BF1446894629466B
:1086200000F06AFA224649468046FFF7D9FFB7F9BB
:108630000230B3EBC40F4FEAC4021FD2D21A08EBC8
:1086400086040021C2F12006A0450ED324372A4615
:108650004146384600F05BFA01280FD02B463A46D7
:108660004046BDE8F04700F09BBD54F8040D20FAE9
:1086700002F30B43236000FA06F1E5E7BDE8F0875B
:108680002DE9F04793F9006092B004468946104600
:10869000314615461F4600F04FFA002840F0918001
:1086A0003A46494602A800F0A1FB3B4602AA2146F1
:1086B0000AA800F08BFB02A908463A4600F096FB98
:1086C0003B462A464946484600F080FB07F104082D
:1086D0003A462946284600F089FB43462A46214669
:1086E0002046009600F037FA43462A462946284697
:1086F000009600F030FA43462A4621462846009666
:1087000000F078FB3B462A462146204600F05EFBFF
:108710004346224621462846009600F01CFA43466E
:1087200000962A462146204600F015FA2368DB070A
:108730004AD5334642462146204600F0B1F931463B
:108740008246204600F010FD06F18043013B54F8BC
:10875000232042EACA7244F823203A46214628469A
:1087600000F044FB43460AAA29462846009600F03A
:1087700041FB43460AAA29462846009600F03AFBE8
:108780000AA9084643462A46009600F033FB3B46BA
:108790000AAA2146204600F019FB02AA43461046C9
:1087A0002146009600F026FB32462946204600F07E
:1087B000E8FC4946284600F0E4FC02A9484600F0DF
:1087C000E0FC12B0BDE8F0873146204600F0CCFC5A
:1087D000C3E7000000487047ECDB02002DE9F04FD2
:1087E000EDB00D46769E04901946B6F9023096F922
:1087F000004013F11F0848BF03F13E0848F3471833
:1088000008F1FF3B24AB002743F82B706CAB03EB64
:108810008B034CA843F8807C43F8607C924696F921
:108820000120FFF7DDFE96F9012054A81144FFF75F
:10883000D7FE21464CA800F07FF98146002840F081
:10884000238154A800F078F90390002840F01E819D
:1088500006F1240942464CA9484600F058F901287F
:1088600040F01681424654A9484600F050F90128CC
:10887000069040F00D810CAF43464A461CA800F01C
:1088800083F9039B47F82B30524629463846334636
:10889000FFF7B0FE394638464B461CAACDF800809B
:1088A00000F0F6F95CAD4B461CAA4CA914A8CDF813
:1088B000008000F0EDF922462846049900F061FCA2
:1088C000A3000793049B05EB840A03EB840106F1E4
:1088D000440B504600F055FC594634A800F051FCBA
:1088E000A3000BEB03013CA800F04BFC331D294611
:1088F00034AA1CA80094059300F07CFA53462A463B
:108900003CA934A80096FFF7E5FD1CA908462346BC
:10891000321D00F039F91CAA514628463346FFF7AC
:1089200040FE039BCDE9083B049B41463846CDE918
:108930000A3500F0FAFB4146054614A800F0F5FBA5
:108940008542B8BF0546ADB205F1FF3B0FFA8BFB80
:108950005946384600F054FC5946071E14A818BF63
:10896000012700F04DFC002814BF022000200DF16B
:10897000200A074322465AF8271024A800F001FCD9
:108980000DF1B00BA3001944584600F0FAFB1CA8E7
:10899000214600F0B1F8069B0360023D24AB2DB2E6
:1089A00004938246002D23DA059A23465146504609
:1089B00000F0EAF80498334652465946FFF7F1FDB5
:1089C00004994246484600F0A2F8012804D04346E4
:1089D0004A46084600F0E4FB013C64B24CAA230678
:1089E00047D5039BB3FA83F040096DB0BDE8F08F23
:1089F00033465246D6F8A47004985946B8472946DB
:108A00000CA800F0FDFB2946071E14A818BF01277B
:108A100000F0F6FB002814BF02200020074308AB3B
:108A200053F8271011B3224634A800F0AAFB079B85
:108A30003CA8194400F0A5FB01463346524634A831
:108A4000FFF7AFFD059B0499009434AA44A800F0F9
:108A5000D1F9049A00965B463CA934A8FFF73AFD89
:108A6000334644AA5146504600F0B0F9013D2DB2BC
:108A700098E7049B52F8241053F824304B40039994
:108A800019430391013CAAE73846AEE74846ACE7F4
:108A90000398AAE7000000000000000000000000AA
:108AA000C3F10803DB0070B501330446002003A5C1
:108AB0005B1920C940CAAD1920C4184720C940CA53
:108AC000754120C420C940CA754120C420C940CA8C
:108AD000754120C420C940CA754120C420C940CA7C
:108AE000754120C420C940CA754120C420C940CA6C
:108AF000754120C4404170BD002310B51C465AB2D8
:108B0000914200DC10BD40F823400133F7E710B577
:108B1000013A52B2130601D5002010BD50F8224090
:108B200051F822309C4205D802F1FF32F2D24FF0C8
:108B3000FF30F2E70120F0E710B500231A465CB2DF
:108B4000A14203DCB2FA82F0400910BD50F8234084
:108B500001332243F3E770B59DF910601D4633469B
:108B60000446FFF79DFF30B9324621462846FFF7FD
:108B7000CEFF012807D033462A4621462046BDE8CD
:108B8000704000F00DBB70BDF0B50F46A1B00646B9
:108B90001946384615461C46FFF7CEFF28B1304629
:108BA00021B0BDE8F040FFF7A7BF2246394668462E
:108BB00000F0E7FA294608A800F0E3FA10A82146D9
:108BC000FFF79AFF012318A81093FFF795FF22469D
:108BD00008A96846FFF79BFF30B9224610A9304626
:108BE00000F0CFFA21B0F0BD009BDA0709D421468E
:108BF000684600F0B9FA2246294610A800F0E0FBCA
:108C0000E5E7089BDB0707D4214608A800F0ACFA8B
:108C10002246294618A8F1E7002823461CDD08AAA9
:108C20006946684600F0BCFA2146684600F09CFAA6
:108C3000224618A910A8FFF76AFF002805DA10A934
:108C400023462A460846FFF72BFF10A9234618AAF9
:108C5000084600F0A5FACEE76A4608A800F0A0FA98
:108C6000214608A800F080FA224610A918A8FFF7AC
:108C70004EFF002805DA18A923462A460846FFF7C2
:108C80000FFF18A9234610AA084600F089FABFE78B
:108C90002DE9F04FB5B004AC9DF9F8501F46804661
:108CA0002B46204600F0B8F824AB29463846CDE9DB
:108CB000023400F03AFAC0EB851424B2002C2146AD
:108CC000B8BF04F11F01634203F01F0341F34711D2
:108CD00004F01F0614A858BF5E42FFF70DFF002ED8
:108CE00008B22BDD14AB002203EB8000C6F1200E8E
:108CF0001346AB4217D36B00019314AB03EB85090A
:108D00006F1E34AB012603EB8707002C54DA34AB1B
:108D100003EB86062A4656F8C81C404600F031FA96
:108D200035B0BDE8F08F57F823C00CFA06F10A43BE
:108D300040F8042B01332CFA0EF2DAE714AB2A4682
:108D4000394603EB800000F01CFAD4E70FFA82FEEC
:108D50005AF8C83C53F82EB034AB03EB8202013012
:108D600052F8803C0B44BBEB030334BF01220022CA
:108D70009B4518BF11465CF8C82C42F82E30019B69
:108D800042B29A42E2DB731A5E42294614A85E415F
:108D900000F0EAF934AB03EB8503294653F8802C45
:108DA00057F8803C43EAC27347F8803C4846013C90
:108DB00000F0DAF924B2A8E734AB0020C6F1010CC8
:108DC000014603EB860A03EB8C0CD8E730B51C4652
:108DD00091B0054693F90030684600F01DF8D4F8CC
:108DE000AC3069462846984711B030BD13460A4654
:108DF000FFF7ECBF70B59DF910601D463346044681
:108E000000F0CEF938B133462A4621462046BDE867
:108E10007040FFF745BE70BD2DE9F04F08B4F8CAA9
:108E200004B451F8042BA3FB028940F8048B4FF0E3
:108E3000000AE4FB629A4FF0000BE5FB62AB4FF0D7
:108E4000000CE6FB62BC4FF0000EE7FB62CE51F86F
:108E5000042B4FF00008E3FB628940F8048BE4FB2D
:108E6000629AE5FB62ABE6FB62BCE7FB62CE51F8BF
:108E7000042B4FF00008E3FB628940F8048BE4FB0D
:108E8000629AE5FB62ABE6FB62BCE7FB62CE51F89F
:108E9000042B4FF00008E3FB628940F8048BE4FBED
:108EA000629AE5FB62ABE6FB62BCE7FB62CE51F87F
:108EB000042B4FF00008E3FB628940F8048BE4FBCD
:108EC000629AE5FB62ABE6FB62BCE7FB62CE40F870
:108ED000049B40F804AB40F804BB40F804CB40F8D6
:108EE00004EB0CBC052B00F01E810C68A0F11400F3
:108EF000A1F11401A2F1140252F804EB4FF00005A5
:108F000050F8046BE4FB6E5652F804EB50F8047B07
:108F1000E4FB6E6752F804EB50F8048BE4FB6E78C8
:108F200052F804EB50F8049BE4FB6E8952F804EB12
:108F300050F804ABE4FB6E9AA0F1140052F8044B15
:108F400051F804EB4FF0000CE4FB6EC540F804CB85
:108F500051F804EBE4FB6E5640F8045B51F804EB67
:108F6000E4FB6E6740F8046B51F804EBE4FB6E78A9
:108F700040F8047B51F804EBE4FB6E8940F8048B65
:108F800051F804EBE4FB6E9AA0E80006062B00F013
:108F9000CA800C68A0F11800A1F11801A2F1180212
:108FA00052F804EB4FF0000550F8046BE4FB6E56EA
:108FB00052F804EB50F8047BE4FB6E6752F804EBC4
:108FC00050F8048BE4FB6E7852F804EB50F8049BE5
:108FD000E4FB6E8952F804EB50F804ABE4FB6E9AA4
:108FE00052F804EB50F804BBE4FB6EABA0F11800A0
:108FF00052F8044B51F804EB4FF0000CE4FB6EC543
:1090000040F804CB51F804EBE4FB6E5640F8045BE7
:1090100051F804EBE4FB6E6740F8046B51F804EB85
:10902000E4FB6E7840F8047B51F804EBE4FB6E89B6
:1090300040F8048B51F804EBE4FB6E9A40F8049B73
:1090400051F804EBE4FB6EABA0E8000C072B6AD0F0
:1090500008B40C68A0F11C00A1F11C01A2F11C02D3
:1090600052F804EB4FF0000550F8046BE4FB6E5629
:1090700052F804EB50F8047BE4FB6E6752F804EB03
:1090800050F8048BE4FB6E7852F804EB50F8049B24
:10909000E4FB6E8952F804EB50F804ABE4FB6E9AE3
:1090A00052F804EB50F804BBE4FB6EAB52F804EB4F
:1090B00050F804CBE4FB6EBCA0F11C0052F8044B4A
:1090C00051F804EB4FF00003E4FB6E3540F8043B2D
:1090D00051F804EBE4FB6E5640F8045B51F804EBE6
:1090E000E4FB6E6740F8046B51F804EBE4FB6E7828
:1090F00040F8047B51F804EBE4FB6E8940F8048BE4
:1091000051F804EBE4FB6E9A40F8049B51F804EB31
:10911000E4FB6EAB40F804AB51F804EBE4FB6EBC2F
:10912000A0E8001808BCBDE8F08F013910B5024670
:1091300049B2041D0806CBB204D4013954F8210009
:109140000028F7D0013358B250B100F18043013B01
:1091500052F82320002322B9013803EB401000B25B
:1091600010BD52080133F6E700EB8101002388426D
:1091700000D3704751F8042D43EA52030B60D30724
:10918000F5E710B500235CB2A24200DC10BD51F837
:10919000234040F823400133F5E7000000000000C1
:1091A000C3F10803DB0070B50133002403A500BF41
:1091B0005B1920C940CAAD1B20C0184720C940CA4E
:1091C000B54120C020C940CAB54120C020C940CA0D
:1091D000B54120C020C940CAB54120C020C940CAFD
:1091E000B54120C020C940CAB54120C020C940CAED
:1091F000B54120C06441B4FA84F0400970BD00BF9D
:109200004A11012350F8220001F01F0103FA01F175
:1092100008407047F0B5082289B0FFF7B2FFCB6A6B
:1092200003930B6B04934B6B05938B6B0693CB6B88
:1092300007930C4606460027134669466A46684669
:10924000CDE901770097FFF72BFC082305466A4616
:1092500031463046FFF724FC236B0393636B049382
:10926000A36B0593E36B0544CDE906376A460823F3
:1092700069466846FFF714FC082305446A463146F0
:109280003046FFF70DFC236A0093636A0193A36ADB
:109290000293A36B0693E36B0793054408236A4686
:1092A00031463046CDE904770397FFF7F9FB636A4F
:1092B0000093A36AA26B0193E36A02930492636B27
:1092C000E26B0393CDE90523236A07930544082342
:1092D0006A4631463046FFF7E3FBE36A0093236BAF
:1092E0000193636B0293236A0693A36A0793054471
:1092F00008236A4631463046CDE904770397FFF7E5
:109300004FFF236B0093636B0193A36B0293E36B9B
:109310000393636A0693E36A07932D1A08236A4648
:1093200031463046CDE90477FFF73AFF636B00938F
:10933000A36B0193E36B0293236A0393636A049321
:10934000A36ACDE90537236B07932D1A08236A46D4
:1093500031463046FFF724FFA36B0093E36BCDE962
:109360000137636A0393A36A0493E36ACDE905377F
:10937000636B07932D1A08236A4631463046FFF780
:109380000FFF2D1A0D4C0FD435B908223146204657
:10939000FFF7BDFB01280FD0082322463146304697
:1093A000FFF7FEFE2D1AEFE708232246314630462E
:1093B000FFF776FB2D18F7D409B0F0BDF0DB020003
:1093C00070B5036813F001060546144605D0134630
:1093D0000A460146FFF764FB064621462846FFF78A
:1093E000C3FE46B104F18042013A55F8223043F001
:1093F000004345F8223070BD2DE9F04115468AB092
:1094000004460E461C22002103A8FFF73BF82F1D3F
:1094100095F9008003232A46314620460293FFF740
:10942000E5FC3B4602AA21462046CDF80080FFF726
:10943000E1FC2B46324621462046FFF7C7FCCDF81B
:1094400000803B4605F1840221462046FFF783FB5E
:109450000AB0BDE8F08100002DE9F041194E4FF44B
:109460008271D6F8040130B11748C268521CC2603C
:10947000304602F0CDFB00254FF4A07707EB8501C5
:109480008AB23046B258BAB189B202F0C1FB0E4876
:10949000103000EB0514204604F000F8616819B1A3
:1094A000204603F081FF07E0A16811B1204603F0D8
:1094B0007BFF206800B180476D1C022DDED3BDE824
:1094C000F081000000100140D022002002F098BC82
:1094D0002DE9F047AC4F4FF001093E1D3978351D9D
:1094E0004FF0805406290BD13078000708D1287836
:1094F000C0F30310032806D0042804D0052802D0A6
:10950000062907D011E0B4F82403A049C0F30420D1
:10951000086002E03078000707D12878C0F3031014
:10952000032802D19B499A48486701F01BF828B1EB
:10953000D4F844029849C0F3423008603878B846FD
:1095400006280CD13078000709D12878C0F3031021
:10955000032804D19148016821F08071016001F075
:1095600027F8002740B14FF08040C0F80C71C0F8D8
:1095700010718948001F076098F80000062807D17D
:109580003178090704D12978C1F30311032902D0E6
:10959000062805D019E0804A03216432116007E0F3
:1095A0003178090711D12978C1F3031103290CD1AE
:1095B0007B4B05221A607A4A7832C2F800907849CB
:1095C00008310F603F211A1D1160D4F830210A2A9A
:1095D00004D1D4F8341159B1012909D0062807D192
:1095E0003178090704D12978C1F30311052955D130
:1095F0006C4909686C4B19606A49091D09681B1D93
:1096000019606849083109681B1D196065490C31EA
:1096100009681B1D19606349103109681B1D196019
:109620006049143109681B1D19605E4918310968C9
:109630005D4B203319605B491C3109681B1D1960A3
:109640005849203109681B1D1960564924310968A1
:109650001B1D19605349283109681B1D19605149A8
:109660002C3109681B1D19604E49303109684E4B79
:10967000403319604B49343109681B1D1960494951
:10968000383109681B1D196046493C3109681B1DAA
:1096900019604449403109681B1D19600A2A05D127
:1096A000D4F8341111B9414AFB211160DFF800816F
:1096B000062811D1307800070ED12878C0F30310A6
:1096C000032803D0042801D0052805D1D4F8580276
:1096D00000F04F01C8F8001000F01EFF30B135480F
:1096E0000168C90702D06FF001010160D4F83001B0
:1096F000062803D1D4F83411062902D00A2806D04E
:1097000008E02D48016841F48061016002E0D4F86E
:10971000340128B1D8F8001041F00F01C8F800104A
:109720004FF01021D1F80002002803DBD1F8040229
:10973000002823DA214AC2F8009021480368002B50
:10974000FCD01523C1F800320468002CFCD0C1F80D
:10975000043201680029FCD0176001680029FCD0A0
:10976000BFF34F8F0D48F0380168164A01F4E061ED
:1097700011430160BFF34F8F00BFFDE7134912484B
:109780000860BDE8F0870000E00F00F040350140C0
:109790000DF0ADBA00C007403C050040FCED00E014
:1097A000105600400404001020C5004018F5004089
:1097B000E40E0040000400403C17004004E5014076
:1097C00000E401400400FA050090D0036823002063
:1097D000034808B5002101600068009008BD000042
:1097E0000001014002E008C8121F08C1002AFAD196
:1097F00070477047002001E001C1121F002AFBD111
:10980000704700000121202803DA8140054801400B
:1098100003E0402802DA2038814009B10120704776
:1098200000207047FC06FFBD800701D00020704774
:1098300001207047C3688B4206D811440069491E55
:10984000814201D8012070470020704730B585B0B3
:109850000D46164C1621ADF800101ECC0DF1040C6F
:109860008CE81E00124C0221012221706270A0704F
:109870000320E070217159206071FE20A0716946BB
:1098800004F109007DDF00280ED1BDF800002A4652
:10989000411CE17109212172BDF808100844ADF89E
:1098A000080001A9034872DF05B030BDA0D802004E
:1098B000A02700200823002010B586B00624182217
:1098C00008496846FEF7C3FD69462046FFF7BEFF1C
:1098D000002805D1044C207874DF0121207873DF43
:1098E00006B010BDB0D802000823002070B5104C9F
:1098F000A66C656A01F06AFB216B08446A1A314460
:10990000814200D10022082300F016FF06000DD18D
:1099100001F05CFB0022294600F0DAFBA16A8142DB
:1099200003D10121A561C4E90701304670BD0000E3
:10993000383F002002F012FC02F010FC2DE9F84F35
:10994000254C8146924660880E46814241D80027C8
:109950004FF6FF788DF80070684600F075F82278B1
:109960006078A188884201DA401C00E00020C0B283
:10997000904204D19DF8000000F08AF827E0657855
:109980006078884201DA401C00E0002060709DF899
:10999000000000F07DF8454519D0A068B9F1000F2E
:1099A00040F835A00DD066B16188E068324605FB0D
:1099B00001004946FEF74BFDA06800EBC50086801C
:1099C00002E000EBC50087800020BDE8F88F04208E
:1099D000FBE70920F9E700004823002010B50E4CF2
:1099E00003E0401C00E00020207020786178814274
:1099F00010D022786188E068A36802FB010003EBC5
:109A0000C20153F83220898890472078A188884283
:109A1000E9DAE6E710BD00004823002030B5CB00AE
:109A200008339DB293074FF0000401D0072030BDEA
:109A3000044B9A602A44DA605C701C7058809980EC
:109A4000002030BD4823002030B5EFF3108172B6FE
:109A50000D4A9468012324B10370002900D162B635
:109A600030BD93604FF0E023D3F88051074C254080
:109A70001560C3F88041D3F8844154605A17C3F885
:109A8000842100220270E8E7AC460020FC06FFBDFE
:109A90000B498A68002A11D000280FD1EFF31080FB
:109AA00072B60B684FF0E022C2F800314B68C2F882
:109AB000043100228A60002800D162B6704700009D
:109AC000AC46002070B510480146456AC06A8C6CEF
:109AD000AC2801D024B106E0486B04442D1A02E002
:109AE00001F088FA04462A4621460848FEF7D3FCCE
:109AF000002807D001F0E4F829462046BDE8704070
:109B000001F09CBB70BD0000383F002000800200C7
:109B100030B504462C4995B04FF6FF7048800120BF
:109B20008DF812004FF65960ADF81000224604A9D6
:109B30000120A8DF002844D1244B0FCB8DE80F0073
:109B4000A11C684662DF00283BD120491C226039F5
:109B50000BA8FEF77CFC1E4D142205F1C401A86879
:109B60001290A0788DF84A002868139006A8FEF796
:109B70006EFC12A8069013A807902088231D06AA41
:109B80000BA9AADF00281CD11C2205F1D8010BA8C3
:109B9000FEF75DFCE8681290A0788DF84A006868CE
:109BA0001390142205F1F40106A8FEF750FC12A848
:109BB000069013A80790208804F10C0306AA0BA9AD
:109BC000AADF15B030BD00000823002078D90200BC
:109BD00070D80200F0B585B0044614216846FEF73F
:109BE0004FFC2078032308280BD12748C188491E41
:109BF00089B2C1808288002A3ED000293CD1C2802F
:109C000023702178607860228DF800208DF8011093
:109C10008DF802006078032101280AD00B2828D192
:109C200000F038FD8DF80300002000F03BFD04211A
:109C30001FE0207809281CD2DFE800F01B1B1B2046
:109C40001B1B051B2000D4E902706D46E91C6668E9
:109C500003F02EFC044629193046C91C03F028FCE9
:109C6000044429193846C91C03F022FC2044C01CB6
:109C7000C1B2684603F076F805B0F0BDD4E9011230
:109C8000684603F05EF8F2E7082300202DE9F04172
:109C90001349034600208A68D4071ED0114CA34202
:109CA0001BD04888A0F57F43FF3B10D042F0040250
:109CB0008A60132176DF00280FD10B4EC8254FF4A0
:109CC0007A47741C3846A0476D1EFAD101E0087827
:109CD00074DFBDE8F04102F02FB8BDE8F08100006C
:109CE00008230020BCDC020080D8020038B5214CDB
:109CF0000021227AD20701D0084638BDE0601E4814
:109D000000F08CFE0020009001F0A4FA88B91B48F6
:109D100013DF70B902F03AF858B9684601F07EFFD7
:109D200038B96946012001F083FF10B9684601F097
:109D3000C9FF0028E1D101F079FB30B1104801F0F2
:109D400069FBA06840F00200A06000F0C1FC0028A0
:109D5000D3D10B481C30FFF7DBFE0028CDD1FFF735
:109D6000ABFD0028C9D1A06840F00100A060002030
:109D700038BD000008230020C4DC0200008002007F
:109D8000C027002070B50446001D2188674D86B0AD
:109D900021297CD022DC122954D018DC012977D06B
:109DA000102946D011294DD14FF6FF706880287ACE
:109DB000400704D4FFF780FD08B1FFF7BDFDE96857
:109DC00000293FD006B00220BDE8704008471329A3
:109DD0007DD0142975D01A2934D1A0E0522971D030
:109DE00016DC22292ED050292ED051292AD1A07933
:109DF000002827D021464E4802F0C8F9002821D07B
:109E000006B004F10801BDE87040494802F0B2B85C
:109E1000552941D0562915D1A079002812D11321F6
:109E2000688876DF00280DD006B0BDE87040FFF7E7
:109E300083BD00886880E96809B1012088473D49F1
:109E4000688875DF06B070BD394D34F8060FA988F3
:109E50008842F7D1384800F0A7FD0600F2D06289A9
:109E600004F10C01FEF7F3FA324918227A31684600
:109E7000FEF7EDFA049601956089ADF81400684686
:109E800001F01CFA0028DDD031462B4801E036E015
:109E90003BE000F0ABFDD5E7E188F72913D2880756
:109EA000B0F1404F10D0C91F89B2481EC21700EB55
:109EB000927222F00302801A081A801D81B203E018
:109EC00005E026E02BE0F7216888B5DFAAE719480E
:109ED0006A46163842F60521806A009002A8019071
:109EE0006888ADDF08B1FFF727FD00231A468521FA
:109EF00068887FDF0028A5D0FFF71EFDA2E70021BC
:109F00000091008869468FDFF4E70021688866DFEA
:109F100088E700210A4600880B4686DF82E7002397
:109F200000881A461946B1DF7CE7000008230020AC
:109F3000DC27002086D80200C4DC0200007800F094
:109F40000100704713B90378012B01D001F07DBBEC
:109F5000012070470022C32100F5187000F0B8B846
:109F60002DE9F043A1B00446DDE9289520200F46F5
:109F7000209098461646782102A8FEF781FA4121E2
:109F80002046FEF77DFAB7F8940006EB061107EBC2
:109F90008101B04201D991F8965025701DB3012D71
:109FA00004D0022D0AD0032D13D116E00022494619
:109FB000404600F08DF8C4F8010014E020A9601CB0
:109FC000CDE900014B4642460A4902A800F026FFAF
:109FD00048B1002021B0BDE8F083B1F89820601CA2
:109FE0009A31FEF734FA4A464146204601F02DFBED
:109FF000F0E7000098D6020010B500284FF00000EE
:10A0000006D004490870BDE81040034801F03ABA90
:10A0100000F026FAC822002061A402002DE9FC41CC
:10A020000646C0074FF000050ED0104F0024012255
:10A03000385D009500231146019501F074FD641C04
:10A04000042CF4D300F024F8B0070DD5074E0024FB
:10A05000361D0022305D032300951146019501F065
:10A0600062FD641C042CF4D3BDE8FC8188D6020098
:10A070000249085C012101F068BD000088D6020099
:10A080000249085C002101F060BD000088D6020092
:10A0900010B500242046FFF7EBFF641C042CF9D315
:10A0A00010BD10B543689C18446021B905E013F851
:10A0B000010B01F8010B521EF9D2012010BD000066
:10A0C0000249CA6B4260096C81607047383F0020CA
:10A0D000F0B54FF0FF3622B11268D24300230A4D8B
:10A0E0000DE03246FAE7C45C62400824D70700D08E
:10A0F00037462F4087EA5202641EF7D15B1C8B4221
:10A10000F1D3D043F0BD00002083B8ED10B5044674
:10A110000068401C07D0204602F0FAFE2168814208
:10A1200001D1012010BD002010BD000010B50B4C66
:10A1300090B0607800280ED100F0D4FE20220849AB
:10A14000684600F0EFFE40236A460649064800F0E4
:10A1500025FE0120607010B010BD000038230020E3
:10A1600048D60200E4450020B0D60200F0B51469DC
:10A1700006468DB020681546271DE0B1022920D083
:10A180000A2000906B4609AA304602F0A9FD00287B
:10A190000FD009A901A8009A02F098FB01AE96E839
:10A1A0000F0005AE86E80F00236869683A4605A8E7
:10A1B00098470DB0F0BD0DB03046BDE8F04002F05C
:10A1C000F9BB6946304602F08BFB0028F1D02368CA
:10A1D00069683A46684698470028EAD002980028FD
:10A1E000F5D1019870600120E3E753689B7813F084
:10A1F000C00303D0402B03D00020704700F002B80A
:10A20000FFF7B4BF2DE9FF410B46516806461446DF
:10A210008878334D00F00F0210F0300055F82250CE
:10A2200006D0102806D0202808D0302856D13EE08D
:10A2300022694DE061690120087047E0022B28D1B6
:10A24000042A26D84FF0010869463046676902F0B3
:10A2500047FB00281AD009E00B89226903FB002282
:10A260006846A84770B13888401C3880029820B1F1
:10A27000616838884A899042EED3019870600298EC
:10A2800060BB02E04FF00008F7E7404604B0BDE8CD
:10A29000F081D4E904300F890288498907FB023331
:10A2A0008A421BD2521C02801A46616810E008885C
:10A2B0006169072A088009D1606801892069FEF771
:10A2C000DFF860682169C06802F025FB22696168D7
:10A2D00004B03046AC46BDE8F04160470020D5E709
:10A2E000C8DB020070B5204801240168C90301D50C
:10A2F00081130CE01D4801681522C9B2B2EBD10FE1
:10A3000007D10168C90704D0016801F05601016056
:10A310000024174D286A012824D14FF440501549D4
:10A320004068884208D123464FF4805105F51870E3
:10A330006A6BFFF707FEA8B100F048FE014623460E
:10A340000D48AA69FFF7FEFD60B14FF0A040D0F8BC
:10A350001005000C10F0010F04D001F053FC10F0B8
:10A36000B10000D0012070BD000400402005004075
:10A37000383F0020DBE5B151D94100204169002977
:10A3800001D0C0680847704710B508281BD2DFE825
:10A3900000F004121A1A1A041A040120FFF73EFEF4
:10A3A0000020FFF76DFE0120FFF76AFEBDE81040B8
:10A3B0000220FFF75DBE0120FFF75AFEBDE8104006
:10A3C0000220FFF75DBE10BD10B50446801E0628B2
:10A3D00010D2DFE800F00D03030F09090A494FF41A
:10A3E000701000F079FB05E00120FFF705FE01E0A9
:10A3F00001F05CF805484168002903D02046BDE81B
:10A400001040084710BD0000C9A70200C822002064
:10A4100010B50446062801D0072C02D1002001F017
:10A42000DDF804480168002903D02046BDE810404B
:10A43000084710BD0423002010B5FF224FF400711F
:10A440000648FEF716F8054820212438FEF718F8CC
:10A45000024900205C39086310BD0000943F0020D1
:10A46000BFF34F8F05480168054A01F4E0611143CD
:10A470000160BFF34F8F00BFFDE700000CED00E06F
:10A480000400FA052DE9FC4180461F4615460E469C
:10A4900000240D4800F07AFA38B11120BDE8FC81A3
:10A4A00006EB043001F05CFB641CAC42F8D10648BA
:10A4B00000F069FACDE900573346002202214046F8
:10A4C00000F09CF80020E9E7582300202DE9F8432C
:10A4D000104D0F4680461E4691466946286800F09A
:10A4E00026FA040014D01C21FDF7CAFF01202071B8
:10A4F000C4F81490380BC4F80080C4E902606946BF
:10A50000286800F035FA02F0CBFB0020BDE8F883A4
:10A510000420FBE7F4D902004FF08050D0F830114E
:10A520000A2904D1D0F83401B8B1012814D00C485C
:10A530000078062811D10A48001D007800070CD1C8
:10A54000074808300078C0F30310032805D004281A
:10A5500003D0052801D0002070470120704700007B
:10A56000E00F00F04FF08050D0F830110A2904D1EC
:10A57000D0F83401B8B1012814D00C48007806286E
:10A5800011D10A48001D007800070CD10748083097
:10A590000078C0F30310032805D0042803D0052851
:10A5A00001D000207047012070470000E00F00F04C
:10A5B0004FF08050D0F830110A2904D1D0F834017E
:10A5C000B8B1012814D00C480078062811D10A48E7
:10A5D000001D007800070CD1074808300078C0F350
:10A5E0000310032805D0042803D0052801D000203B
:10A5F0007047012070470000E00F00F02DE9F043A4
:10A6000087B00446DDE90E8980681D4616460F4670
:10A6100000280BD018216846FDF732FF02A88DF8FC
:10A62000007080E86003A1686846884707B0BDE80D
:10A63000F08330B50446006887B00D468068002876
:10A640001FD018216846FDF71BFF0195A0680590F3
:10A65000207910B1012810D107E001208DF8000009
:10A6600020690290E068039005E002208DF8000068
:10A67000E068000302906069049020688168684681
:10A68000884707B030BD0B2803D30B38C0B200F0A9
:10A6900009B870470249002208780A707047000024
:10A6A00020230020014908700B2070472023002040
:10A6B0000149012008707047C8220020014901208B
:10A6C00008707047002300200123723000F0E6BFBD
:10A6D0000EB59DF8080020F00F00401C20F0F0009F
:10A6E00010308DF8080068466DDF002819D19DF8FC
:10A6F0000100401C8DF8010068466CDF002810D175
:10A700000848007A800703D50748011D806901E0E9
:10A7100006A1072082B202A87CDF002801D10548EB
:10A720007ADF0EBD08230020C02700204466755440
:10A730006172670086D802002DE9F04781461D4608
:10A7400016468846494502D10020BDE8F087A8EBAF
:10A750000900040B06F6FF704FF0000A070B00F02B
:10A76000C3FAA5422AD22C4628E0A74202D8BA460C
:10A77000354601E0A246250300225146484600F036
:10A7800023FD0028E1D1681E00F003002A1A0023EF
:10A7900041464846D21C00F02DFD0028D5D109487D
:10A7A000A7EB0A07761B016BA94429440163A8445F
:10A7B000002000F0FFFE5FEA000AC6D1002ED4D1CF
:10A7C0005046C2E7383F00200120FFF715BC0000CB
:10A7D0000149416000207047C8D9020010B50B49FB
:10A7E00041600B4800F0D2F868B901F01BFB084942
:10A7F0001C234FF4EE7208740448A1F5EE71001F9B
:10A80000006800F081F8002010BD0000F8D90200B7
:10A81000A448002002480068002800D001207047AA
:10A82000582300200248007A002800D001207047F9
:10A83000A448002010B54FF44051144B4C6800F56B
:10A8400000509C4204D042689A4201D1012200E0AB
:10A8500000229C4218D144689C4215D10A78142ADF
:10A8600001D9496900E00021094A0378B1FBF2F1FE
:10A87000142B01D9406900E00020B0FBF2F08142C6
:10A8800001D0012200E00022104610BDDBE5B151ED
:10A8900040420F0070B5054608680C464A68866855
:10A8A0002846314601F058FF6068286104F10C0029
:10A8B0006861B0780221B1EB901F01D1241D2C6199
:10A8C00070BD000000F0E4F900224FF48051104602
:10A8D00000F016F948B906480022C0F5383100F0FA
:10A8E0000FF910B9034800F06BF901F037FC0000D4
:10A8F0000080020089A3020010B5FDF7DAFC08B160
:10A90000002010BD112010BD10B531B1B2FBF3F421
:10A9100003FB14241CB1092010BD0E2010BD0160E2
:10A920000021416081608281C381084610BD70B5FD
:10A930000C460546FDF772FC002802D021882868E5
:10A94000084470BD10B50A8849888A4203D1FDF7D2
:10A95000A7FC012010BD002010BD70B50C460546B7
:10A96000FDF781FC002802D061882868084470BD8A
:10A9700010B50A8849888A4203D1FDF76BFC012093
:10A9800010BD002010BD002100F003B8012100F02F
:10A9900006B808B56A46FDF7BEFC009808BD08B5C4
:10A9A0006A46FDF7ABFC08BD38B5044600258DF8B6
:10A9B00000506846FFF748F82168626808689042CE
:10A9C0000ED9401E08600178238AE26801FB032546
:10A9D000227A2168101AC0B20A79824200D2087124
:10A9E0009DF80000FFF754F8284638BD38B50546F5
:10A9F00000208DF800000C466846FFF725F8E8684F
:10AA0000298A201AB0FBF1F12A681068431C1360F0
:10AA100001709DF80000FFF73BF838BD10B530B16C
:10AA2000017A42680368891AC9B21A6006E00E20EA
:10AA300010BD03681A68541C1C601170491EC9B20D
:10AA4000F7D2006800210171084610BD10B54FF023
:10AA5000E0224FF0FF314FF48054C2F88011C2F869
:10AA6000801200F003FC2046BDE81040AFF30080E8
:10AA700010B5044616480022C0F53C3100F040F8FD
:10AA800008B1FEF759FF00F0A1FA014611488069AC
:10AA9000421EC2F30B02801A01440022104601F646
:10AAA000FF7100F02DF808B1FEF746FFD4E900026F
:10AAB0004FF0FF31002383F3148883F3108883F36E
:10AAC000118883F31388BDE81040FDF7A3BB000095
:10AAD00000800200383F002070B5084D04460E4645
:10AAE000686802F0DBFC002C06D03246214668681C
:10AAF000BDE8704002F0C4BC70BD0000D022002050
:10AB0000F0B50A0502D1B0F53C3F01D90720F0BDF0
:10AB1000000B491E0C4D012400EB11332E1D0EE0DD
:10AB20004209C2F1000100EB411704FA07F102D01B
:10AB3000012A03D101E0296000E03160401C984205
:10AB4000EED90020F0BD00000006004070B5194DA0
:10AB50000024E86A2435012807D0A52808D0AA28AF
:10AB600009D0AC280AD0002070BDFEF7BFFE0BE074
:10AB700002F016F907E0FEF7A5FF05E002F010F974
:10AB800008B9FEF79FFF0124284600F043FA0A495E
:10AB900000200870094800F00DFD08B1032070BDC9
:10ABA0000120002CFBD00349096A0129F7D10220BA
:10ABB00070BD0000383F002000230020BDA6020029
:10ABC00070B52B4D2C49002668602A48C1F8000753
:10ABD000304600F05DFC80BBFFF7B8FF20B10128D4
:10ABE00028D002283BD105E04FF47014FFF77AFB20
:10ABF00010B931E04FF4A02400F076F81F4A20216C
:10AC00001820FEF70BFF08B1FEF796FE00F0FAFFE2
:10AC10001621B1EBD00F09D100F0F4FFC00705D029
:10AC200000F0F0FF164920F0B100086000F004FBCE
:10AC300018B903E00120FFF7DFF910E011492046C1
:10AC4000FFF74AFF104800F0E1FA40B900F038F889
:10AC5000FEF7C4FE41DFF9E700F0C2FB08B10320B4
:10AC600070BD2E70094800F00DFCFFF7EFFEF6E70F
:10AC7000C82200200C000300400000508023002068
:10AC80001C050040C9A70200C9A30200B1A602002A
:10AC900010B540F6F8700168491C02D1074900F070
:10ACA00077FF40F6FC700168491C05D1BDE81040F3
:10ACB0004FF4383100F06CBF10BD0000008002007E
:10ACC00010B501F04FF9002803D0BDE8104002F0A4
:10ACD0004DBC10BD034A93680A4601469860184669
:10ACE00002F0CEBBD022002070B50E4D287800288F
:10ACF00017D101F037F9012690B10B480468A4F58B
:10AD00004864962C00DA962402F030FC074920466D
:10AD1000FFF7E0FF4FF0E0214FF48030C1F8000171
:10AD20002E7070BD0123002004050140A9D502004A
:10AD300040688068004710B542680830527900F0DA
:10AD4000F1F8002010BD2DE9F04399B01C46904663
:10AD50000D460846DDF88090FFF7EAFF6E6807466B
:10AD60007079A04200D804462246414611A800F05E
:10AD700015F97279494601A800F0D4F801AB2246D2
:10AD800011A905F108000097FDF728FD18B1002072
:10AD900019B0BDE8F08348F24250F9E770B51646A5
:10ADA0000C46054600F0E2F800280ED1AA791946B3
:10ADB000304600F0E8F8002807D131462046FFF77A
:10ADC000BAFF002801D10149216070BD7052464D83
:10ADD0002DE9F8430C46DDE90857814698461646AA
:10ADE0000D49204600F0B6F8002810D160683946B9
:10ADF00040794200284600F0C6F8002807D146B145
:10AE000043463246214648460095FFF79CFFBDE881
:10AE1000F88348F21050FAE77052464D2DE9F041A0
:10AE20001D46DDE906871646044600F02DF8002889
:10AE30000DD12A463146204600F03CF8002806D1C4
:10AE40003A4641462046BDE8F04100F002B8BDE870
:10AE5000F08170B515460E46044602F077FB0028D7
:10AE600007D13EB160682968C268914205D248F2B4
:10AE7000145070BD48F2135070BD83682A463146A5
:10AE80002046BDE87040184710B550B161B141602F
:10AE9000096804468847002802D105482060002040
:10AEA00010BD48F2015010BD48F2105010BD000016
:10AEB0006E52464870B515460E46044602F046FBF3
:10AEC00000280BD146B155B160682A463146436827
:10AED0002046BDE87040184748F2105070BD002071
:10AEE00070BD00002DE9F0410B480C4D0C4F401B8C
:10AEF000C60801203870002406E000BF55F8340071
:10AF00008047002805D1641CB442F7D30220387072
:10AF10000020BDE8F08100000000000000000000FB
:10AF20000223002070B514460D46064600F036F8A0
:10AF3000291930192246BDE8704000F02FB830B50D
:10AF40000C46054600F035F828192146BDE830408A
:10AF500000F02FB828B10068884205D048F2405070
:10AF6000704748F2105070470020704728B139B13F
:10AF70000022C1E900201046704748F21050704787
:10AF800048F21350704720B1914205D048F2115059
:10AF9000704748F210507047002070470244521E1C
:10AFA00004E000BF11F8013B02F801398242F9D2F6
:10AFB00070470144491E05E002780B7800F8013B18
:10AFC00001F801298142F7D2704700004FF4405048
:10AFD000074A4168914207D18068411EC1F30B01C5
:10AFE000401A00F6FF7070474FF480507047000021
:10AFF000DBE5B15100B5FFF7E9FF054989690A189A
:10B00000401E0844C0F30B00101A00F6FF7000BD8C
:10B01000383F0020002101604160816001480163E8
:10B0200070470000383F00202DE9F0419846214F3D
:10B0300016460C460546002301215BB1012B11D0B9
:10B04000022B1ED00020381AA0F50050A8421BD2B7
:10B0500001221AE0FFF7CEFF8EB11749096A0129D4
:10B06000F1D00CE0FFF7B2FFB8F1000F05D14FF4BB
:10B070004051124A4968914201D00121E3E7002181
:10B08000E1E74FF48050DEE7002242EA0400884303
:10B0900005D0022B03D25B1CDBB2022BCCD912B140
:10B0A0000420BDE8F0811BB103481830FFF7B2FF60
:10B0B0000020F6E700800200383F0020DBE5B151B8
:10B0C00070B504460078092811D2DFE800F01005B9
:10B0D00010112510381013000D461D490320C968B2
:10B0E0008847606900F042FBFFF7CDFA687070BDD9
:10B0F000084628E00D46A18A206900F013FBFFF7FF
:10B10000C2FA68702846FEF7DBFFE1680029EED03E
:10B110002069BDE8704008470C460D490831081FFA
:10B1200000F03EFBFFF7AFFA60700128DFD100208E
:10B1300000F040FA0028DAD00A20607070BD08469E
:10B140004FF40071C160BDE87040FEF7B9BF000068
:10B150002423002070B51A4A05780124936C092D28
:10B160002CD2DFE805F02B052B0B0F2B252B08002D
:10B1700000F038FF22E000F0ABFF1FE08B60106DA5
:10B1800048601BE0D2E91454566C2C1BA64203D035
:10B1900008204870012411E00024556554642146BC
:10B1A000D36400F059FF07490420C968884705E0C7
:10B1B0008B60106D48604FF48050C860204670BDB1
:10B1C000383F00202423002013460A460146014848
:10B1D00000F0DCBB6C23002008B1034900E0034908
:10B1E0000022034800F0E8BB04DA0200D4D90200D0
:10B1F0006C23002008B5009313460A460146024816
:10B2000000F072FC08BD00006C230020084910B556
:10B2100008600020FFF7FCF8064800F0F9F9002864
:10B2200004D1BDE81040034800F026B810BD00006E
:10B230000423002011A40200002070471FB58908D4
:10B24000002201AB009283E80700684618DF04B0D3
:10B2500010BD00001FB5044B0FCB8DE80F006846F2
:10B2600018DF04B010BD000088D902004FF48050F0
:10B27000410408600020704710B5040011D001207F
:10B28000FFF7AAFF00280BD100F03AFA00F0CAFA43
:10B2900048B10949081F00F083FA012803D00320B0
:10B2A00010BD072010BD04480838C4600020FFF717
:10B2B000F9F9002010BD00002C230020816819B18D
:10B2C000024A1821FEF73ABB07207047D1B20200AC
:10B2D000AFF3008030B587B0044618221F49684696
:10B2E000FDF7B5F820788DF8000022781C4D0D2A66
:10B2F00025D2DFE802F0240B270B0B240B240B24B0
:10B3000024240700E968072088471BE02046694697
:10B31000062A01D0012A01D1027C2A702A78012A4A
:10B3200005D0022A06D000202870052008E0FFF78B
:10B33000C7FE07E0FFF70EFF20B907B030BD0220BF
:10B340008DF80100D4E90112684690479DF801008C
:10B350000128F2D0E96805208847EEE7B0D902005D
:10B360002423002038B105490160054941600121CD
:10B370000172002070470E207047000085B3020064
:10B38000BDB3020010B50C0001464FF0110007D00C
:10B390002278052A05D2DFE802F00F050D0F0F0015
:10B3A0000E2010BD084600F051F80028F9D1022106
:10B3B000217010BD112010BD082010BD02460820CC
:10B3C00041B10B78022B04D1022A05D0032A00D107
:10B3D000112070470E207047002003220A7070472A
:10B3E00070B50B480024D0F82413491C03D1D0F8C1
:10B3F0006403401C09D04FF43C35284600F0B0FBF4
:10B40000C9220349284600F0DBFB204670BD00003E
:10B41000383F002010B528B11C220349FDF717F86A
:10B42000002010BD0E2010BD64F3020010B5064CC4
:10B4300000221821201DFEF74BFE2168814201D118
:10B44000012010BD002010BD64F3020070B50C4D4A
:10B450000400D5F8640305F5597503D0401C03D0EA
:10B46000082070BD0E2070BD00221821201DFEF79F
:10B470002FFE206007222146284629DF70BD0000EC
:10B4800000F00200014901F039BD000000F00200A7
:10B4900010B5FFF7A1FE30B900F008F8002000F069
:10B4A00089F8002800D0032010BD00002DE9F047E6
:10B4B0002E48FEF72BFE2E4E074634682046FEF738
:10B4C00025FE4FF0010A4FF0000958B160680128CD
:10B4D00006D02046FEF73EFDD4F85C12884201D12A
:10B4E000012500E00025234C4FF002084FF4607165
:10B4F0009FB10A461D492046FCF7A9FF9DB1366859
:10B5000025465422311D281DFCF7A1FF4FF432724D
:10B5100006F15C0105F15C0003E015B30A4615482D
:10B520003168FCF794FF6068012818D11249402265
:10B5300001F5E470FCF78BFF0F491C22403101F547
:10B54000E470FCF784FF84F8609284F8A1A20B48B1
:10B5500084F8E292E169C0F82210C4F80480BDE8E2
:10B56000F0870448FCF78CFFF7E7000000F00200CA
:10B5700034230020383F002094400020B8410020B0
:10B5800070B50546094801F0C3FC084C2060204610
:10B59000FEF7E0FCC4F85C02A4F5E0632A4621460D
:10B5A000BDE87040024801F0B8BC0000383F002000
:10B5B00000F0020070B505460020FFF7E1FF04002F
:10B5C00003D10349284601F099FC204670BD0000D4
:10B5D000383F00204FF48050704700002DE9F041C3
:10B5E00007460948094D401BC6080020044607E0ED
:10B5F00005EBC400416838468847002802D1641C26
:10B60000B442F5D3BDE8F081C4DC0200BCDC02002A
:10B610002DE9F04107460948094D401BC6080020A6
:10B62000044606E055F8341038468847002802D111
:10B63000641CB442F6D3BDE8F0810000C4DC020013
:10B64000BCDC0200012201F0E3B938B514460278EF
:10B650000B467AB1012A04D0022A0DD0032A1BD14D
:10B6600012E0D0F80150002221461846FEF730FDC6
:10B67000A84211D1012038BD01B02246BDE83040BA
:10B680000023401C00F00AB8411C40220020009416
:10B6900000F0F2F80128EED0002038BD2DE9F0418D
:10B6A000AAB005462020884628901E461746012449
:10B6B000782102A8FCF7E4FEFEF738FD2EB1202227
:10B6C000294620A8FFF76AFC20AD28A90A48CDE941
:10B6D00000013B464246094902A8FFF79FFB28B9F3
:10B6E000202229460448FCF7D6FE00B100242AB0E7
:10B6F0002046BDE8F08100008C46002098D602006C
:10B7000010B50648064C806B20B101F0E9FD08B188
:10B71000012000E00020207010BD0000383F002014
:10B72000382300202DE9F0410F4C07460D46E06B11
:10B73000A26B01264119914201D9032610E00A4962
:10B740002A465C3108443946FCF781FEE06B064A24
:10B750002844E063403229463846FEF7B9FC2064AD
:10B760003046BDE8F0810000383F002070B504008D
:10B770004FF0010504D0B4F5007F03D9042508E09B
:10B78000032506E0044900200870FEF755FE034833
:10B790008463284670BD000038230020383F002015
:10B7A0002DE9F04106461D480F46C16B806B814272
:10B7B00001D008242FE01A4D287840B1FFF71AFC79
:10B7C00030603946E86801F095FE044623E001F058
:10B7D00087FDF8B100F02CF8044600203060386096
:10B7E000012C0FD13946E86801F084FE0446012897
:10B7F00008D13868012700213B460A46FFF714FCB0
:10B8000018B10424FEF718FE05E0FFF7F3FB3060E3
:10B810002F7000E005242046BDE8F081383F00206D
:10B8200038230020014800787047000038230020AA
:10B8300038B50F4C251D002094F86C3101460246A6
:10B840003BB194F8D802B4F8DA2204F5B87504F5DF
:10B850003771084B9C6800945B6800F00DF8012874
:10B8600004D1281DBDE8384000F050B838BD0000B4
:10B87000B8420020382300202DE9F041A2B006464E
:10B8800020200D4620901F461446DDF8A080782128
:10B8900002A8FCF7F5FD00202190FEF747FC25B13A
:10B8A0002EB1162022B0BDE8F0811320FAE720A9BE
:10B8B0001448CDE9000143463A46134902A8FFF770
:10B8C000ADFA08B9402C01D00A20EBE70D4822461A
:10B8D00029464038FCF7BBFD0A4820214038FFF7D5
:10B8E0002EFB084840214038CDE90001A0F1480175
:10B8F000044A21A8209BFFF76BFA08B10520D1E785
:10B900000120CFE76C46002098D6020070B50446AF
:10B9100090F85400012570B394F8550028B101281F
:10B9200003D0022801D003282AD194F86E000328FE
:10B9300001D0142525E0207AE8B1E068342801D050
:10B9400011251EE0204601F077FA68B1207898B101
:10B9500094F855100C4849B1012907D06168C068B6
:10B9600081420ED810250CE012250AE0616880683B
:10B97000814206D2F6E703E094F85500012800D092
:10B980000F25284670BD0000383F00202DE9F0410A
:10B990000446406815461E4602680F466A43204624
:10B9A000FDF748FF206833462A46D0F810C03946D4
:10B9B0002046BDE8F041604701600B68114618471A
:10B9C0002DE9F04128B1016819B1C969BDE8F0411C
:10B9D00008470D4D0D480024461B14270DE000BFFD
:10B9E00004EB840005EB8000016829B1C969884730
:10B9F00010B10120BDE8F081641CB6FBF7F0A04255
:10BA0000EED80020F6E700006C2300208023002001
:10BA1000044801214174007A08B1002070470120D8
:10BA200070470000A4480020012801D0032808D155
:10BA30000449002201284A7400D00020087401F053
:10BA4000E1B87047A448002070B50146022801D033
:10BA5000032943D1224C207A00283FD0012831D03D
:10BA600002282FD11F4800230229006802D0032991
:10BA700028D119E0E360027912B1012A22D10BE04A
:10BA8000D0E90565721B142A00D314222A4482616E
:10BA90004569AA420ED015E00169491C016142695D
:10BAA00091420FD1237213E0E268521CE260082A2F
:10BAB00008D9E360237202290AD00D21FEF7B9FDEF
:10BAC00001F096F8607C28B1BDE8704000F0B0B994
:10BAD0000021F3E7BDE8704001F094B870BD0000AC
:10BAE000A44800205C2300202DE9F84304461D46AD
:10BAF00016460F460846DDF82080FDF795FE3046D5
:10BB0000FDF792FE2A4639462046FDF793FECDF812
:10BB1000008020682B463246D0F80CC039462046BB
:10BB2000E047BDE8F88370B541EA4201DDE904561B
:10BB30004FF0A04441EA830141EA052104EB800073
:10BB400041EA0641C0F8001770BD01224FF0A04342
:10BB5000824011B1C3F808257047C3F80C2570471F
:10BB6000094902220A60BFF36F8FBFF34F8F0A1D8E
:10BB7000106006480268002AFCD000200860BFF36D
:10BB80006F8FBFF34F8F704704E5014000E4014021
:10BB9000094A01231360BFF36F8FBFF34F8F01601A
:10BBA000064801680029FCD000201060BFF36F8FA9
:10BBB000BFF34F8F7047000004E5014000E40140EF
:10BBC00070B50E4C01232360BFF36F8FBFF34F8F0F
:10BBD00000230B4D08E000BF51F8236040F82360BC
:10BBE0002E68002EFCD05B1C9342F5D30020206011
:10BBF000BFF36F8FBFF34F8F70BD000004E50140AE
:10BC000000E4014001480068C0B270471C050040D4
:10BC100008B5002242504058009008BD20B10349A9
:10BC200009680160002070470E2070479CDB02000D
:10BC3000FEB506460C460846FFF7F0FF002840D147
:10BC4000002500950195012706208DF80060ADF8CC
:10BC5000040002958DF8027069462020226869DF91
:10BC60000095019502958DF8017069464020226883
:10BC700069DF00958DF80060F720ADF802000195AE
:10BC8000029569462320226869DF00950195029597
:10BC90008DF8007069460120226869DF4FF4B060BA
:10BCA0000090019502956946A120226869DF009500
:10BCB000019502958DF800506946A020226869DF41
:10BCC0000020FEBD60DF002802D1024A0121117070
:10BCD000704700006723002030B51548ADF5017DA1
:10BCE0000078002821D04FF4FA7500BFADF800525B
:10BCF00080A9684661DF38B1052816D00DF5017DB1
:10BD0000BDE83040FDF718BE6C460A497DA800F03A
:10BD1000BBF806E0D0E90021204690477DA800F05E
:10BD2000CAF87F980028E1D0F4E70DF5017D30BD19
:10BD300067230020A0DB0200F8B5134C2078C0B1C7
:10BD40000120A07001F0ACF8112814D0022001F0FD
:10BD5000BFF800258DF800506846FDF775FE11DF2D
:10BD6000064625709DF80000FDF792FE2EB1304684
:10BD7000F8BD0820F8BD0020F8BDA57001F068FAF4
:10BD8000032001F0A5F8F6E7642300207CB5194CE8
:10BD9000207808B108207CBD0120A070002001F0AF
:10BDA0007FF8112819D0002001F092F812480026DF
:10BDB000006801908DF800606846FDF745FE0F4968
:10BDC00001A810DF05000AD0002020709DF80000B7
:10BDD000FDF75EFE2DB128467CBD00207CBD012014
:10BDE000F3E7A670667001F04FFA012001F070F8D9
:10BDF000F3E700006423002034DB020035990200E1
:10BE00000EB50749684600F03FF805E0D0E900109C
:10BE10008847684600F04FF802980028F6D10EBD1A
:10BE200050DB0200014800787047000064230020C6
:10BE30000548817819B1007818B1FFF77DBF082057
:10BE40007047FFF7A3BF0000642300201FB56846BA
:10BE50004BDF30B1052814D004B0BDE81040FDF729
:10BE60006BBD084901A800F00FF806E0D0E90021F9
:10BE70000098904701A800F01EF803980028E6D02B
:10BE8000F4E71FBDBCDB0200016009684160AFF34D
:10BE9000008010B5D0E900215368994201D10021FA
:10BEA00004E0D1E90034A34202D01946816010BDFC
:10BEB00008314160F0E7816800290BD00268926880
:10BEC0000A44826041684B689A4203D1083141605C
:10BED000FFF7DFBF704700002DE9F041044613482B
:10BEE000134BC01A0C21B0FBF1F6A0694FF0FF31E3
:10BEF00010F8022C02B92169002011E000EB400586
:10BF000003EB85052F68974209D14F1C02D06F685B
:10BF10008F4204D194E80F00AD68A84703E0401CAD
:10BF2000B042EBD301202060BDE8F08114DD0200B7
:10BF300008DD020010B5144612680830202A02D22B
:10BF400048F2145010BD002201F00FF80028F9D17A
:10BF500020202060002010BD083001F08FB808308C
:10BF600001F04CB902480068002800D00120704759
:10BF70000004014030B587B00C460546182216492A
:10BF80006846FCF764FA217B14488DF8001001958F
:10BF9000012906D0022915D0062917D1607B04900B
:10BFA00014E08188C180607B0490617CD4F80E002D
:10BFB00061F31F6005900498012807D10848FFF736
:10BFC0000DFB03E0B4F80D108180C1806846FFF7D7
:10BFD00075F907B030BD0000D8D802000823002052
:10BFE000BCDC02002DE9F0410C460546FFF71AFCC7
:10BFF0000826B8B16969032041B3154A154B0F05EE
:10C0000005D0576DD3F808C00F4467451ED1B1F570
:10C01000805F01D9042019E0506DD3F808C047189B
:10C02000674502D96670BDE8F0815164D16C106536
:10C030009164106369695A6801F6FF711044090B35
:10C040000022FFF7C1F80028EDD005206070EAE774
:10C05000383F00202423002010B5044686B000207D
:10C06000FFF7AEFC30B1154A18212046FDF766FCFB
:10C0700006B010BD182212496846FCF7E8F91148CD
:10C08000026D114881688A4210D14068FFF7DAFAE0
:10C090008DF80100FEF7F7FA8DF80100D4E90112DE
:10C0A000684690470948FFF785FAE1E701208DF8D7
:10C0B0000100D4E9011268469047D9E759C002004F
:10C0C00098D90200383F00202423002051C10200EB
:10C0D0002DE9F0410E460446FFF7A4FB60B11A4D6E
:10C0E000D5E91401401AA18A6A6C0844904205D926
:10C0F00003207070BDE8F0810820FAE7134A286B2E
:10C1000052688718104A20694832FDF7E1FFD4E9E8
:10C1100003318046A28A3846FFF76CF820B1D4E993
:10C120000310BDE8F0410847A18A286B0844286342
:10C13000A18A286DC5F8488008442865C6F808809B
:10C14000286D7060D6E70000383F002024230020CF
:10C1500001490620C968084724230020BFF34F8FF8
:10C1600005480168054A01F4E06111430160BFF32D
:10C170004F8F00BFFDE700000CED00E00400FA0562
:10C1800001460148FEF732BCC4DC020030B58A1D0E
:10C190008B79083187B0022B33D153888489A3422D
:10C1A0002FD1127A012A2CD1184C0DF1040C3CCC61
:10C1B0008CE83C000A89ADF80C204A890C310491C6
:10C1C0001249ADF80E208039114C096A0591CDF85D
:10C1D00018D0018A05AA6088ADDF18B96846FDF756
:10C1E000ADFE38B10020ADF8080001A96088B0DFCD
:10C1F00050B106E040F2FD10ADF8080001A96088DA
:10C20000B0DF002007B030BD0120FBE7F0D802000E
:10C2100008230020F8B50D4614460646694600F08E
:10C2200057FA00280FD0009BB3F5803F0AD2981C24
:10C23000834207D8A9780222B2EB911F02D0298944
:10C24000814201D20020F8BD2380A11C3046009A13
:10C2500000F074FBF8BD114600F0D6B8114600F0AE
:10C26000E3B8F8B50C4615460646694600F030FAC4
:10C2700000280CD0009A501C904207D3A1780223CA
:10C28000B3EB911F02D02189814201D20020F8BD79
:10C290002946304600F052FB009A0021A954F8BD0F
:10C2A0002DE9FF410C46CE6817460546694600F069
:10C2B00017FB00280ED0E06800280BD0A0783A4683
:10C2C000C0F3011002283146684606D000F0DAF8C3
:10C2D0000199696004B0BDE8F08100F086F8F7E7E5
:10C2E0007CB50D461446694600F08FF9002820D031
:10C2F0002889082806D0042809D002280AD0012855
:10C300000CD015E0DDE90001C4E900010AE0009865
:10C31000206006E0009800B2208002E0009840B261
:10C320002070C117DDE9002350405940084301D077
:10C3300000207CBD01207CBD7CB50D4614466946BD
:10C3400000F0A1F9002820D02889082807D0002172
:10C35000042809D002280AD001280CD014E0DDE915
:10C360000001C4E9000109E00098206006E000989F
:10C3700080B2208002E00098C0B22070DDE9002386
:10C3800050405940084301D000207CBD01207CBDB5
:10C390007CB50D461446694600F075F9002821D099
:10C3A0002989082908D00098C21704290BD002292E
:10C3B0000DD001290ED014E0DDE90002C4E900022D
:10C3C0000146134609E0C3170146206005E001B2AB
:10C3D000218001E041B22170CB1741405340194305
:10C3E00001D000207CBD01207CBD70B50D46064605
:10C3F00014461146284600F08EFA22462946304659
:10C40000BDE8704000F03EB838B50C4604226946DD
:10C4100000F094FA002806D09DF80310009861F30C
:10C420001F602060012038BD1CB50C4608226946FB
:10C4300000F084FA002824D09DF801109DF8002017
:10C440009DF80230080E42EA012242EA034240EA25
:10C4500013409DF803309DF8041040EA1320084370
:10C460009DF8051042EA036240EA01209DF806109B
:10C4700040EA01409DF8071040EA0160C4E900204D
:10C4800001201CBD2DE9F04F04469DB00020009016
:10C49000064601904FF0FF3A0AA800F05DF94FF010
:10C4A000010BE94682E012AB05AA06A9204600F07E
:10C4B000C9F850B10AA8059900F05FF960B10B986E
:10C4C000807810F0300F53D060E09DF848000028CD
:10C4D00070D11DB0BDE8F08F0598B04242D30B9DDE
:10C4E0000AAE0B98807800F00F00082812D0304672
:10C4F00000F05AF90B98A842F3D156460599B1427B
:10C5000030D3D4F8088009919DF8181008910E993D
:10C510000D6820E00B980688F0E729680F682FB1B6
:10C52000DDE9083229462046B84711E011948968B0
:10C53000DDE90872098891420CD1294617A8FEF757
:10C54000A9F985F80CB017AA39461198FDF74DFEE8
:10C550000028BED0AD6815B1A1684145DDD0A16805
:10C56000414523D19DF81810204600F023FA1BE026
:10C570000C9840280AD200F01F010BFA01F00C9928
:10C580004A0959F82230034349F82230E5682DB1B1
:10C590000AAB9DF8182020460599A8470AAA9DF8DD
:10C5A00018102046FDF721FE002892D0A068002830
:10C5B0007FF479AFDDE90B0485780AA800F0F4F880
:10C5C0000028F7D115F0300F03D10B98008800B187
:10C5D000641CC4B10020494605E000BF51F820208A
:10C5E000521C0ED1401CB0EB541FF7D3600959F810
:10C5F000201004F01F00C0F120022AFA02F081424C
:10C6000001D0002065E7012063E71CB50C466946B0
:10C6100000F039F8002814D0DDE90002C10709D084
:10C6200051084FEA30006FEA00026FEA0100C4E9E6
:10C63000002004E051084FEA3000C4E900014FF047
:10C6400001001CBDF8B507460020187008700E46A2
:10C6500010601C4615466946384600F039F801005E
:10C660004FF0010009D0009959B1C808286000981E
:10C6700000F0070030700120F8BDB96809B1002052
:10C68000F8BD2070FBE72DE9F84300268846814677
:10C690003446354604E0402E02D30020BDE8F8833E
:10C6A0006946484600F076F90028F7D09DF80070FA
:10C6B000324607F07F00C10FFBF7BAFE294304435F
:10C6C000F61D0D463806E6D4C8E900410120E5E72D
:10C6D000F8B50E460746694600F05CF900280AD016
:10C6E0009DF80040200616D5072504F07F0403E0DE
:10C6F000202D01D30020F8BD6946384600F04AF9E4
:10C700000028F8D09DF8001001F07F00A8400443F5
:10C71000ED1D0806ECD401203460F8BD10B5596851
:10C720000B4AC968914212D10A4AD0E90110D2E9F4
:10C730000134234301D0002008E011F8013BA0F1AF
:10C7400001001B06F9D4C2E901100120907010BD50
:10C7500020D7020038230020C26000230160C0E916
:10C7600001138B881A440261B1F906301A44426100
:10C770000888002800D00120704770B545680E4633
:10C78000044660680188B14206D1807800F00F004D
:10C79000082801D0012070BD204600F005F860682F
:10C7A000A842EED1002070BD30B541680A885AB168
:10C7B00001F1100343600A8A42B18C780A89C4F3FC
:10C7C0000115032D07D00BE0002030BDC2680168C1
:10C7D000FFF7C2FFF8E79D78C5F30115032D06D0DA
:10C7E0000225B5EB141F08D14C89624309E08D88FE
:10C7F00004690022641B046103E0B5EB941F00D1BF
:10C800000422897811F0300F02D18168491C8160BF
:10C810009C880169214411440161B3F90620114447
:10C820004161012030BD30B54168002487B089786E
:10C8300001F00F02082A11D08A091ED00222B2EBA1
:10C84000911F09D10269C1F301110229146001D0BD
:10C85000032901D14069048007B030BD0069056833
:10C8600008E02C7329466846FEF714F86846FFF77F
:10C87000DAFFAD68002DF4D1EEE7C1F30111012913
:10C8800012D00229E6D00329E4D04268917801F061
:10C890000F0107290BD0D16881B11289006907B057
:10C8A000BDE83040FBF7D3BD41690C70EDE701698D
:10C8B000D06807B0BDE8304000F02DB8118900699C
:10C8C00007B0BDE83040FBF7DBBD000010B5034BFF
:10C8D000002408C080E8160010BD0000A3A00200DC
:10C8E00038B50D4604466946FFF7F2FE00280BD026
:10C8F000D4E90002D4E90213C5E90002C5E9021334
:10C900000098814201D2002038BDA860A168081AB1
:10C91000A060012038BD00B50A4687B001466846D0
:10C92000FFF71AFF002807D06846FFF77CFF68462C
:10C93000FFF73AFF0028F7D107B000BD7FB51446D6
:10C940000546A9B9124A2868904208D110E0102281
:10C9500069462846FFF7F2FF002807D0103C102C4C
:10C96000F5D8224669462846FFF7E8FF04B070BDB7
:10C97000A868A04201D20020F8E72B68224628468A
:10C9800098470028F2D0A868001BA8600120EDE7B6
:10C99000A3A0020010B504468068002809D02368CF
:10C9A000012220469847002803D0A068401EA060BE
:10C9B000012010BD38B5002439B1012912D0022957
:10C9C00012D005291DD0002038BD05460122694638
:10C9D0002846FFF7B3FF90B19DF800000006F5D49C
:10C9E000012038BD08220DE005466946FFF770FEBC
:10C9F00028B100212846009AFFF7A0FF38BD204645
:10CA000038BD0422BDE838400021FFF797BF000081
:10CA10002DE9F04F81462C4817460E46C5680A4658
:10CA200093B0012449462846FDF74EFEDFF89C806E
:10CA3000A24670B195F8550068B100F00101C0F34D
:10CA400040024B462846CDE9006700F043F8D8B1D4
:10CA50001BE0172419E0CDE9006A4B460022294665
:10CA600002A8FDF77DFA4FF0000B68B10FB3412229
:10CA700002A91748FBF7EBFCC8F820B0C8F82CA0B7
:10CA80006968C8F8081017E005246FB1012C13D0AD
:10CA90000E482430FEF7BEFAFDF7CEFCC8F84890E9
:10CAA00013B02046BDE8F08F012C02D0FDF7C4FC86
:10CAB000F6E7C8F814A0F3E7002231464846FDF730
:10CAC00007FBC8E90960E7E738230020383F00206A
:10CAD000D94100202DE9F047A4B08946DDE92C5A60
:10CAE000044698461646442102A8FBF7C9FC442197
:10CAF00013A8FBF7C5FC4746B9F1000F38D008F57D
:10CB00000050384A4368A16D934255D14B1EC3F380
:10CB10000B03C91A41F6FF73D0F808C019448C45BD
:10CB20004AD34FF440514B6893420DD10A78102AF2
:10CB300001D9096900E000210278102A01D90069B1
:10CB400000E00020814237D14046FDF773FE00B17E
:10CB50008EB30121A06DCDE900014346002221469C
:10CB600002A8FDF7FDF9002827D0A06D07442D1A73
:10CB700056B10020CDE9005002463B46214613A89D
:10CB8000FDF7EEF9002818D0BAF1000F28D0164DA5
:10CB9000B9F1000F19D04046FDF74CFE18B105F170
:10CBA0001800FEF737FA412202A91048FBF74FFCA4
:10CBB00036B1AC2005E0FFE7002024B0BDE8F087E7
:10CBC000A520E862A06D686301E0AA20E8623EB19A
:10CBD0000648412213A98230FBF739FC6068E860FF
:10CBE0000120EAE7DBE5B151383F00209841002001
:10CBF000034802490068FDF7A5BE0000602300203D
:10CC0000F4D902002DE9F041224C0025224E207A71
:10CC1000012730B92148311D0068FDF79EFE3060C4
:10CC200038B1022020723168087928B101281CD15E
:10CC300014E06560BDE8F081D1E90503C01A14284D
:10CC400000D31420B7EB900F01D2820800E001223C
:10CC50000869C9681844194429DF03E0D1E90301D0
:10CC6000084428DF58B1112812D003213068FDF79D
:10CC7000E0FC25726560BDE8F041FFF7B9BF207C9C
:10CC80000028D7D1BDE8F04100210220FEF7DCBE2C
:10CC90002772CFE7A44800205C230020F4D90200CB
:10CCA00010B5074C201DFDF771FE002806D1607CF1
:10CCB000002803D1BDE81040FFF7A4BF10BD00005D
:10CCC000A448002010B510461A46FBF7C0FB002010
:10CCD00010BD10B510461A46FBF7B9FB002010BD79
:10CCE0002DE9F0411E681C461546074621B1012971
:10CCF00018D0052923D119E000202060401C2060B5
:10CD0000B0421CD8012229463846FFF717FE0028FA
:10CD100006D015F8010B000601D52068EEE70120CA
:10CD2000BDE8F08108200246186002E004200246B7
:10CD3000186029463846BDE8F041FFF7FFBD0020E6
:10CD4000EEE770B516460A460446C11C104600F0D0
:10CD5000AFFB054661193046C91C00F0A9FB284409
:10CD600070BD000003B5094A85B0D2E91612CDE9BD
:10CD7000001207498989ADF8001006A9CDE9021013
:10CD8000044869464088AEDF07B000BD70D8020095
:10CD9000DC2700200823002008467047084670471B
:10CDA00070B5FEF717FC114A114E136B546B916C62
:10CDB000E21A551EC5F30B05521B42F20405184436
:10CDC0006D5802F6FF72B54201D0032070BD1944C0
:10CDD000A34201D1002070BD0823FDF7ADFC00285F
:10CDE000F9D1BDE87040FEF7E5BB0000383F0020F8
:10CDF000DBE5B151F0B50546002003464FF4405441
:10CE00000C4E4FF6FE7712E0D4F804C0B44505D1BD
:10CE100055F823C0B4F80CE0F44504D02AB155F815
:10CE200023C0BC4501D10120F0BD5B1CDBB28B42AD
:10CE3000EAD3F0BDDBE5B15110B54FF44051174BCB
:10CE40004A68018A9A4221D171B100F11403426902
:10CE500090F8550062B1042808D00022BDE81040C7
:10CE6000C9B21846FFF7C6BF002010BD0122F5E782
:10CE700010B1012808D1F7E7012905D9C9B200226C
:10CE80001846FFF7B7FFEFE7012010BD11B1416968
:10CE90000029E9D100780028F6D110BDDBE5B151B9
:10CEA0003EB5044609496846FEF7EEFF08E000BFBC
:10CEB000D0E900212046904730B16846FEF7FBFFDD
:10CEC00002980028F4D13EBD11203EBD38DB02009F
:10CED0003EB5044608496846FEF7D6FF07E000BFA6
:10CEE000D0E90021204690476846FEF7E4FF02980B
:10CEF0000028F5D13EBD000044DB02000246034895
:10CF0000014B006800F009B8B83B00203423002032
:10CF100000225821001DFDF7DBB82DE9F041144631
:10CF20004FF460751E460F4680462A46FBF7B3FA5B
:10CF300030B1002201214046FEF746F998B905E0DC
:10CF40000CB10020A0470020BDE8F0812A463946F8
:10CF50003046FBF77CFA23462A4631464046FEF728
:10CF600049F90028F0D00320EEE770B516460D46CB
:10CF7000040007D035B1206C8022002138282254CB
:10CF800003D307E00E2070BD2154401C3828FBD38A
:10CF90000BE02154401C4028FBD32146084600F0FA
:10CFA00097F838212046FBF76BFA216CD4E9123050
:10CFB0004A0FC900383459185041C4E90410227C82
:10CFC000E2710A0A42EA0062A2710A0C42EA0042D5
:10CFD0006271020242EA116020716069E070010A28
:10CFE000A170010C6170000E04F838092146084652
:10CFF00000F06EF84FF00002EEB1E06ED100C840D4
:10D00000A854A36ECB40A8180371636ECB40037283
:10D01000236ECB400373E36DCB400374A36DCB4011
:10D020000375636DCB400376236DCB40521C0377B1
:10D03000042AE2D31FE018235042216D03EBC00005
:10D04000C140A954666DC640A9180E71A66DC640B0
:10D050000E72E66DC6400E73266EC6400E74666E86
:10D06000C6400E75A66EC6400E76E66EC640521CD1
:10D070000E77042AE0D3002070BD0000A8B1002183
:10D080000164C0E912110A4901650A4941650A496A
:10D0900081650A49C1650A4901660A4941660A492A
:10D0A00081660A49C166002070470E207047000063
:10D0B00067E6096A85AE67BB72F36E3C3AF54FA529
:10D0C0007F520E518C68059BABD9831F19CDE05B55
:10D0D0002DE9F04FC8B0002213466F46CC181B1D37
:10D0E0002568E4782DBA25F0FF05254347F822503E
:10D0F000521C102AF2D31BE007EB820151F8083CC6
:10D100004FEA734484EAF34484EA932451F83C3CA4
:10D110004FEAF31585EAB34585EAD303234451F872
:10D120001C4C51F8401C2144194447F82210521C51
:10D13000402AE1D3036D4793416D4691846D459438
:10D14000C26D44929246026E4392456E4295A94644
:10D15000856E4195C66E4096B34600264FEAB217DB
:10D1600087EAF22787EA726C02EA090725EA0208D1
:10D1700087EA0807BC44204F57F8268008EB0B07C6
:10D18000BC445DF82670AB460CEB070E4FEAB307C4
:10D1900087EA733787EAB35C81EA04074D4601EA00
:10D1A000040891461F400AEB0E02A24687EA0807D0
:10D1B0000C46BC441946761C0EEB0C03402ECDD316
:10D1C000479E33440365469B194441654599214474
:10D1D000816544995144C16543991144016642995E
:10D1E0004944416641992944816640995944C16640
:10D1F00048B0BDE8F08F000024DA02002DE9F041CC
:10D2000016460F46040004D006B317B10025A84601
:10D210001AE00E20BDE8F081216C785D6054206C2E
:10D22000401C206440280ED121460846FFF750FFDD
:10D23000D4E912014FF40072801841F10001C4F8E2
:10D240004080C4E912016D1CB542E5D30020E1E73E
:10D2500010B51620FCF7D6FA48B10A4882684FF498
:10D26000800152B1016821F48001016010BDBDE868
:10D27000104042F20100FCF75FBB4FF0E020C0F825
:10D28000801110BDAC46002010B51620FCF7BAFA8C
:10D29000A0B1114890F800044009082811D20121DA
:10D2A000814011F0EC0F0CD00C4882684FF48001E3
:10D2B0006AB1016841F48001016010BD42F20100D1
:10D2C00001E042F20200BDE81040FCF735BB4FF030
:10D2D000E020C0F8001110BD16E000E0AC460020D0
:10D2E0007FB52A4800F15C01826B6846FFF7EEFAD1
:10D2F000274E9DE8070006F11C03274C83E8070032
:10D3000019462448C8600020A0706060A0604FF4F7
:10D310004771A6F54070FBF7B3F8A6F540721F49B8
:10D3200002F54770FFF761F800282BD0A07858B3BA
:10D33000A6F5407090F86C11002901781CD019BB3B
:10D3400090F8720100B3D4E90112A6F5C6756846DB
:10D35000FFF7BCFA9DE80F001C3686E80F004FF47B
:10D36000B2712846FBF78CF82A460D493046FFF784
:10D370003CF8002806D003E031B1807920B1094D96
:10D380000120E56004B070BD0020FBE7383F0020BD
:10D39000B84500201DC702003823002040D80200F5
:10D3A00020D70200C042002070B503466FF07F40D6
:10D3B000814200D20846124DD5F804250244081ACD
:10D3C000411E22F07F425860952902D29630963A4B
:10D3D00058601C7B05EB8400C0F8402509494FF4D8
:10D3E000F86088474FF4A07000EB84012846FEF7F0
:10D3F0000FFC4FF48030A040C5F8040370BD00005E
:10D400000010014091D6020070B5184E3078002807
:10D410002AD1174800680125C0F3004008B9154813
:10D420000560154C4FF480712046FEF7F1FB4FF478
:10D43000A0712046FEF7ECFB4FF4A2712046FEF7E8
:10D44000E7FB0E49A02081F800044FF0E0224FF4E2
:10D4500000310020C2F80011C4F80805A56025605D
:10D460000220C4F80403357070BD0000D0220020F3
:10D4700018040040080000400010014011E000E0E6
:10D4800070B515460E460446FFF7BEFF31462046EE
:10D490002560BDE87040FFF787BF0000017B4FF4B7
:10D4A000803088400149C1F80803704700100140EE
:10D4B0000870020A4A70020C8A70000EC8700420BC
:10D4C0007047000010B50248FDF75DFA002010BD5E
:10D4D0005823002010B514210448FAF7D1FF04485E
:10D4E0000068FDF709FA002010BD0000A4480020E4
:10D4F000F4D9020030B50F2490F8553000220BB15A
:10D50000042B03D190F86450012D06D0DD0707D01D
:10D5100090F85650012D02D002E0826E0DE0826D2F
:10D520009B070AD590F85C30012B06D1064B006EA4
:10D53000C3F53833984205D802440AB101240A6081
:10D54000204630BD0424FBE70080020030B10068B3
:10D550000549884205D048F20250704748F2015010
:10D5600070470020704700006E52464870B5FEF7C5
:10D57000F9FC002811D00020084A094B094C012170
:10D58000166801FA00F52E4203D004EB8005C5F8B9
:10D590000036401CC0B20728F2D370BD0805014018
:10D5A0003546526E00000140FFF7E0BF0020704793
:10D5B000002070472DE9FC4180461C4617460E4668
:10D5C0000C48089DFDF7E2F910B11120BDE8FC817F
:10D5D000A20839463046FEF7F3FA0648FDF7D3F9BC
:10D5E00033463A4601214046CDE90045FDF706F8AD
:10D5F0000020EBE7582300202DE9F84F114D884615
:10D6000081461E4617466946DDF828A02868FDF7C2
:10D610008EF9040013D01C21FAF732FF002020718C
:10D62000C4F80090C4E90486C4E902A769462868E2
:10D63000FDF79EF9FFF734FB0020BDE8F88F0420CA
:10D64000FBE70000F4D9020073DC1FF7EEC1CE79CE
:10D650009EEB35B3CDB103DA9F141107CB4463D7EA
:10D660001676DFF640C4181CF3B022F5F49AD87B86
:10D67000345032F80DF99F24D871032891529C0E32
:10D680004A259A47A6BFA9C5111213140D0E0F10F3
:10D690000338FDD87047000059BF02005FBF020089
:10D6A00035BF0200200000007800000000000000EC
:10D6B0004800280000204000D5870200000000003C
:10D6C0000100010000000000010000000000000057
:10D6D0000200050001000000220000000000000020
:10D6E000000000000000000000000000000000003A
:10D6F0000100010000000000010000000000000027
:10D7000002000500010000004200000000000000CF
:10D710000000000000000000000000000000000009
:10D72000010011000400FCFF0400000000000000E4
:10D73000020011000400FCFF0400000000000000D3
:10D74000030021000400FCFF0400100000000000A2
:10D75000040011000100FFFF0100000000000000B4
:10D76000050011000200FEFF0400000000000000A0
:10D77000060011000400FCFF04000000000000008F
:10D78000070011000400FCFF04000000000000007E
:10D79000080017000200FEFF24000000C0D60200AF
:10D7A000090010000100FFFF01000000BCD60200CC
:10D7B0000A0027000200FEFF44000300F0D602002A
:10D7C0000000000000000000000000000000000059
:10D7D000010011000100FFFF010000000000000037
:10D7E000020017000200FEFF6401000020D70200C3
:10D7F0000000000000000000000000000000000029
:10D80000010007000000000068010000D0D70200FE
:10D810000200010000000000010000000000000004
:10D8200003000500010000004200000000000000AD
:10D8300000000000000000000000000000000000E8
:10D84000010017000400FCFF68010000D0D70200AF
:10D85000020017000400FCFFAC01000000D8020029
:10D8600000000000000000000000000000000000B8
:10D87000001103000011130002000000010000006D
:10D880000338FDD870470C000C000000580200005F
:10D890000200000000000000020000000000000084
:10D8A000A027002009000000000000000000000088
:10D8B000010000000000000028000000000000003F
:10D8C0000000000000010000000001000000000056
:10D8D0000000000000000000000000000000000048
:10D8E000D59B0200000000000000000000000000C6
:10D8F0000200000000000100000000000000000025
:10D900000800000000000000D59B020081C1020059
:10D910000000000000000000040000000000000003
:10D9200000000000000000000000000000000000F7
:10D9300000000000000000000000000000000000E7
:10D94000F4000000000000001800000000000000CB
:10D9500000000000000000000000000000000000C7
:10D9600000000000000000000000000000000000B7
:10D97000170000000000000050EADA308883B89FEA
:10D98000604F15F30000C98E020000000000000087
:10D990000000000000000000040000000000000083
:10D9A0000000000000000000000000000000000077
:10D9B0000001000000000000000000000000000066
:10D9C0000000000000000000001000000400000043
:10D9D00001000000D1A70200C5D40200C5CC02009E
:10D9E000B5D5020085A4020099CD0200ADD5020094
:10D9F00015A80200B8460020001000000400000036
:10DA000001000000DDA70200D5D40200D3CC020043
:10DA1000F9D50200CDA402009DCD0200B1D50200CF
:10DA200025A80200982F8A4291443771CFFBC0B5D8
:10DA3000A5DBB5E95BC25639F111F159A4823F92D9
:10DA4000D55E1CAB98AA07D8015B8312BE85312432
:10DA5000C37D0C55745DBE72FEB1DE80A706DC9BF3
:10DA600074F19BC1C1699BE48647BEEFC69DC10F9F
:10DA7000CCA10C246F2CE92DAA84744ADCA9B05CDB
:10DA8000DA88F97652513E986DC631A8C82703B09E
:10DA9000C77F59BFF30BE0C64791A7D55163CA06AC
:10DAA00067292914850AB72738211B2EFC6D2C4DB8
:10DAB000130D385354730A65BB0A6A762EC9C281A6
:10DAC000852C7292A1E8BFA24B661AA8708B4BC23C
:10DAD000A3516CC719E892D1240699D685350EF466
