:020000040001F9
:1090000088510020C1930100EB930100ED93010012
:10901000EF930100F1930100F393010000000000C1
:10902000000000000000000000000000F5930100B7
:10903000F793010000000000F9930100FB93010089
:109040008D990100FD930100FD9D0100ED9D010042
:10905000FD93010000000000CD960100FD9301008A
:10906000FD930100FD930100FD930100FD930100BC
:10907000FD930100E5990100FD930100FD930100BE
:10908000859E01000D9A0100FD930100FD930100F2
:10909000FD930100FD9301007D9A0100FD93010005
:1090A000FD930100FD93010000000000000000009E
:1090B000FD930100FD93010000000000000000008E
:1090C00000000000000000000000000000000000A0
:1090D0000000000000000000000000000000000090
:1090E0000000000000000000000000000000000080
:1090F0000000000000000000000000000000000070
:10910000000000000000000000000000000000005F
:10911000000000000000000000000000000000004F
:10912000000000000000000000000000000000003F
:10913000000000000000000000000000000000002F
:10914000000000000000000000000000000000001F
:10915000000000000000000000000000000000000F
:1091600000000000000000000000000000000000FF
:1091700000000000000000000000000000000000EF
:1091800000000000000000000000000000000000DF
:1091900000000000000000000000000000000000CF
:1091A00000000000000000000000000000000000BF
:1091B00000000000000000000000000000000000AF
:1091C000000000000000000000000000000000009F
:1091D000000000000000000000000000000000008F
:1091E000000000000000000000000000000000007F
:1091F000000000000000000000000000000000006F
:10920000DFF80CD000F09CF90048004759EB010052
:109210008851002030B450E8012F93B2C489234410
:109220008489A34228BF1B1B0489A34202BFBFF34A
:109230002F8F002007E0C3EA020340E80134002C2E
:10924000E9D14FF001000A6030BC704750E8012FAF
:10925000C2EA024240E801210029F7D1704730B448
:1092600050E8022F1FFAA2F3C488A34202BFBFF343
:109270002F8F00200DE0C48923448489A34228BF96
:109280001B1BC2EA034340E80234002CE8D14FF034
:1092900001000A6030BC704750E8022FC2EA224247
:1092A00040E802210029F7D17047034653E8022F16
:1092B000D988B2EB324F4FF0000017BF92B241EAAB
:1092C000014142EA014104E05A68B2EB324F08BF63
:1092D000012043E80212002AE8D1704730B4044666
:1092E00054E8000F0D4644E80053002BF8D11560F8
:1092F00030BC704730B4044654E8000F40EA010522
:1093000044E80053002BF7D1156030BC704730B4EF
:10931000044654E8000F00EA010544E80053002B1E
:10932000F7D1156030BC704730B4044654E8000FE4
:1093300080EA010544E80053002BF7D1156030BCEA
:10934000704730B4044654E8000F00EB010544E8D0
:109350000053002BF7D1156030BC704730B4044681
:1093600054E8000FA0EB010544E80053002BF7D1AF
:10937000156030BC704770B404464FF0000054E8EC
:10938000006F0D68AE4207BF44E80023012044E8A7
:1093900000630E60002B1CBF0020F0E770BC70471C
:1093A00030B4044654E8000F88422CBF451A0546E5
:1093B00044E80053002BF5D1156030BC7047000025
:1093C0000F4800680F4909680A280AD1002908D106
:1093D0000D4802686FF070031A404FF040031A43C3
:1093E00002600A4880470A480047FEE7FEE7FEE7BA
:1093F000FEE7FEE7FEE7FEE7FEE7FEE7FEE700002A
:109400003001001034010010E40E0040ED9A01001C
:10941000019201002DE9F05F0546002092469B462F
:1094200088460646814640241BE02846414647467A
:10943000224600F074F853465A46C01A914110D3A0
:1094400011461846224600F016F82D1A67EB01085F
:109450004F4622460120002100F00DF817EB0009CD
:109460004E41201EA4F10104DFDC484631462A4665
:109470004346BDE8F09F202A04DB203A00FA02F1BF
:10948000002070479140C2F1200320FA03F31943F2
:1094900090407047004870478C79020040EA010311
:1094A0009B0703D009E008C9121F08C0042AFAD29A
:1094B00003E011F8013B00F8013B521EF9D270475E
:1094C000D2B201E000F8012B491EFBD27047002206
:1094D000F6E710B513460A4604461946FFF7F0FFB3
:1094E000204610BD421C10F8011B0029FBD1801A38
:1094F000704730B504460020034600E05B1C9342F1
:1095000003D2E05CCD5C401BF8D030BD034611F8BF
:10951000012B00F8012B002AF9D118467047202AA8
:1095200004DB203A21FA02F00021704721FA02F30D
:10953000D040C2F120029140084319467047000014
:10954000064C074D06E0E06840F0010394E8070090
:1095500098471034AC42F6D3FFF756FE388F02001E
:10956000588F020070B58C1810F8015B15F00703D6
:1095700001D110F8013B2A1106D110F8012B03E0AC
:1095800010F8016B01F8016B5B1EF9D12B0705D4B4
:109590000023521E0DD401F8013BFAE710F8013BFD
:1095A000CB1A921C03E013F8015B01F8015B521E19
:1095B000F9D5A142D8D3002070BD00002DE9F047B5
:1095C0001D4617468946044602F00F06DDF820A026
:1095D00000F058F8DFF86880C8F800401DB1C8F8FE
:1095E000045000F025F9BAF1000F01D0C8F808A026
:1095F000002510E0484600F087FC4946204600F070
:1096000041F8C8F8004000F045F8C8F808401034A8
:1096100009F110091035BD42ECD3002E0ED0494699
:10962000204600F02FF8C6F11001A019FFF74FFFF8
:10963000C8F80040BDE8F04700F02CB8BDE8F0875E
:1096400014300020F0B50D490D4E00220C680021A9
:1096500002EB800504EB820301EB850C5F5C16F8DE
:109660000CC087EA0C075F54491CC9B20429F3D324
:10967000521CD2B2042AEAD3F0BD000014300020FC
:10968000B838002000228B5C8354521CD2B2102ABE
:10969000F9D3704710B50020FFF7D4FF5FF0010445
:1096A00000F00CFA00F0ECF900F024F92046FFF786
:1096B000C9FF641CE4B20A2CF2D300F0FFF900F0F9
:1096C000DFF9BDE810400A20FFF7BCBF2DE9F047E5
:1096D00000268AB0DFF85091B0464FF4807501241F
:1096E00037460696284606F007FD38B1D9F8040338
:1096F000204203D0284606F0F5FC26432D1D6400C9
:109700007F1CADB2082FEDD34FF4BE74204606F097
:10971000F3FC48B1204606F0E5FC46F0004606AAF8
:109720000121002006F0CAFC404D16F0FF0F15D0B5
:109730000127002437420DD009EB8401D1F8100530
:10974000D1F81015C0F3042055F82420C1F30141CD
:1097500002B190477F00641C082CEBD3002E5FDA27
:109760004FF0FF30CDF8108054E0281910F8507FEA
:1097700090F9000027F0C008401C3BD007A94046E4
:1097800005F082FD10B34FEA9719404602F046FEFD
:1097900055F820701FB1B9F1030F03D006E0B9F1FD
:1097A000030F27D104A9404605F076FD4FF0A041F4
:1097B00001EB8800D0F8000706A9C0F3014A404633
:1097C00005F062FD18B1BAF1020F03D012E0BAF150
:1097D000030F0FD1B9F1030F08D1BAF1020F1DD059
:1097E0000221404606F046FC761CF6B217B1494607
:1097F0004046B847641C042CB7D3002E10D06A46EC
:109800000121002006F05AFC06990098884207D0F2
:1098100006900498002634460790A6E70321E0E767
:109820000AB0BDE8F0870000006000409C3D0020C9
:1098300078B52D492D4A0020496800BF11F8203025
:1098400002F8203001EB800302EB80045D78657044
:109850009D78A570DB78401CE3700428EED33FE0D0
:10986000002183006D461B1F5C18145D6C54491C5D
:109870000429F9D381071AD11D4E9DF801309DF8B6
:1098800002509DF803409DF80010F35C755D8DF863
:109890000150345D8DF80240715C8DF8031006F5BF
:1098A000007101EB900109784B408DF8003002EB1C
:1098B00080019DF8004011F8103D634002F820300F
:1098C0004B789DF8014063404B748B789DF80240C3
:1098D00063408B74CB789DF803406340CB74401C8D
:1098E0002C28BDD378BD000014300020B8380020EB
:1098F000E87002002DE9F04323480024D0F800C0AE
:109900000CEB84071CF824107E78BB7881EA0602F1
:10991000FD784FEAD21883EA050908EBC80882EA05
:10992000090008EB480888EA420242404A400CF825
:10993000242086EA03024FEAD21808EBC80808EB95
:10994000480888EA4202424056404FEAD91202EBE8
:10995000C20202EB420282EA49024240534085EAD7
:109960000102D10901EBC10101EB410181EA420190
:1099700041407E704D40641CBB70E4B2FD70042C0D
:10998000BED3BDE8F08300001430002070B54FF462
:109990008076304605F09AFD114CB50560B1304631
:1099A00005F09BFD0120C5F80803607920B901206E
:1099B00060712168002088474FF48276304605F0B8
:1099C00085FD00280AD0304605F087FD0220C5F845
:1099D00008032168BDE870400120084770BD000001
:1099E0000C310020064882B0002101600068009020
:1099F000044800680449C0B2496802B00847000042
:109A000000D1004008D5004028310020024902481A
:109A1000091F0968006808477831002000F084BAFF
:109A200070B50E46144900EB400001EBC00514462A
:109A3000E86A183520B101280FD0022805D113E0BB
:109A4000284600F0A5FAA04201D2002411E02246E7
:109A50003146284600F0D4FA0BE0284600F098FA88
:109A6000A042F4D20446F2E73146284600F09BFAC1
:109A70000446204670BD0000FC46002007F058B99F
:109A80000D480068417842794270427A4271427BC7
:109A9000427241738178827A827081728179827B8D
:109AA00082718173C178C27BC270C27AC273C2797B
:109AB000C272C171704700001430002030B50949EE
:109AC000094C00200B68002103EB8102491C155C46
:109AD000C9B20429655D1554F6D3401CC0B20428F0
:109AE000F1D330BD14300020E87002002DE9F047BA
:109AF000AC4F4FF001093E1D3978351D4FF08054B1
:109B000006290BD13078000708D12878C0F303105C
:109B1000032806D0042804D0052802D0062907D03F
:109B200011E0B4F82403A049C0F30420086002E067
:109B30003078000707D12878C0F30310032802D13A
:109B40009B499A48486703F0B9F828B1D4F8440211
:109B50009849C0F3423008603878B84606280CD1DE
:109B60003078000709D12878C0F30310032804D106
:109B70009148016821F08071016003F0C5F8002769
:109B800040B14FF08040C0F80C71C0F810718948A6
:109B9000001F076098F80000062807D131780907F0
:109BA00004D12978C1F30311032902D0062805D076
:109BB00019E0804A03216432116007E03178090717
:109BC00011D12978C1F3031103290CD17B4B052254
:109BD0001A607A4A7832C2F80090784908310F60EA
:109BE0003F211A1D1160D4F830210A2A04D1D4F87B
:109BF000341159B1012909D0062807D13178090754
:109C000004D12978C1F30311052955D16C4909689C
:109C10006C4B19606A49091D09681B1D1960684968
:109C2000083109681B1D196065490C3109681B1D45
:109C300019606349103109681B1D196060491431AE
:109C400009681B1D19605E49183109685D4B203396
:109C500019605B491C3109681B1D19605849203186
:109C600009681B1D19605649243109681B1D1960BC
:109C70005349283109681B1D196051492C31096865
:109C80001B1D19604E49303109684E4B4033196035
:109C90004B49343109681B1D19604949383109683D
:109CA0001B1D196046493C3109681B1D1960444958
:109CB000403109681B1D19600A2A05D1D4F83411F6
:109CC00011B9414AFB211160DFF80081062811D14A
:109CD000307800070ED12878C0F30310032803D092
:109CE000042801D0052805D1D4F8580200F04F010E
:109CF000C8F8001002F0BCFF30B135480168C90750
:109D000002D06FF001010160D4F83001062803D1C0
:109D1000D4F83411062902D00A2806D008E02D48CC
:109D2000016841F48061016002E0D4F8340128B197
:109D3000D8F8001041F00F01C8F800104FF01021C2
:109D4000D1F80002002803DBD1F80402002823DA4E
:109D5000214AC2F8009021480368002BFCD015234B
:109D6000C1F800320468002CFCD0C1F8043201684C
:109D70000029FCD0176001680029FCD0BFF34F8F89
:109D80000D48F0380168164A01F4E06111430160A2
:109D9000BFF34F8F00BFFDE7134912480860BDE8CD
:109DA000F0870000E00F00F0403501400DF0ADBA43
:109DB00000C007403C050040FCED00E010560040AC
:109DC0000404001020C5004018F50040E40E0040D7
:109DD000000400403C17004004E5014000E401405D
:109DE0000400FA050090D0033C32002001490248EB
:109DF0000CF0F6B8483E00200030004001480068F2
:109E0000004700001431002010B50D4C6068401C64
:109E100060600A2807D30B48006800F023FD02F0B9
:109E2000B5FD00206060084808496268401AC00813
:109E3000032101EB0040BDE8104005A106F04ABB3C
:109E4000CC2F0020A870020030900200688F020022
:109E5000202B2B2B2047554152445F54494D455FE1
:109E60005345434F4E44533A202564202B2B2B0A55
:109E70000000000002480168491C016070470000B2
:109E8000FC2F002038B5064C20680025002805D09E
:109E900004484068804725602068009038BD000075
:109EA00000010140303100203EB500200090AB2180
:109EB0008DF800108DF8010008218DF80210FF21A7
:109EC0008DF80310019058218DF8041080228DF830
:109ED000052002908DF8060001208DF80700002073
:109EE0004FEA0D029DF80830145C401C2344C0B2B8
:109EF0008DF808300728F5D38DF809100A2110468F
:109F00000BF064F93EBD0000064A10B592680021CE
:109F1000435C545C63404354491CC9B21029F7D3D5
:109F200010BD00001430002010B5124C022020613A
:109F3000606111A0A06104F17800E0614FF400704D
:109F400020620020A06260620BA1A164E06204F5BF
:109F50001E71E1641021A065C4E91410E06509A137
:109F6000E01DFFF7D3FA08A12046FFF7CFFA202023
:109F7000A07110BDFC4600205465726D696E616C65
:109F8000000000005254540053454747455200001A
:109F90000269C1688A4203D88068401A104400E010
:109FA000501A401E70472DE9F047C468174689468D
:109FB00006464FF000083069A04201D9051B02E0B7
:109FC000B168201A0D1AB0686D1E001BA84200D897
:109FD0000546BD4200D33D4670682A4620444946A6
:109FE000FFF75CFAB0687F1B2C44A844A944A04248
:109FF00000D10024F460002FDDD14046BDE8F08799
:10A000002DE9F04104468846D4E90207C51BE16802
:10A01000606816460844B54206D94146FFF73EFA45
:10A02000B819E060BDE8F0812A464146FFF736FAEC
:10A03000761B08EB050132466068FFF72FFAE660F1
:10A04000F0E702E008C8121F08C1002AFAD17047E1
:10A050007047002001E001C1121F002AFBD17047A8
:10A060000121202803DA81400548014003E040280F
:10A0700002DA2038814009B1012070470020704782
:10A08000FC06FFBD2DE9F843804643F2020659B9AC
:10A09000694609F01DF8B04202D008B100F056FB45
:10A0A0009DF80000800744D40021404609F01AF8CA
:10A0B00005003ED0112D3CD01F482049401AC7084A
:10A0C000022000EB07440D2D0AD00B2D1DD0B54208
:10A0D0001FD11B4920464246BDE8F84306F0FAB9B5
:10A0E00020464246174906F0F5F91321404676DF2F
:10A0F00000281ED006F0CEFE024601B020464346A0
:10A10000BDE8F04310A106F0ECB9204642461C49D8
:10A11000E2E7284606F0BEFE0246012000EB0740BB
:10A12000434618A106F0DDF92846BDE8F84300F0E3
:10A130000DBBBDE8F8830000A08F0200688F02000D
:10A14000B08002003C80020073645F626C655F67F0
:10A1500061705F646973636F6E6E65637428292034
:10A1600072657475726E6564202573206F6E20634E
:10A170006F6E6E5F68616E646C652025642E0000F2
:10A18000FC800200417373657274696E672E2070E3
:10A190006D5F636F6E6E5F736563757265282920EE
:10A1A00072657475726E6564202573206F6E20630E
:10A1B0006F6E6E5F68616E646C652025642E0000B2
:10A1C0007FB5054600200090AB218DF800108DF87A
:10A1D000010008218DF80210FF218DF8031058218D
:10A1E00001908DF8041080228DF805208DF806006E
:10A1F000ADF80C0002908DF807506A469DF80830C3
:10A20000145C401C2344C0B28DF808300728F5D3F5
:10A210000A20114C8DF80910ADF80C00E38803AA50
:10A22000694604F14C0001F066FC82B20B480C490F
:10A23000E281401AC108032000EB0140044609A155
:10A2400006F048F9002D06D1094901200870204682
:10A2500008A106F03BF97FBD782D00203090020068
:10A26000688F02006572726F723A2578200D0A00BD
:10A27000FA2F002020585858585858206E6F7420D4
:10A28000666F756E64200D0A000000002DE9FF4125
:10A29000002100910191029103910146102268462C
:10A2A000FFF7FCF8144815490024401AC008114F64
:10A2B000032101EB004500BF07EB041010226946A3
:10A2C000FFF717F930B1641CE4B20A2CF4D30A2C5E
:10A2D00006D00AE028460AA106F0F8F80126F6E7BB
:10A2E00028460BA106F0F2F8002604B03046BDE87F
:10A2F000F0810000D837002030900200688F020003
:10A300003D3D3D3D3D3D3D3D2066696E64000000A4
:10A310003D3D3D3D3D3D3D3D206E6F742066696E87
:10A320006400000010B560B159B102780B78520892
:10A33000B2EB530F05D10622401C491CFFF7D9F898
:10A3400008B1002010BD012010BD800701D0002001
:10A35000704701207047C3688B4206D811440069DA
:10A36000491E814201D8012070470020704790F8B3
:10A3700024001F20704710B501220221002001F0A7
:10A3800005FE08B1072810D107220221012001F0A3
:10A39000FDFD08B1072808D100210A22084601F076
:10A3A000F5FD08B1072800D1002010BD10B5B2B0EE
:10A3B000AC216846FFF78BF800242D942BA82E942F
:10A3C0006DDF1F489DF8B210022201709DF8B11098
:10A3D00041709DF8B01081709DF8AF10C1709DF86C
:10A3E000AE1001719DF8AD10417101682D9180880A
:10A3F000ADF8B8002DA8319006208DF800208DF81A
:10A400000240ADF8C0008DF803002FA809904FF46A
:10A4100096700121CDE922048DF87C100948ADF831
:10A42000BC1029906946084800F064FD08B100F0AE
:10A430008DF90121044800F05AFD32B010BD000032
:10A44000D42F00207D1D02008435002010B578B186
:10A450000E4800F02BF80E480E49401AC0080321A0
:10A4600001EB00400CA106F031F809F04BFD06E0CD
:10A470000321064800F00CFE0B4A0221117000284F
:10A4800003D0BDE8104000F061B910BD8435002054
:10A4900030900200688F0200457261736520626F20
:10A4A0006E64732100000000CC2F002090F854004F
:10A4B00074DF02490020087070470000CC2F002094
:10A4C00070B58CB015460E4600236C46C3F10F01E3
:10A4D000415CE1545B1C102BF8D30D2104F11000FA
:10A4E000FEF7F5FF0020C0F10F02315C2244401C52
:10A4F00011740328F7D3684646DF0020C0F10F012E
:10A50000214491F820102954401C0328F6D30CB0A4
:10A5100070BD022001F044BC0149C97800F064BF5D
:10A52000E030002070B50024064D06E06868012187
:10A5300010F8340006F024FD641C28788442F5D31A
:10A54000002070BD38310020F8B516460C4605468F
:10A550000A2A01D20720F8BD06F00CFE18B906F051
:10A56000D3FD0028F7D1134F102113487D603C70B4
:10A57000BE60FEF7ACFF0020C7E904000F4E0DE0FF
:10A5800005EBC4003168009181788DF801100078E6
:10A590000B4A694606F046FD0028DCD1641EE4B291
:10A5A000EED2BDE8F84005480021064A001D00F043
:10A5B00007B9000038310020F03E0020D4750200B9
:10A5C000DDDC010045C9010070B509211548FEF721
:10A5D0007EFF144CAB2015492070002060700620CF
:10A5E000A070FF20E070B0202071802060710120F9
:10A5F000A071E120E071882020720B480025401AEC
:10A60000C008032101EB0046605D00F09DF9635D29
:10A6100030462A4606A105F064FF6D1CEDB2092DF7
:10A62000F2D370BD6832002030900200688F0200C3
:10A63000205245432025643A2534780D0A00000055
:10A64000FEB500200090AB218DF800108DF80100C0
:10A6500006218DF80210FF218DF803100190B02122
:10A660008DF8041080218DF8051002908DF80600F9
:10A67000E0208DF8070088208DF808000B490C4871
:10A680000024081AC00803216D4601EB0046285D2E
:10A6900000F05AF92B5D3046224606A105F021FF55
:10A6A000641CE4B2092CF2D3FEBD0000309002001D
:10A6B000688F0200436F6E6E656374656420256465
:10A6C0003A2534780D0A000072B605F0B3FF00BFDA
:10A6D00005F0E2FD0028FBD111481249401AC408D8
:10A6E000012000EB044010A105F0F0FE11480068C5
:10A6F000C00700D000BE022000EB04400EA105F010
:10A70000E5FEBFF34F8F0B48E43801680E4A01F4B1
:10A71000E06111430160BFF34F8F00BFFDE7000010
:10A7200030900200688F0200466174616C2065728F
:10A73000726F7200F0ED00E053797374656D2072F2
:10A7400065736574000000000400FA050EB5002171
:10A750000091CDE901106A4644F20100FFF7B4FF11
:10A760000EBD10B58268C368934203D002F080FE2C
:10A77000002010BD052010BD29B112B1531E134297
:10A7800003D0092070470E207047016083800021AC
:10A790008160C1600846704710B58268C3689A1A24
:10A7A00083889A4203D802F06DFE002010BD042079
:10A7B00010BD0000014802F034B9000058310020FB
:10A7C0003AB100680129426100D0002101610020F6
:10A7D000704707207047000038B5114808235822F9
:10A7E000416800910F49006804F033FC002815D13E
:10A7F0000D4A69460D4802F019F904000ED10121F5
:10A800000A4802F08AF90123094A1946074802F06A
:10A81000E0F80649012008390870204638BD0000DC
:10A82000DC750200103F0020A949020058310020C9
:10A83000FFFF7F0070B50446007F0D4608B1002081
:10A8400070BDA26103F030FA401941F10001C4E982
:10A850000201206900B125612146BDE87040002059
:10A860000BF0FABA01460020087701200BF0F4BA89
:10A8700070B50A4E01460A48B578FFF772FF0446E4
:10A880004DB10020B070711C0122C81D04F032FFD0
:10A8900008B1FFF75BFF204670BD0000C03100200B
:10A8A00020410020F0B5244E89B01F460D0004461B
:10A8B00072603FD0A888296882B22048FFF75CFF09
:10A8C000002835D1A889A96882B21C481030FFF74A
:10A8D00053FF00282CD1202219496846FEF7DEFDDF
:10A8E00060690690207C00B101208DF814008DF87D
:10A8F0001C70607C00B10E208DF81500E06802909D
:10A90000A068039020680190606800900A480D4A92
:10A910006946083004F0BAFE002809D1B0702068FA
:10A92000401C05D004490122491CC81D04F0E2FE68
:10A9300009B0F0BD0720FBE7C03100202041002016
:10A94000107802008563020010B501461048FFF739
:10A9500023FF040019D10F480F4A0178515C19B147
:10A96000001D06F08FFF02E00C3006F065FE60B9B6
:10A97000084907480839FFF7F4FE30B905490122B4
:10A980000839044804F0C6FE0446204610BD000005
:10A9900030410020C83100200031002030B5EFF3F5
:10A9A000108172B60D4A9468012324B10370002906
:10A9B00000D162B630BD93604FF0E023D3F88051F0
:10A9C000074C25401560C3F88041D3F8844154609A
:10A9D0005A17C3F8842100220270E8E7683F00207C
:10A9E000FC06FFBD0B498A68002A11D000280FD150
:10A9F000EFF3108072B60B684FF0E022C2F800311E
:10AA00004B68C2F8043100228A60002800D162B687
:10AA100070470000683F00202DE9F04106460868B5
:10AA20000C46411C4FF0A0474FF0010506D005FA37
:10AA300000F1C7F80815206805F008FB6068411CA4
:10AA400002D0002105F0F0FA3168A069C1F82405B0
:10AA5000607D227D31681043C1F86C05D4E9001295
:10AA60003068C0F81425C0F80C15207D012815D1D8
:10AA7000A068411C02D0002105F0D6FAE068411C14
:10AA800005D08540C7F80855E06805F0DFFAD4E93D
:10AA900002123068C0F80825C0F81015BDE8F08132
:10AAA0002DE9F041064608680C46411C4FF0A047CE
:10AAB0004FF0010506D005FA00F1C7F80815206827
:10AAC00005F0CEFA6068411C02D0032105F0B5FA0A
:10AAD0003168A069C1F82405607D217D3268084392
:10AAE000C2F86C05D4E900123068C0F80C15C0F843
:10AAF0001425207D012815D1A068411C02D0002119
:10AB000005F09BFAE068411C05D08540C7F8085560
:10AB1000E06805F0A5FAD4E902123068C0F808250B
:10AB2000C0F81015BDE8F08103F0E6BE2DE9F0474E
:10AB3000814605884A484FF000088AB001784246AD
:10AB4000284600F069FC99F80500400701D400216F
:10AB500076E005F58077B8B205AB0122072107F052
:10AB60001FFF04003F48404A4FF00101A0EB0200E4
:10AB70004FEAD00001EB00460AD0204606F08AF9E1
:10AB8000024630462B46394905F0ABFC214629E008
:10AB9000284603F013FC4FF6FF71044688422BD180
:10ABA0008A46069803F074FB0446504510D00146CF
:10ABB000284603F0E3FB2846FFF7AEFCE0B9284641
:10ABC0000AF0F2FA2846FFF7A7FC0028BFD013E0EE
:10ABD00008F0B4F80446504508D1304624A105F0E9
:10ABE00075FC042128460AF093FBB0E7014628468D
:10ABF00003F0C4FB4FF00108B8B22246072107F06A
:10AC000047FF07001BD0862F1ED006F043F90246EF
:10AC100030462B462349009405F06BFC3946284604
:10AC20000AF076FB0021484607F0B2FDB8F1000FAC
:10AC300002D0204603F0ACFB0AB0BDE8F08701214A
:10AC4000484607F0A5FDF7E7142217496846FEF7C6
:10AC500025FCADF80250684602F0F2F9EFE700007B
:10AC6000E0300020A88F0200688F0200F883020005
:10AC7000436F756C64206E6F7420616C6C6F6361E0
:10AC80007465206E657720706565725F6964206603
:10AC90006F7220696E636F6D696E6720626F6E649C
:10ACA0002E000000148502004C750200A023034A08
:10ACB0004FF41C31024804F051BF0000D837002087
:10ACC0004032002070B51500044609D000202860ED
:10ACD00034B1206820B1A079800703D0072070BD6F
:10ACE0000E2070BD084600F009FBC0B2142804D045
:10ACF0002179814203D8042070BD052070BDE2880F
:10AD0000216800FB02102860002070BD2DE9FC477F
:10AD1000002517880646158090F82D0014468946B0
:10AD200030B13A462146484600F09CFB051E09D149
:10AD3000B0784FF00C0A18B32088C846001DB842FE
:10AD400002D95046BDE8FC87684679DF0028F9D172
:10AD50002088032108F8001020881921401C80B2A7
:10AD6000208008F800102088401C80B2208000EB72
:10AD70000801BDF800000BF0A6FC218808442080E3
:10AD8000F0780222C8B1218896F9033001F1030C52
:10AD90004846BC45D5D8425421884FF0010C491C87
:10ADA00089B2218000F801C02188491C89B2218024
:10ADB00009F801302088401C20807068B8B12188D3
:10ADC00090F9003001F1030C4846BC45B9D8425413
:10ADD00021880A22491C89B2218042542188491CB9
:10ADE00089B2218009F801302088401C20803089F8
:10ADF00050B1CDE900474B460622022106F108007A
:10AE00000BF026FE051E9DD1308A50B1CDE90047DA
:10AE10004B460722032106F110000BF019FE051E18
:10AE200090D1308B50B1CDE900474B46152214210B
:10AE300006F118000BF00CFE051E83D1306A30B10C
:10AE40003B462246494601F026FC051EDBD1706ACE
:10AE500030B13B462246494603F0D7FF051ED2D10A
:10AE600096F82C0038B13B462246494630460AF057
:10AE700093FB051EC7D1307838B13B462246494680
:10AE8000304604F04FF8051EBDD128465AE718B5E4
:10AE900004460020ADF8000013466A46204600F044
:10AEA00006F8002802D0BDF80000204418BD70B597
:10AEB000C8B1C2B10024158803E0065D641C3444A7
:10AEC000A4B2A54203D8061976789E4201D08C42DE
:10AED000F3D38C4207D2005DA31C401E9BB280B20C
:10AEE0001C188C4201D9002070BD138070BD80F801
:10AEF000301070472DE9F0410D00044606D02CB10A
:10AF000095F87A000026012803D006E00E20BDE85F
:10AF1000F08195F89800012829D0D5F8A0000428E0
:10AF200025D0D5F89C00042821D04FF00108A67048
:10AF30002C2205F17801201DFEF7B0FA84F830606C
:10AF4000D5F8A4006063D5F8A800A0634FF6FF70A1
:10AF5000A4F8E80004F1D400C4F8E400C4F8EA60FE
:10AF6000A4F8EE6084F8F060207810B104E00720C7
:10AF7000CDE7FF2084F8540004F155072046C4F8BB
:10AF8000D470FFF7F4F9A4F8D80004F1D8023946D8
:10AF90002846FFF7BBFE0028B9D104F19300C4F89E
:10AFA000DC002046FFF7E3F9A4F8E00004F1E0023A
:10AFB00005F13C00D4F8DC10FFF7A8FE0028A6D16C
:10AFC00084F85180208BA4F8480084F83C802664E3
:10AFD00084F85060606900216064454604F13C02D9
:10AFE000781E72DF002892D1257090E710B5028894
:10AFF000102A1BD0112A20D0262A1DD1007A0C46F7
:10B00000012801D0022817D1A0780521401CB0FBEF
:10B01000F1F201FB1201204600F03AF800280BD0B3
:10B02000A16B002908D0BDE810400847C27B012A67
:10B0300002D18088A1F8E80010BD0C46002184F8F8
:10B04000F2108088B4F8E8108842F5D12079002801
:10B05000F2D10121DFE710B5044690F8540074DF07
:10B06000012084F8F200002084F8F40084F85000F5
:10B070000621204602F030FA002808D1A1782046A7
:10B0800000F006F810B1A16B01B18847002010BD97
:10B090002DE9F05F044600780F4698B1A7700025AF
:10B0A000C4F8EA50A4F8EE5084F8F050A0790126D4
:10B0B00008B1012F09D0E07980B1012F05D0022F0E
:10B0C00003D00BE00820BDE8F09F616B21B184F84C
:10B0D000F1600820884701E084F8F15004F1EB01A9
:10B0E00000200A5C0AB1304603E0401C0628F8D371
:10B0F00000204FF002084FF0030A4FF0040B012F1D
:10B1000006D0022F0CD0032F0FD0042F15D110E042
:10B11000A17929B194F8241011B908B130460DE095
:10B12000E17911B108B1404608E0207A08B15046F3
:10B1300004E0607A08B1584600E02846A070616BD0
:10B1400041B1032801D0042804D1607910B194F8EA
:10B15000F20098B184F8F35004F13C00182107463E
:10B16000FEF7B5F984F83C6004F12C0007F018FFF5
:10B1700058B194F82C0084F8510008E084F8F45099
:10B1800084F8F36007208847E6E784F8516094F874
:10B19000240058B104F1280007F002FF20B194F810
:10B1A000280084F8520001E084F8526084F850507E
:10B1B000A27804F1EA0104F1D409052A4DD2DFE8AE
:10B1C00002F065030F1B320084F83160C4F8E450CC
:10B1D000C4E9101584F83C808020A4F848003EE0C3
:10B1E00084F8318087F800A0228ABA81C4F8E4503C
:10B1F0007960E168B96032E06069B860208BB8813D
:10B200003D4684F83C6020460BF0EEFB40B185F8EB
:10B2100014800421204602F05FF9F0B9052115E001
:10B2200084F831A017E0E069B860208CB8813D4611
:10B2300084F83C6020460BF0D7FB50B185F81480B1
:10B240000421204602F048F938B9062184F831106B
:10B2500001E084F831B0C4F8E490A07878B13A46BF
:10B2600004F15400D4F8E41072DF00287FF42BAF0F
:10B2700094F8301094F8540073DF0028F6D1616B15
:10B2800011B194F83100884700201CE784F8315050
:10B29000F5E7000070B5040012D001461C221448E6
:10B2A000FEF7FCF81248134D0560206850B17ADFB4
:10B2B000002806D12068016829604068686005E0C0
:10B2C0000E2070BD0B487BDF0028FAD108484FF6EE
:10B2D000FF711438084A20F8041B0549343901600D
:10B2E0000021FFF76DFA0028EBD0032070BD0000AD
:10B2F0000C3A0020383000208169020010B5044665
:10B3000000F0A6F808B1204610BD142010BD0000C2
:10B3100010B5044600F09CF8002805D02146BDE891
:10B320001040024803F014BF10BD0000383A00205E
:10B3300070B515460E4604460BF062FB002809D096
:10B34000054800EB8400C0692A463146BDE87040DC
:10B3500002F0EEB870BD0000283A002010B5044697
:10B3600000F076F8002805D02146BDE810400248DC
:10B3700003F0EEBE10BD0000403A002010B50446B8
:10B3800000F066F8002805D02146BDE810400248CC
:10B3900003F0DEBE10BD00003C3A002010B50024D2
:10B3A00000F056F800B10124204610BD70B50546E6
:10B3B000002400F04DF838B12946044803F0C8FED7
:10B3C00008B1022400E00124204670BD303A00207C
:10B3D00010B51821034803F096FE182800D0C0B21B
:10B3E00010BD0000283A002070B505460C460846FE
:10B3F0000BF006FB60B1284600F02AF840B1054882
:10B40000294600EB8400BDE870401C3003F0A0BE6C
:10B41000002070BD283A002070B5054616460C463F
:10B4200008460BF0EDFA00280ED0284600F010F880
:10B43000002809D00548324600EB84002946BDE8C3
:10B4400070401C3002F043B870BD0000283A002064
:10B45000142801D3002070470146014803F078BE4C
:10B460002C3A00207CB5054608880C4609309042ED
:10B4700001D90C207CBD68466DDF0028FAD12188F7
:10B480000820685420881B21401C80B22080295449
:10B490002088401C80B220802844DDF80110016023
:10B4A000BDF8051081802088801D80B220809DF825
:10B4B0000010490800D0012129542088401C208018
:10B4C00000207CBDF8B5018800250446162921D04E
:10B4D00011DC2B482B4A4FF00306A0EB02004FEA89
:10B4E000D000294FA1F1100106EB0040022911D232
:10B4F000DFE801F01E39262904D00CDC182909D018
:10B50000192907D10095808869468FDF002801D06E
:10B51000FFF71CF9F8BD3B292ED05629FAD18088B7
:10B52000132176DF0028F5D0BDE8F840FFF70EB90B
:10B5300016A104F0CBFF012002F0FEFCFFF744F857
:10B540003D70072000F044FD08B1FFF7FFF81248F6
:10B55000A188C180114803F041FF08B1FFF7F6F858
:10B560000F480670F8BD0FA104F0B0FFFFF768F8B0
:10B57000104805603D70F8BD8088132176DFD1E763
:10B5800030900200688F0200FB2F0020436F6E6E28
:10B5900065637465642E0000782D002078350020E6
:10B5A000CC2F0020446973636F6E6E6563746564AD
:10B5B0002E000000D02F002010B51A4C01886068C2
:10B5C00010290ED011292BD1401E606028D1FEF722
:10B5D000D2FE002824D02168002921D0BDE81040E7
:10B5E0000847D0B900210122084600F0CFFC08B17D
:10B5F00007280FD107220221012000F0C7FC08B163
:10B60000072807D104220221002000F0BFFC20B14E
:10B61000072802D0216801B188476068401C60603B
:10B6200010BD0000303000202DE9F04701883B4E6E
:10B6300040F2F3194FF6FF7510291BD011293ED0A7
:10B64000122954D0502946D1C188F289841D9142D3
:10B6500041D1618902293ED18688304602F092FFAD
:10B66000050038D004F10C0000F01AFBA8B32946FD
:10B6700030464EE0C17B8788044601292BD1A8467D
:10B68000284602F07FFF050017D02F800020287287
:10B69000234843464A460168C5F80A104068C5F881
:10B6A0000E0004F1100105F10A0003F02DF8687294
:10B6B000F08900280FD129462AE0042013E0808871
:10B6C00002F060FF040006D06068FFF7CBF808B115
:10B6D00009F0A8FD2580BDE8F087FFE76868FFF75F
:10B6E000C1F80028F7D0BDE8F04709F09BBD878876
:10B6F0000646384602F046FF0400ECD02B464A4688
:10B7000006F1080104F10A0002F0FEFF6072214612
:10B710003846BDE8F04701F005B800000C3A0020BB
:10B72000383000202DE9F04F0446868801884248D1
:10B7300097B0834610290CD0112950D01030192908
:10B740006AD01A2974D1217A0C09042C4DD3012214
:10B750004CE0394D083DA868C0430B9069680BA8C0
:10B7600003F01AFD0B990CA800F076FF2C220CA90F
:10B770006846FDF793FE0027E946A84610E000BFA3
:10B7800009EB47005FF00005B0F804A008EB850066
:10B790005146001D03F09CFC6D1C1E2DF6D37F1C32
:10B7A0000098B842ECD8142E05D317B00420BDE899
:10B7B000F04FFEF7CBBF3146584603F0D4FC31467C
:10B7C00008F1040003F0CFFCE07B012830D017B073
:10B7D0003146BDE8F04F1848001D03F0C4BC17B057
:10B7E0003146BDE8F04F03F073BC0022314601F052
:10B7F0006EFE032C01D3012200E000220E483146E8
:10B800000C3001F064FE022C01D3012200E0002282
:10B8100009483146083006E0217A002908D1617ACA
:10B82000C1F3C002314617B0BDE8F04F01F04FBE82
:10B8300017B0BDE8F08F0000303A002010B5044684
:10B840000748007800280AD0204602F093FC2046E2
:10B8500009F014FF2046BDE8104002F013B810BDF7
:10B86000703000202DE9F04391B00C4605000DD05A
:10B8700064B1A07A0A2805D8207C0A2802D8207E44
:10B880000A2805D9072011B0BDE8F0830E20FAE799
:10B890002068286060686860A07AA874207C85F8B9
:10B8A0007800207E85F8DE0001268DF8226041F6C2
:10B8B0001200ADF8200005F1080208A93046A8DF03
:10B8C0000028E0D1002709E0A06B01AA30F817108A
:10B8D0002889A9DF0028D6D17F1CFFB294F8360052
:10B8E000B842F1D8207A4FF0000808B9607A38B32E
:10B8F00094F83C9094F83D708DF8306020216846B3
:10B90000FDF7E5FD42F64E20ADF800000CA80290D0
:10B910009DF80D00ADF8046040F006008DF80D00B4
:10B920008DF81190ADF806608DF812708DF80F60EB
:10B93000288905F10A02694600F078FD0028A2D1A5
:10B940002146284602F0E8FD00289CD1207C18B34F
:10B95000606908B300271CE06069CDF8108000EB37
:10B96000C7039DF8100007EB870140F00E008DF82B
:10B97000100005EB4100191D7A30CDE9001033F8B5
:10B98000022B04A9284608F0E7FE002899D17F1C65
:10B99000FFB2207CB842DFD8207E18B3E06908B33C
:10B9A00000271CE0E069CDF80C8000EBC7039DF890
:10B9B0000C0007EB870140F00A008DF80C0005EB46
:10B9C0004100191DE030CDE9001033F8022B03A926
:10B9D000284608F0C1FE0028B1D17F1CFFB2207EAE
:10B9E000B842DFD82146284608F003FF0028A6D138
:10B9F000207A70B305F5A770009004F14203082285
:10BA000042F62221284600F055F9002897D120213E
:10BA10006846FDF75CFD42F63220ADF800009DF867
:10BA20000D00ADF8046040F00E008DF80D0094F8A4
:10BA300045008DF8110094F846008DF812008DF83D
:10BA40000F60288905F5AB72694600F0EFFC00280D
:10BA50009CD1607A60B105F5AF70009004F13F03AE
:10BA6000082242F63321284600F024F900288DD11F
:10BA70002146284602F09BFA002887D194F83E70B0
:10BA80008DF80880202109A8FDF721FD42F64C2001
:10BA9000ADF824009DF83100ADF8286040F00400B6
:10BAA0008DF8310002A88DF83670ADF82A600B9041
:10BAB000288905F5B77209A900F0B8FC00288BD1D8
:10BAC000E168C5F87C116169C5F88011E169C5F8C4
:10BAD0008411D8E60A46014610460A88102A05D085
:10BAE000502A05D0512A05D106F086BB06F0B4B91C
:10BAF00006F02CBC7047F0B585B016460F46040022
:10BB00001D4614D004AA19466069FFF7DBF8002827
:10BB10000BD1A5F57F40FF380BD0049848B10078D1
:10BB200048B13088F42808D9072005B0F0BD0E20B0
:10BB3000FBE70520F9E70820F7E7002000900190D7
:10BB400002900390A088ADF8000001208DF802005B
:10BB5000CDE9026769462846AEDFE6E770B5334DAA
:10BB600004008EB02DCD08AE86E82D005BD0E9B381
:10BB70000868A061214608A862DF002851D120781A
:10BB800001258DF83200ADF83050A21C0CA92846D2
:10BB9000A8DF002845D120216846FDF798FC022047
:10BBA000ADF8000020788DF802008DF80C509DF85B
:10BBB0000D00F426ADF8046040F00C008DF8115033
:10BBC000ADF806508DF80D008DF81250608804F124
:10BBD0000C02694600F02AFC002822D12021684688
:10BBE000FDF775FC0320ADF8000000E01BE02078B5
:10BBF0008DF802008DF80C509DF80D008DF8115055
:10BC0000ADF8046040F010008DF81250ADF8065009
:10BC10008DF80D008DF813506088221D694600F0E4
:10BC200005FC0EB070BD0E20FBE70000F8780200A6
:10BC300070B588B00446002924D0002C22D00846D4
:10BC40002188102920D0502924D057291AD10546FF
:10BC5000A188406906AAFFF735F8002812D1069E90
:10BC6000307800280ED018216846FDF730FC0120FE
:10BC70008DF800000195A088ADF808000396A96929
:10BC80006846884708B070BD08B02146BDE87040DE
:10BC900006F0ACB808B02146BDE8704006F013BB12
:10BCA000007800F0010070470A780270497841700E
:10BCB000022070472DE9F04188B00F4605461C462A
:10BCC000164620216846DDF83880FDF700FC9DF817
:10BCD0000D00ADF8007040F00201ADF804608DF881
:10BCE0000D10607810B141F0080101E021F0080169
:10BCF00041F010008DF80D0020788DF8110060786B
:10BD00008DF81200A0788DF8130001208DF80F0037
:10BD100028894246694600F089FB08B0BDE8F081F9
:10BD20000149085C70470000EB7302000649095C9A
:10BD30004FF0A040D0F81005C84010F0010000D02E
:10BD4000012080F001007047EB7302002DE9FC41F7
:10BD50000646C0074FF000050ED0104F0024012208
:10BD6000385D009500231146019504F003F9641C29
:10BD7000042CF4D300F046F8B0070DD5074E00248C
:10BD8000361D0022305D032300951146019504F015
:10BD9000F1F8641C042CF4D3BDE8FC81E7730200C5
:10BDA00007490B5C4FF0A041D1F8042501209840D1
:10BDB00020EA0203C1F808351040C1F80C057047AD
:10BDC000E77302000249085C012104F06BB900002E
:10BDD000E77302000249085C002104F063B9000027
:10BDE000E77302000649095C4FF0A040D0F8040553
:10BDF000C84010F0010000D0012080F00100704721
:10BE0000E773020010B500242046FFF7DBFF641C37
:10BE1000042CF9D310BD10B500242046FFF7DAFF3B
:10BE2000641C042CF9D310BD10B50246064B4FF02C
:10BE3000FF3000215C5C944201D1084610BD491CD2
:10BE40000429F7D310BD0000EB73020070B50C4E4F
:10BE50000C004FF0000530600BD0012000F06AF8B4
:10BE600008B1022004E0002000F064F800B10B20CB
:10BE70002070706810B9FEF77EFA0546284670BD3E
:10BE80003030002010B5002000F0DCF908B10628A1
:10BE900006D1012000F0D6F908B1062800D1002013
:10BEA00010BD00002DE9F0470D468146FFF7BCFFAD
:10BEB0000446042836D2DFF874801B481C4EA8F1D3
:10BEC0000C0725B3012D0ED0022D2BD104EB44001D
:10BED00030444578002D25D0B968002922D0284665
:10BEE000BDE8F047084704EB4401755C0E447178E7
:10BEF00049B10E4A4FF48041093A8068FEF79AFC36
:10BF000008B987F80390B17808F80410E2E7806870
:10BF1000FEF7A8FC04EB4401314418F804008D78C6
:10BF2000A842D7D0BDE8F087F07302002C30002083
:10BF3000A8390020042801D2FFF7F8BE002070477E
:10BF40000146104810B5C088042907D007290ED033
:10BF50000A2915D1BDE8104009F07CBB132176DF1A
:10BF60000CE000280CD0BDE81040FEF7EFBBA0F5B8
:10BF70007F41FF3904D10448FFF76DF80828F0D15C
:10BF800010BD0000782D00208435002070B50023FE
:10BF9000042810D20D4D00EB4004012A02D10129E2
:10BFA0000CD00022094E00EB4000304461B1012961
:10BFB00006D0022906D00723184670BD0E30C2B243
:10BFC0002A55F9E74270F7E78270F5E7A8390020B3
:10BFD000044A014600201279D20702D0084600F038
:10BFE0004DB870472030002070B506461E4800242A
:10BFF000C0E90161B00720D500250122114628467D
:10C00000FFF7C4FF6D1C0446042D02D2002CF4D0AF
:10C0100013E094B940F2333204211448FEF794FA45
:10C0200004000AD1FEF77EFA040006D10F48104A38
:10C030000021001FFEF7C4FB0446F00712D00120C8
:10C04000FFF784FE74B909480A4A00210C38FEF74C
:10C05000B7FB040006D10548074A01210838FEF75E
:10C06000AFFB0446204670BD20300020FC73020068
:10C0700049C301009DE7010013A501002DE9F05F10
:10C080006E4C054600266078B34618B184F801B0BE
:10C0900002F06CFB6A4F4FF47A694FF4C87A4FF0A4
:10C0A0000108182D69D2DFE805F00C131338475446
:10C0B000696E727B727BC58484848484B3B6B9BC98
:10C0C000C5C502F053FB3868FEF7CCFB06465CE0C2
:10C0D0000020FFF787FE00284FF0000008D0FFF790
:10C0E00071FE022D02D14FF4E16008E0484606E0FF
:10C0F000FFF770FE022D01D1C82000E05046410C30
:10C10000C0034FF47A72801841F10001257052008B
:10C110000023FDF77FF901462AE00020FFF762FEC9
:10C1200000284FF0000004D0FFF74CFE4FF4487099
:10C13000E5E7FFF74FFEDFE70020FFF753FE00289B
:10C140004FF0000002D0FFF73DFECFE7FFF742FEC1
:10C15000D4E70020FFF746FE00284FF0000002D091
:10C16000FFF730FE01E0FFF735FE257040F6CD41C8
:10C1700000223868FEF75EFB064646E00020FFF727
:10C180000FFE257008E0002051E025703DE084F8A6
:10C1900001800120FFF704FE002240F26661E8E71B
:10C1A00084F801800120FFF7FBFD00224FF40051CD
:10C1B000DFE77868FEF756FB0646D5F1110000D0A0
:10C1C0002EB10220FFF7FEFD84F802B01DE0012829
:10C1D00016D980B2C8214843C117C90341EA50416A
:10C1E000C0034FF47A72801841F10001520000231D
:10C1F000FDF710F9014600227868FEF71BFB0646A2
:10C200000220FFF7E7FD84F802803046BDE8F09F8A
:10C2100002F0ACFAB9E702F0A9FAB4E702F0A6FA24
:10C2200004E002F0A3FA0020FFF7D4FD0120FFF79D
:10C23000D1FDAAE7FFF7EFFDA7E7000020300020BF
:10C24000F073020001210AF06ABC00002DE9F843F6
:10C250000546861C00208DF8000090460F464FF0E2
:10C2600001096846FEF79AFB1B4C20683860D4E948
:10C270000001401AA16804F21C47081A0EE00121CF
:10C28000384602F083FF02F019FC0146384602F0FE
:10C290007DFFD4E90001401AA168081A401C8642BB
:10C2A000EDD8B8F1000F03D0052065F3891002E046
:10C2B000062065F39F50A2682168114004EB8101BC
:10C2C000C8602068304420609DF80000FEF78AFBBB
:10C2D0004846BDE8F8830000D842002070B50D46FE
:10C2E00004460A2902D10D21FFF7F8FFA068226851
:10C2F000411CA1601554D4E90101814204D32046B8
:10C30000BDE8704003F023BA70BD0000034803C8C5
:10C31000814201D10120704700207047D84200209F
:10C32000034630B5074800210478426806E000BFA4
:10C3300002EBC10005789D4203D0491CA142F7DB06
:10C34000002030BD3831002000780221FFF7AABD5F
:10C350001CB5044602F032F800236A46092106F0B3
:10C3600061FC052805D10348012241792046FFF7E9
:10C3700053F81CBD403000201CB50446002000903E
:10C3800042F6A620ADF8000001208DF80200084812
:10C3900001AA6946006801902046A0DF002805D167
:10C3A0000448012281792046FFF736F81CBD0000C1
:10C3B0001C7402004030002005494FF0FF3208286D
:10C3C00041F8202002D3084480F84820704700003C
:10C3D0009C3D0020F0B54FF0FF3512B10023082638
:10C3E00001E008230C260C4C05E000BF54F8237034
:10C3F0007F1C04D05B1CB342F8D32846F0BD26183E
:10C400005DB286F8305044F82310002AF5D1E118C7
:10C4100081F84800F1E700009C3D002002490844F3
:10C4200090F93000704700009C3D00202DE9F0435A
:10C430008146887891B090460C4600B901208DF86D
:10C440003E002088ADF83C0000250095607C6946E0
:10C4500009F0E8F86E46A07C711C09F0E3F8E07B77
:10C4600000289DF8020002D040F0080001E020F012
:10C4700008008DF80200217C11B140F0100001E0AD
:10C4800020F010008DF80200217B11B140F0010076
:10C4900001E020F001008DF80200217D09B10221A8
:10C4A00000E0012161F342008DF802001C2102A886
:10C4B000FDF70DF8607BC10601D4800617D50E95F7
:10C4C0000EAFE07C791C09F0ADF89DF838000797B5
:10C4D00020F00F00401C20F0F00010308DF83800E4
:10C4E0009DF83A0020F00600801C8DF83A00607B31
:10C4F0008DF80800A07B8DF80900142109A8FCF72D
:10C50000E6FF0FA8CDE90906A088ADF83000A068C5
:10C5100020B1E088ADF82C00A0680D90A06998B318
:10C5200001950088ADF81000A06901AD01A940880F
:10C53000ADF81200A069406806950390A069007BE1
:10C5400009F070F8A069691C407B09F06BF8A069DC
:10C55000807A00289DF8060002D040F0080001E033
:10C5600020F008008DF80600A169C97A11B140F0E9
:10C57000100001E020F010008DF80600A169097A92
:10C5800019B140F0010002E00DE020F001008DF84B
:10C590000600A169897B09B1022100E0012161F354
:10C5A00042008DF80600E06900B10590434609AAF3
:10C5B00002A94846AADF11B0BDE8F08370B5044671
:10C5C0004FF6FF750A462846AC4209D14FF48074F5
:10C5D0002146104602F097FD80B2A0420BD070BDFC
:10C5E000FF2CFCD82146104602F07DFD90F0010F93
:10C5F00001D0204670BD284670BD000070B5084CC3
:10C60000050009D010342168002907D0086820608F
:10C61000496828468847F6E70834F4E770BD00000B
:10C62000883D0020054A012120B1012805D19170E3
:10C63000FFF7E4BF51700020FAE77047883D002003
:10C6400010B5D0E90234D1E90220D11AA04101D3BA
:10C65000012010BD002010BD73B58CB0064600202F
:10C6600000900D9880B100246D4621460DA802F07F
:10C670006FFD30B1009805EB400084800098401CAD
:10C680000090641C142CF0D32C2269463046FCF731
:10C6900005FF0EB070BD2DE9F04117880646B81DA4
:10C6A00014460D46984202D90C20BDE8F08131882D
:10C6B000072206290AD34FF4486C4FF6FF736145F1
:10C6C00001D9994202D17088062801D21046ECE7C0
:10C6D000604501D99842F9D1994203D0984201D0DE
:10C6E0008142F3D80520E85520881221401C80B2F1
:10C6F000208029542088401C80B220804119308835
:10C7000009F0E1FF2188084480B220804119708837
:10C7100009F0D9FF2188084420800020C5E7FEF7F2
:10C7200015B8000038B54A7A0F4B62B100220A7280
:10C730005969002906D001228DF80020ADF80200C9
:10C740006846884738BD0A7A62B19B684C680246E1
:10C7500019462046FEF76EF80028F3D0BDE83840B1
:10C7600008F060BD5B68F1E70C3A0020F0B585B0D9
:10C7700016460F4604461D4614220B496846FCF730
:10C780008DFE0A488DF80870ADF80240ADF80A60D9
:10C790008DF80C50017800222046FEF73DFE6846D9
:10C7A00000F04EFC05B0F0BD60750200E0300020E6
:10C7B000FDF768BC02681368526831B19A4202D32F
:10C7C0008068801A07E0981A70479A4201D3D01AFD
:10C7D00070478068C01A401C7047000070B504465E
:10C7E0000948012102F0EDFCBFF35F8F002500280E
:10C7F00008D1204602F0DCF8002803D1BFF35F8F98
:10C800000148056070BD00004C3000202DE9FF415B
:10C810000C4620B14FF4064004B0BDE8F081207909
:10C82000002748F2096538B141F61D5601281BD092
:10C83000022826D0681DEFE7022020710297039797
:10C84000E0680190694601A807F09EFE50B1029889
:10C850008188E18000882081BDF80010029807F0EF
:10C8600011FFD9E72846D7E70A4B6A460021A01DE9
:10C8700007F042FE38B1074918398F61CF61A842ED
:10C88000CAD13046C8E703488188019807F0FAFE0C
:10C89000F5E7000098310020F0B587B00C46074658
:10C8A0001646142101A8FCF712FEA07800B9012059
:10C8B0008DF81A002088ADF8180006A80190A0791C
:10C8C000694608F0AFFE6D46E079691C08F0AAFEE3
:10C8D000E07800289DF8020002D040F0080001E056
:10C8E00020F008008DF80200217911B140F010000D
:10C8F00001E020F010008DF80200617911B140F0E4
:10C90000010001E020F001008DF80200217A09B158
:10C91000022100E0012161F342008DF8020002953E
:10C920006089ADF80C00A089ADF80E00E089ADF883
:10C93000100020690590324601A93846ABDF07B0E8
:10C94000F0BD000070B500240F4D10E0686800EBEA
:10C95000C406307804F0CEFB7178012901D00121A2
:10C9600000E000214140307800F0BEFA641C2878D5
:10C970008442EBDBD5E90401084303D0BDE87040F5
:10C9800009F086BA70BD000038310020024813213A
:10C99000C08876DF70470000782D002010B5002198
:10C9A000024802F00EFC80F3100010BDF446002097
:10C9B0004FF480328A400168C1F848230068C0F80B
:10C9C000082370474FF4A07202EB810189B200F096
:10C9D000FBBA2DE9F04105460E464FF4A07000EB7E
:10C9E000860081B228684FF48034B440984622F023
:10C9F0007F47C0F808432868C0F84843286803F018
:10CA0000C7FF286800EB8600C0F840752868C0F8AA
:10CA10004443B8F1000F02D02868C0F80443BDE8D1
:10CA2000F0810068D0F804057047000070B54379C4
:10CA3000224C44F823204279241D04EBC202204BEF
:10CA40001579204A9A1AD3082DB10824022000EB48
:10CA500003401DA12EE002680D88C2F8085590F928
:10CA600004208978002A4FEA411106DA02F00F0209
:10CA700002F1E02282F8141D03E002F1E02282F8C4
:10CA8000001490F90410012201F01F0502FA05F5C7
:10CA90004909890001F1E021C1F80051417904EB15
:10CAA000C1010A71417944F831000320002400EBF0
:10CAB00003400EA103F00AFD204670BD7431002032
:10CAC00010900200688F020052544320696E737404
:10CAD000616E636520616C726561647920696E695D
:10CAE0007469616C697A65642E0000005254433A9F
:10CAF00020696E697469616C697A65642E00000052
:10CB000090F90400012100F01F02914040098000CB
:10CB100000F1E020C0F8001270470A46022100F040
:10CB2000D9B94FF4827100F04FBA00680121016059
:10CB3000704700680121416070472DE9F05F0746AA
:10CB40000C464FF4A07000EB84001FFA80FA38689E
:10CB50004FF48036A6409B4622F07F45C0F84863DC
:10CB60003868C0F808633868D0F8048500EB8402A0
:10CB7000D2F84095C2F840855146386803F008FF66
:10CB8000A9EB080020F07F40012806D1102004F016
:10CB9000EFF95146386803F0FBFE3868D0F8048599
:10CBA000C0F84463A5EB080121F07F4138680129F2
:10CBB00000EB840010D0C0F840553868D0F8041558
:10CBC0006FF07F4C6A1A521E22F07F42ACEB0B03CF
:10CBD000934217D362B118E06D1CC0F84055102085
:10CBE00004F0C6F93868D0F8040540450AD10CE0D5
:10CBF00000EB84006D1CC0F840553868D0F804057F
:10CC0000884202D00D20BDE8F09F0122314638460F
:10CC100000F060F90020F6E713460A460021FFF70E
:10CC2000A5BD00002DE9F843104D0F4680461E4675
:10CC300091466946286802F01FFA040014D01C21AE
:10CC4000FCF745FC01202071C4F81490380BC4F89F
:10CC50000080C4E902606946286802F02EFA07F0F5
:10CC600095FB0020BDE8F8830420FBE780760200F6
:10CC70004FF08050D0F830110A2904D1D0F8340197
:10CC8000B8B1012814D00C480078062811D10A4800
:10CC9000001D007800070CD1074808300078C0F369
:10CCA0000310032805D0042803D0052801D0002054
:10CCB0007047012070470000E00F00F04FF08050F7
:10CCC000D0F830110A2904D1D0F83401B8B10128C4
:10CCD00014D00C480078062811D10A48001D0078AD
:10CCE00000070CD1074808300078C0F30310032870
:10CCF00005D0042803D0052801D00020704701206A
:10CD000070470000E00F00F04FF08050D0F8301175
:10CD10000A2904D1D0F83401B8B1012814D00C4844
:10CD20000078062811D10A48001D007800070CD1B0
:10CD3000074808300078C0F30310032805D0042802
:10CD400003D0052801D00020704701207047000063
:10CD5000E00F00F010B503780022072B06D2DFE8C1
:10CD600003F005040610202930000A7010BD0123CD
:10CD70000B7003898B818388CB81C06888600A74BB
:10CD800010BD02220A7002898A818288CA81C26823
:10CD90008A60807D062802D00020087410BD012022
:10CDA000FBE703220A70C2888A810289CA81C068AF
:10CDB000886010BD04230B70C0888881CA818A6096
:10CDC00010BD0520087010BD70B5064D0646002444
:10CDD00055F8241009B130468847641C042CF7D359
:10CDE00070BD0000903F002030B50446006887B059
:10CDF0000D46806800281FD018216846FCF767FBA5
:10CE00000195A0680590207910B1012810D107E0A4
:10CE100001208DF8000020690290E068039005E091
:10CE200002208DF80000E068000302906069049021
:10CE3000206881686846884707B030BDF0B585B086
:10CE400017460C0005463AD0112C38D0082C36D0A5
:10CE50001C481D49401AC6080D2C11D0204604F06C
:10CE600019F80246012000EB06402B46174903F053
:10CE700038FB2A460721684602F0B2F802941BE00C
:10CE8000022000EB06402A46114903F023FB2A4604
:10CE90000321684602F0A4F827B13878C00701D012
:10CEA000012000E002208DF8080000208DF80C0021
:10CEB00041F20110ADF80A00684600F0CFF805B065
:10CEC000F0BD0000B08F0200688F0200E086020013
:10CED000D08502000368C3F84413002A02D000681A
:10CEE000C0F80413704700002DE9F84F0E4634498E
:10CEF000804601EB5001C007097801D00F0901E01D
:10CF000001F00F074FF00009424601204946FCF7A7
:10CF1000B2FADFF8B0A004460D46052F4ED2DFE886
:10CF200007F003161B282C00002E47D00121404695
:10CF300008F042FE8DF800906846FDF72FFD504640
:10CF4000D0E904120C431543CAE9044532E00EB19E
:10CF5000022114E0002112E04EB10321404608F006
:10CF60002BFE4046BDE8F84F012109F061BD0121CB
:10CF700005E0002E22D1042101E02EB1032140461C
:10CF8000BDE8F84F08F018BE0021404608F014FE36
:10CF90000021404609F04CFD8DF800906846FDF7F1
:10CFA000FDFC5046E243D0E904341A4024EA05016E
:10CFB000CAE904219DF80000FDF714FDBDE8F88FD3
:10CFC000F03E00203831002010B5006842581AB1F8
:10CFD00003F0DEFC012010BD002010BD10B504469A
:10CFE000408801F0EBF9A080024801682046BDE8C6
:10CFF000104008474830002010B50446808801F0F2
:10D0000027F96080024801682046BDE810400847C3
:10D01000583000202DE9F04107460024064E074D08
:10D0200005E000BF56F8241038468847641CE878AD
:10D030008442F7DBBDE8F0813C3D002070300020E9
:10D0400010B50446408801F0B9F9A0800248016893
:10D050002046BDE8104008472075020001490968D4
:10D06000084700009C75020070B586B00446142184
:10D070006846FCF72CFAA0890125A0F54040ADF8E0
:10D08000040020782F4E062833D2DFE800F0320368
:10D0900003032C4AA08900F0FEF930B9E08943F679
:10D0A000FE71A0F54040884223D8A07B8DF808008F
:10D0B000207803280FD000208DF80900A068039085
:10D0C000606850B109208DF80000606804906846DF
:10D0D00005F0FAFC0DE00120EEE708208DF80000D5
:10D0E0008DF81050F3E7A08900F0D5F908B1E08978
:10D0F00030B17078002801D005F032FE06B070BD66
:10D10000606830B10B208DF8000060680290757087
:10D11000DDE70A208DF80000BDF8040005F0C4FE2C
:10D12000F5E7606848B114208DF80000606802904F
:10D130004FF6FF70ADF80400C9E713208DF800002A
:10D14000F6E700005C30002038B504460F48007850
:10D15000B0B1A4F57F40FF380FD0684607F014F84F
:10D1600088B10521017001210171C480684607F072
:10D1700019F807F0FDF8002038BD48F2036038BD0B
:10D1800048F2016038BD48F2076038BDA031002088
:10D190000D4808B5007888B1684606F0F5FF80B103
:10D1A00006210170684606F0FDFF0848017809B1C4
:10D1B0000121017307F0DCF8002008BD48F201608E
:10D1C00008BD48F2076008BDA0310020544000208F
:10D1D000F0B587B014216846FCF779F9304C207817
:10D1E00018B16846FFF7F0FD57E0201D01F0CBFFB6
:10D1F00098BB40F6F8700168481C02D14FF010202F
:10D2000041694FF0805000694A1C02D100EB400098
:10D210000101244800220161A1F54051C160224969
:10D2200002F02AFC002823D121481C238C221F490C
:10D23000006801F00EFF05F0D3F9050016D0022DAD
:10D2400014D000270126062D14D005A806F09CFF57
:10D2500098B106700C2D1BD200E01EE0DFE805F04F
:10D2600018101810181718171812141248F20A601C
:10D2700007B0F0BD26706760B3E748F20760F7E7D4
:10D28000077105E0032100E00221017100E0067151
:10D2900005A806F087FF07F06BF80020E8E700001C
:10D2A000A03100205432002090760200A03F0020E0
:10D2B000F875020038B5040014D0694607F064F927
:10D2C000B0B1BDF8000000EB80010B4800EB81001D
:10D2D000C16851B1A17A41B1C168491EC160002045
:10D2E000A07238BD48F2046038BD48F2056038BD10
:10D2F00048F2096038BD00002C4000201FB501A98C
:10D30000684607F0F9F804B010BD07B513460A46A1
:10D310006946002007F0F0F80EBD07B513460A462F
:10D320000021684607F0E8F80EBD20B119B1006889
:10D3300008600020704748F204607047F8B50D4659
:10D34000040018D0BDB1694607F01EF9B0B1BDF8B0
:10D3500000000C4900EB800001EB800001210C3043
:10D36000666801F013FF2E6060680C306860012071
:10D37000A0720020F8BD48F20460F8BD48F20960D0
:10D38000F8BD00002C40002018B10323002209F052
:10D390000BBD48F2046070470223002209F004BD6F
:10D3A000094910B50A69042A0AD0084A096942F8ED
:10D3B000210005480121103001F0E8FE002010BDD9
:10D3C00048F20B6010BD000080310020903F00202B
:10D3D0002DE9F84F044624480078D8B1F4B1122161
:10D3E0002046FCF774F80320DFF8809020800025A9
:10D3F00004F1100804F10E0A05EB850109EB810622
:10D4000030897189084487B2706805F073F8032881
:10D4100007D009E048F20160BDE8F88F48F20460E7
:10D42000FAE72088401E20806088F1680844608008
:10D430002089718908442081608938446081C7F55A
:10D440008060A18980B2814200D2A0815346A21D92
:10D45000211D2846CDF8008007F032F96D1CADB2D1
:10D46000022DC9D30020D7E7A03100202C40002096
:10D47000826883881A4003689A5C0A708168491C34
:10D4800081607047C26883881A4003689954C168F4
:10D49000491CC160704743F6FE71A0F540408842C8
:10D4A00001D8012070470020704710B5044600786D
:10D4B000182802D1FDF78CFF207010BD10B504466E
:10D4C0000078182802D1FDF783FF207010BD0AB143
:10D4D00001F049BE01F0FCBD70B50D460446B0F840
:10D4E000D810D0F8D4000122FDF7D1FC00B10570AE
:10D4F00004F13C0204F1D40104F1540072DF70BD68
:10D5000070B5134600220546112900D10122074CAF
:10D5100033B12179FDF780FF00226178284600E0D1
:10D520006178BDE87040FDF777BF0000E83000206B
:10D53000F7B517460E0011D00098002560B1002401
:10D540002146684601F004FE18B1A0B23946B04742
:10D550006D1C641C142CF3D32846FEBD0020FEBDB8
:10D56000406806F031BE000010B5054900220548AC
:10D5700002F082FABDE81040024806F09DBD0000AE
:10D580009076020040320020014643680D480E4A62
:10D59000801AC008032202EB004013B10B4902F0CD
:10D5A00095BF0A78012A07D0022A09D18B680A6937
:10D5B00007A100BF02F095BF8B680A6912A1F9E7C5
:10D5C0007047000030900200688F020090790200DE
:10D5D0002D2D3E204576656E7420726563656976F3
:10D5E00065643A206572617365642025642070610A
:10D5F00067652066726F6D20616464726573732065
:10D60000307825782E0000002D2D3E204576656E61
:10D61000742072656365697665643A2077726F7409
:10D6200065202564206279746573206174206164CB
:10D630006472657373203078257800000C484A883E
:10D64000C3889A4213D10A88A2F52063773B0ED192
:10D650008988C91E8AB20281064807491346401AC2
:10D66000C008032101EB004004A102F03ABF70475B
:10D67000782D002030900200688F020044617461B0
:10D68000206C656E2069732073657420746F203080
:10D69000782558282564290070B510B14FF406404C
:10D6A00070BD1C4C0025207B08B1257301E000F003
:10D6B000A5F8207808282AD2DFE800F02904080C11
:10D6C00010291422BDE8704000F026B8BDE8704073
:10D6D00000F082B8BDE8704000F064B8BDE870406A
:10D6E00000F040B80620207060880A4900EB8000F6
:10D6F000283901EB80004068BDE8704004F050BF5D
:10D70000072020706560BDE8704004F057BF48F204
:10D710000E6070BD544000201149F0B48A1C0020F6
:10D720000346A1F128050C18A67A4EB1A37200EBAE
:10D73000800405EB8404E66816B9247C012C0AD029
:10D74000401C80B20228EED30B704B804B60F0BCC3
:10D7500041F61D5070471080F0BC00F03DB800004D
:10D76000544000200C48418801EB8102A0F12801BF
:10D7700001EB8201CA6852B10521017007480221FC
:10D780008180016800230122054802F0D9B80422F3
:10D7900002704968F6E7000054400020A8310020DC
:10D7A0005432002038B50A49084803240B684268FF
:10D7B000898803EB810153880470DB1C00201B0463
:10D7C00000909B0B034802F0E7FA38BD544000205C
:10D7D000A831002054320020074910B54888091D9F
:10D7E00006F022FF18B1BDE81040FFF7DBBFBDE82F
:10D7F0001040FFF7B7BF000054400020F0B51F48AD
:10D800001F490125067802248B88A0F12802082EE2
:10D8100019D2DFE806F00418181B222F2F170189F0
:10D82000491C01810021418080F80C1001EB81032B
:10D8300012F8233043B100234418491C89B2A37263
:10D840000229F3D30570F0BD0123F5E74268528841
:10D85000D21C1A448A800470F0BD46880D6806EB1D
:10D86000860602EB860256680E60556013818C8036
:10D87000062100E007210170F0BD000054400020A7
:10D88000A83100202DE9F043064680883288DFF871
:10D890005C8185B00746502A37D010DC5449554B7F
:10D8A00006F10A05A1EB03014FEAD1014FF0020393
:10D8B00003EB0144352A3AD0362A07D168E0522AD0
:10D8C00002D0542AF9D102E001F016F882E01422C5
:10D8D00049496846FBF7E2FDADF80270384600F0B2
:10D8E0006DFDADF8040000F017FA0022444698F8E8
:10D8F00004103846FDF790FD0022E1783846FDF728
:10D900008BFD6846FFF76AFB64E0307B012861D13C
:10D91000B07A01285ED13089A0F52451023959D15D
:10D920000121384601F03CF809F012F852E098F86D
:10D930000610FDF759FD00284CD0002298F806107B
:10D940003846FDF769FDF288B2F5857F17D012B130
:10D9500020462AA10BE02A88012A03D0204636A1BE
:10D9600002F0B8FD6A88012A04D0204641A102F0E5
:10D97000B1FD04E0A98800223846A1DF08B10021EA
:10D9800025E0012298F807103846FDF745FD21E013
:10D990004FF0000998F80710FDF726FDD0B10022DE
:10D9A00098F807103846FDF737FDF28812B1204687
:10D9B00012A104E0AA88012A04D020462DA102F079
:10D9C00089FD03E0A87900B1012081464946384627
:10D9D00008F050F90022364998F80200FDF7A8FC3B
:10D9E00005B0BDE8F04307F0CFBC00004030002098
:10D9F000688F0200688F020074740200556E6578AB
:10DA00007065637465642047415454207374617475
:10DA10007573207768696C652067657474696E67D3
:10DA20002043415220636861722076616C75653ACB
:10DA300020307825780000004D756C7469706C6535
:10DA40002028256429204341522063686172616364
:10DA500074657269737469637320666F756E642C84
:10DA6000207573696E6720746865206669727374C7
:10DA70002E000000556E6578706563746564204300
:10DA8000415220636861726163746572697374697D
:10DA9000632076616C7565206C656E6774682028FC
:10DAA0002564292C2073746F726520302E000000CD
:10DAB00029AB010070B504460078002814D16088B5
:10DAC00000F01AFF6588284600F0E8F928B10748F9
:10DAD0000122C1782846FDF79FFC6088FEF738FCDC
:10DAE000BDE8704008F034BF70BD00004030002039
:10DAF00070B5204C00252570FDF76AFC6070FDF7BD
:10DB000067FCA070FDF764FCE070FDF761FC20711C
:10DB1000FDF75EFC6071FDF75BFCA071FDF758FC42
:10DB2000E07162780121182A18D0A278182A15D03D
:10DB3000E278182A12D02279182A0FD06279182A8E
:10DB40000CD0A279182A09D0182807D004F10C00AB
:10DB50000560BFF35F8F2170002070BD0648074A43
:10DB6000801AC00801EB0040054902F0AFFC032019
:10DB700070BD000040300020688F0200688F0200F6
:10DB8000D47902007CB504460078082837D1607A41
:10DB900058BB207A1C4E4FF6FF75012811D007287C
:10DBA00002D008282BD121E0A08800F051FB0446C8
:10DBB000A84224D0012100F0F3FE2046FEF7C8FB66
:10DBC0001DE0A0886A46012104F0A0FE68B9019812
:10DBD000007850B1A08800F03BFBA8420FD0012292
:10DBE000F178FDF719FC07F0CFFB08E0F068012899
:10DBF00005D1BFF35F8F044900200C310860BDE8F8
:10DC00007C4008F0A5BE00004030002070B58CB00C
:10DC1000AB208DF8000000208DF8010007218DF861
:10DC20000210FF218DF80310B4218DF8041080211B
:10DC30008DF805108DF8060014486E4600788DF8B2
:10DC4000070000209DF80810325C401C1144C0B24F
:10DC50008DF808100828F5D388208DF809000C48A5
:10DC60000C490024401AC008032101EB0045305D37
:10DC7000FCF76AFE335D2846224607A102F031FC1C
:10DC8000641CE4B20A2CF2D30CB070BDCC2F00207F
:10DC900030900200688F02004D41432025643A25F0
:10DCA00034780D0A0000000010B50B48FEF7B9FEED
:10DCB000094A083AD2E90434C018D2E9063244F1DC
:10DCC0000001C31A71EB020204D24FF08072801877
:10DCD00041F1000110BD00005831002010B5C0B264
:10DCE000FEF71EFB0446007803F004FA0146607854
:10DCF000012801D0012000E0002090EA010F08D0A7
:10DD00000449D1E90401084303D1BDE8104008F0FB
:10DD1000BFB810BD383100201CB5054AD2E9021247
:10DD2000CDE900120022694604F0B6FF1CBD0000D8
:10DD30008C74020003484FF6FF718180012101704D
:10DD400000207047503000202DE9FC41804600F053
:10DD500035FB002403250127A0F57F412646FF3926
:10DD600008D06A46082104F0D1FD18B90198841D35
:10DD70008688056832462B4621464046B1DF042896
:10DD800004D0082804D00B2808D002E0112000E0BD
:10DD90000020002F00D10B20BDE8FC810027A80740
:10DDA00001D50125E6E7344303D0002426460325A8
:10DDB000E0E7064806494246401AC008012101EB47
:10DDC0000040044902F086FBE5E70000708F020086
:10DDD000688F02009C7C02002DE9FC41804600F027
:10DDE000EDFAA0F57F410646FF390ED001252A46FF
:10DDF0006D1C0027ADB26B460821304604F0D0FD03
:10DE0000040006D0072C33D033E043F20200BDE813
:10DE1000FC81019903230A1D0B604046891DB2DF76
:10DE2000040004D00C2C09D0052C09D009E032469E
:10DE30000821104604F02CFE04461AE0012700E0F9
:10DE400000240821304604F019FE70B103F022F8D6
:10DE50000346094809493246401AC008012101EB2E
:10DE60000040074902F03DFB0324002FBFD100E032
:10DE70000C242046CBE70000708F0200688F020060
:10DE80001C7C020004488088A0F57F41FF3901D046
:10DE900007F084BA70470000503000200EB502A988
:10DEA000019100F08BFA6A46012104F02FFD08B1C0
:10DEB00000200EBD019800780EBD00002DE9F04154
:10DEC00007464FF6FF761048B3DF78B102F0E2FF65
:10DED00002460E480E49401AC008012101EB0040DD
:10DEE0000C4902F0F7FA0320BDE8F081064C43F23A
:10DEF0000305A41E324661883846AFDFA842F3D13D
:10DF00006088401C6080F5E752300020708F02006E
:10DF1000688F0200D07B020010B5054A0121054838
:10DF2000FCF74EFC002802D0FCF710FC002010BDCE
:10DF3000099E0100A870020010B501000A484FF0C8
:10DF4000000408D000224FF480410068FCF772FC06
:10DF5000040007D105E00068FCF784FC03490020B9
:10DF60004860204610BD0000A8700200CC2F0020A1
:10DF7000428800EB82020C328A4201D902207047AB
:10DF80008188A1F57F42FF3A06D0018821B18068DF
:10DF9000401C01D00020704701207047884204D205
:10DFA0000068401C01D0012070470020704770B508
:10DFB0000C468AB0064634F8300F8DF82000000A6F
:10DFC0008DF82100A0788DF82200E0788DF82300EC
:10DFD000042520216846FBF77AFA42F64A20ADF87C
:10DFE00000009DF80D00ADF8045040F002008DF8DF
:10DFF0000D0020798DF8110008A8ADF806500290A8
:10E00000308906F5B3726946FEF710FA0AB070BDA2
:10E01000F0B5344893B0002540F8325F08214560E0
:10E020008560C560056145612E48012632300224B5
:10E0300001808570C67084714471047108300327B3
:10E0400006808570C47044710471083048210480D2
:10E050008570C770047144716846FBF738FA22482E
:10E060000090224801901F488DF8086032300390DC
:10E07000083005908DF809508DF80A600830079037
:10E080008DF810604C20ADF824001948089040F23B
:10E090000110ADF830008DF832508DF833708DF8E6
:10E0A00018608DF844408DF83C400E488DF836508D
:10E0B0008DF82C408DF845408DF83D400E958DF83B
:10E0C00034408DF842408DF846408DF83E40694618
:10E0D0006830FDF7C7FB002801D0FCF737FB13B011
:10E0E000F0BD0000782D00204120020021560200E2
:10E0F000682F00203EB5027802230C46B3EB520F86
:10E1000017D1B0F80110ADF80010C1788DF80210E9
:10E110008188ADF8041080798DF8060002AA01A963
:10E120002046FCF7CDF9032202A96846FBF7E1F986
:10E1300008B100203EBD01203EBD000070B50D4677
:10E140000446142810D2FDF783F968B1084904EB9E
:10E15000840001EB4000D0F802102960C188A9803A
:10E16000007AA871002070BD43F2020070BD00006B
:10E17000A43A002070B5018890B0102961D1011D2A
:10E1800028226846FBF78AF99DF804004FF6FF76CF
:10E1900003213446B1EB500F2BD004F03BFD9DF82A
:10E1A00004006D4640080ED001280CD0022820D172
:10E1B00018E00C99281D1131FCF7B4F818B100BF14
:10E1C000BDF8284015E00BAA0AA9072004F0F6FCC8
:10E1D0000028EED10DE00C99281D491CFFF78AFF9D
:10E1E0000028EDD10BAA0AA9072004F0E7FC0028BB
:10E1F000F1D1BDF80000B44200EB8001124820F8D4
:10E20000114000EB41000199C0F80210BDF8081060
:10E21000C1809DF80A10017213D0BDF80000ADF85E
:10E220002A000020ADF82C40084E8DF828000AADD9
:10E23000044600BF56F8241028468847641C022C68
:10E24000F8D310B070BD0000A43A0020A074020002
:10E250002DE9F0414FF6FF760546B04213D00B4F43
:10E26000002400BF04EB840037F81000A84206D158
:10E270002046FDF7EDF810B12046BDE8F081641CA2
:10E28000A4B2142CEED33046F7E70000A43A0020E5
:10E290003EB50C46054604F0BDFC0BE0BDF80000A1
:10E2A000A04207D02846029900F00EF810B1BDF840
:10E2B00000003EBD01AA6946072004F07FFC00284B
:10E2C000ECD14FF6FF703EBD2DE9F0410C460546FE
:10E2D00000F1110701F111061022491C401CFBF747
:10E2E00008F948B9681C00F031FA28B1601C00F048
:10E2F0002DFA08B1012400E0002431463846FCF72D
:10E3000011F83B780222B2EB530F0CD00321B1EB92
:10E31000530F08D03378B2EB530F04D0B1EB530F47
:10E3200001D0012100E00021084201D18C4302D03C
:10E330000120BDE8F0810020FBE7018811B94218F7
:10E3400092780AB101207047491C0829F7D30020B0
:10E35000704710B50C460346FFF7EFFF00280AD0C0
:10E3600018882188884205D10822A11C981CFBF737
:10E37000C0F808B1002010BD012010BD142804D23F
:10E38000024A00EB800022F810107047A43A0020E7
:10E3900070B50546FFF75CFF0446284604F0BAFA5C
:10E3A000002808D1142C06D2034B04EB84024FF64C
:10E3B000FF7123F8121070BDA43A002010B5044676
:10E3C000142808D2FDF744F828B1044904EB84006E
:10E3D00031F8100010BD4FF6FF7010BDA43A0020B8
:10E3E0003EB5044604F016FC0EE001992046463185
:10E3F000FFF7AFFF28B9019920462A31FFF7A9FF9F
:10E4000010B1BDF808003EBD6A4602A9072004F01D
:10E41000D5FB0028E9D14FF6FF703EBD10B50A4983
:10E4200041600A4800F0AFFE58B902F093FC07497A
:10E430001C238C22087404488C39001F006800F0EB
:10E4400008FE002010BD000084760200004100207C
:10E450002DE9F0412D4F002520B17D604FF406409D
:10E46000BDE8F0810879012258B1294E01280CD06D
:10E47000264C4FF002080834022820D0032841D14E
:10E4800027E00A7104F09AF83AE0002000EB8001DE
:10E4900016F82110022908D0401C80B20228F5D3BA
:10E4A0003A707D6041F61D50DAE700EB800006F817
:10E4B000205006EB8000406804F072F820E00D71F7
:10E4C000A4F80480002301221248216801F038FAE0
:10E4D00016E00D71206804F063F80D4923682831B7
:10E4E000498801EB810206EB8201D1F804C0C4F82F
:10E4F00000C04B60A3880B81A4F8048006F822506A
:10E500000028ADD07D6048F20D60A9E7A031002061
:10E510002C40002054320020FEB50646887A0D4675
:10E5200070B3E86860B3002427E0E86800EBC40338
:10E53000002002909DF8080040F002008DF80800CD
:10E54000597911B140F0080001E020F0080040F0D6
:10E5500010008DF8080004EB840006EB4000191D44
:10E560001430CDE9001033F8022B02A9304606F032
:10E57000F3F8002805D1641CE4B2A87AA042D4D8EC
:10E580000020FEBD0146034802888A4200D00020D8
:10E5900070470000F83900202DE9FC5F0E0083462B
:10E5A000DDE90C47C6F1000098469246814600D44A
:10E5B0000846012503E000BF90FBFAF06D1C5045B2
:10E5C000FADAA84500D9454624B1002E01DB7807C8
:10E5D00000D5641EB80702D5B8F1000F0AD0F807BD
:10E5E00008D13CB1A54205D220215846641EFDF752
:10E5F00075FEF6E7002E02DA4E462D2102E078077E
:10E6000003D52B215846FDF769FE07F003000228C9
:10E610000BD1B8F1000F08D13CB1A54205D2302191
:10E620005846641EFDF75AFEF6E7CDE9004743461B
:10E6300052463146584608F05BF8BDE8FC9F0000A2
:10E6400070B50D46044600684FF4887102F04DFC29
:10E650004FF49071206802F048FC4FF492712068EA
:10E6600002F043FC4FF4A271206802F03EFC4FF42C
:10E67000AC71206802F039FC20681149C0F804131D
:10E680002068690740F30730090E002806DA00F019
:10E690000F0000F1E02080F8141D03E000F1E020FD
:10E6A00080F800142068012140F3073000F01F02B9
:10E6B00091404009800000F1E020C0F8001170BDD9
:10E6C00010034200024600201268530713D502F0DF
:10E6D0000300012802D002280CD105E0C2F3831008
:10E6E0000B68801C184404E00223086803EB925274
:10E6F00010440860012070470248007A002800D0CA
:10E700000120704700410020F0B58488A51894428C
:10E7100000D82246A41AC288D6189A4200D81346B6
:10E72000D21A4B880788BB420CD34088834209D851
:10E730008888A04206D3A84204D8C888904201D352
:10E74000B04201D90020F0BD0120F0BD0021425CA3
:10E750000AB101207047491C1029F8D300207047E6
:10E76000800701D000207047012070470A4810B58B
:10E77000807860B1002401E0022C06D02046FDF72D
:10E7800021FB641C042CF7D310BD0324F6E7BDE87D
:10E790001040FDF737BB000020300020034801790E
:10E7A000C90702D00078FDF769BC7047203000200F
:10E7B000F7210180172141800021017141717047CB
:10E7C0002DE9FE4F2E4F984692460D00814601D00E
:10E7D00000260DE0684600F0F9FB6A460021484635
:10E7E00003F0F0FF3878009E10B99DF8090098B149
:10E7F00052463146484607F0F9F8044601460022E1
:10E800004846FEF77DFE0D2C37D008DCA4B3082C5B
:10E8100033D00B2C09D130E00520BDE8FE8F112C40
:10E820001ED0A4F54050023827D0204602F032FB1B
:10E830000246144814494B46401AC008012101EB16
:10E840000040124901F04DFE5FF00305B8F1000FE2
:10E8500004D0324621464846FEF7F0FA2846DCE767
:10E860002A46F9784846FCF7D7FD5246B97848461B
:10E87000FCF7D2FD0025E9E7FFE72546E6E70000C3
:10E88000E8300020B08F0200688F02008886020006
:10E8900070B50E460C49154604460978FCF7A4FDF0
:10E8A00000280FD0204603F033FF00282A463146C7
:10E8B000204603D0BDE8704003F030BFBDE8704093
:10E8C000FEF7AAB970BD0000E030002070B5094D18
:10E8D0000646A978FCF788FD0446E9783046FCF73F
:10E8E00083FD014622463046BDE870400123FFF714
:10E8F00067BF0000E8300020F0B585B0054600276E
:10E9000014216846FAF7E3FDA5F57F40ADF8025003
:10E91000FF3825D02846FFF717FA040022D01B48FD
:10E920001B49401AC6080B2C22D0112C1ED0A4F56E
:10E93000405002380ED0204602F0ACFA02460120C8
:10E9400000EB06402B46134901F0CBFD214628463B
:10E9500006F0CAFC10483A4681782846FCF75CFD70
:10E9600005B0F0BD0E208DF800000BE00127F1E7A7
:10E970000F208DF80000022000EB06402A460749D0
:10E9800001F0A8FD6846FEF729FBE3E7688F020067
:10E99000688F0200A47A020040300020F87A02005A
:10E9A0000A4602494978FCF737BD00004030002094
:10E9B0002DE9F041002786B080463E46FFF70CFA6D
:10E9C000040022D0112C22D01B481C49401AC50833
:10E9D000862C1ED0A4F5405002380ED0204602F0FE
:10E9E00059FA0246012000EB0540434614A101F00C
:10E9F00078FD2146404606F077FC39464046FFF751
:10EA0000CFFF06B03046BDE8F0810126F5E70127CB
:10EA1000F3E714221A496846FAF740FD0220ADF8E0
:10EA2000028000EB0540424616A101F053FD684606
:10EA3000FEF7D4FAE1E70000688F0200688F020059
:10EA40006773636D5F6C6F63616C5F64625F63616A
:10EA50006368655F757064617465282920726574E8
:10EA600075726E656420257320666F7220636F6E09
:10EA70006E5F68616E646C653A202564000000007A
:10EA80004C740200466C6173682066756C6C2E20B5
:10EA9000436F756C64206E6F742073746F726520A1
:10EAA0006461746120666F7220636F6E6E5F68616F
:10EAB0006E646C653A202564000000002DE9FF417A
:10EAC0000026234800F05CFB2148001F074600F0A9
:10EAD00057FB204C60680090A56800E000986946EC
