:020000040001F9
:10900000104E0020C1930100EB930100ED9301008D
:10901000EF930100F1930100F393010000000000C1
:10902000000000000000000000000000F5930100B7
:10903000F793010000000000F9930100FB93010089
:10904000DD990100FD9301004D9E01003D9E010050
:10905000FD930100000000001D970100FD93010039
:10906000FD930100FD930100FD930100FD930100BC
:10907000FD930100359A0100FD930100FD9301006D
:109080005D9F01005D9A0100FD930100FD930100C9
:10909000FD930100FD930100CD9A0100FD930100B5
:1090A000FD930100FD93010000000000000000009E
:1090B000FD930100FD93010000000000000000008E
:1090C00000000000000000000000000000000000A0
:1090D0000000000000000000000000000000000090
:1090E0000000000000000000000000000000000080
:1090F0000000000000000000000000000000000070
:10910000000000000000000000000000000000005F
:10911000000000000000000000000000000000004F
:10912000000000000000000000000000000000003F
:10913000000000000000000000000000000000002F
:10914000000000000000000000000000000000001F
:10915000000000000000000000000000000000000F
:1091600000000000000000000000000000000000FF
:1091700000000000000000000000000000000000EF
:1091800000000000000000000000000000000000DF
:1091900000000000000000000000000000000000CF
:1091A00000000000000000000000000000000000BF
:1091B00000000000000000000000000000000000AF
:1091C000000000000000000000000000000000009F
:1091D000000000000000000000000000000000008F
:1091E000000000000000000000000000000000007F
:1091F000000000000000000000000000000000006F
:10920000DFF80CD000F09CF90048004715D90100A8
:10921000104E002030B450E8012F93B2C48923448B
:109220008489A34228BF1B1B0489A34202BFBFF34A
:109230002F8F002007E0C3EA020340E80134002C2E
:10924000E9D14FF001000A6030BC704750E8012FAF
:10925000C2EA024240E801210029F7D1704730B448
:1092600050E8022F1FFAA2F3C488A34202BFBFF343
:109270002F8F00200DE0C48923448489A34228BF96
:109280001B1BC2EA034340E80234002CE8D14FF034
:1092900001000A6030BC704750E8022FC2EA224247
:1092A00040E802210029F7D17047034653E8022F16
:1092B000D988B2EB324F4FF0000017BF92B241EAAB
:1092C000014142EA014104E05A68B2EB324F08BF63
:1092D000012043E80212002AE8D1704730B4044666
:1092E00054E8000F0D4644E80053002BF8D11560F8
:1092F00030BC704730B4044654E8000F40EA010522
:1093000044E80053002BF7D1156030BC704730B4EF
:10931000044654E8000F00EA010544E80053002B1E
:10932000F7D1156030BC704730B4044654E8000FE4
:1093300080EA010544E80053002BF7D1156030BCEA
:10934000704730B4044654E8000F00EB010544E8D0
:109350000053002BF7D1156030BC704730B4044681
:1093600054E8000FA0EB010544E80053002BF7D1AF
:10937000156030BC704770B404464FF0000054E8EC
:10938000006F0D68AE4207BF44E80023012044E8A7
:1093900000630E60002B1CBF0020F0E770BC70471C
:1093A00030B4044654E8000F88422CBF451A0546E5
:1093B00044E80053002BF5D1156030BC7047000025
:1093C0000F4800680F4909680A280AD1002908D106
:1093D0000D4802686FF070031A404FF040031A43C3
:1093E00002600A4880470A480047FEE7FEE7FEE7BA
:1093F000FEE7FEE7FEE7FEE7FEE7FEE7FEE700002A
:109400003001001034010010E40E00403D9B0100CB
:10941000019201002DE9F05F0546002092469B462F
:1094200088460646814640241BE02846414647467A
:10943000224600F074F853465A46C01A914110D3A0
:1094400011461846224600F016F82D1A67EB01085F
:109450004F4622460120002100F00DF817EB0009CD
:109460004E41201EA4F10104DFDC484631462A4665
:109470004346BDE8F09F202A04DB203A00FA02F1BF
:10948000002070479140C2F1200320FA03F31943F2
:109490009040704700487047E442020040EA0103F0
:1094A0009B0703D009E008C9121F08C0042AFAD29A
:1094B00003E011F8013B00F8013B521EF9D270475E
:1094C000D2B201E000F8012B491EFBD27047002206
:1094D000F6E710B513460A4604461946FFF7F0FFB3
:1094E000204610BD421C10F8011B0029FBD1801A38
:1094F000704730B504460020034600E05B1C9342F1
:1095000003D2E05CCD5C401BF8D030BD034611F8BF
:10951000012B00F8012B002AF9D118467047202AA8
:1095200004DB203A21FA02F00021704721FA02F30D
:10953000D040C2F120029140084319467047000014
:10954000064C074D06E0E06840F0010394E8070090
:1095500098471034AC42F6D3FFF756FE804B02001A
:10956000A04B020070B58C1810F8015B15F00703D2
:1095700001D110F8013B2A1106D110F8012B03E0AC
:1095800010F8016B01F8016B5B1EF9D12B0705D4B4
:109590000023521E0DD401F8013BFAE710F8013BFD
:1095A000CB1A921C03E013F8015B01F8015B521E19
:1095B000F9D5A142D8D3002070BD00002DE9F047B5
:1095C0001D4617468946044602F00F06DDF820A026
:1095D00000F058F8DFF86880C8F800401DB1C8F8FE
:1095E000045000F04DF9BAF1000F01D0C8F808A0FE
:1095F000002510E0484600F0FBFC4946204600F0FC
:1096000041F8C8F8004000F045F8C8F808401034A8
:1096100009F110091035BD42ECD3002E0ED0494699
:10962000204600F02FF8C6F11001A019FFF74FFFF8
:10963000C8F80040BDE8F04700F02CB8BDE8F0875E
:1096400014300020F0B50D490D4E00220C680021A9
:1096500002EB800504EB820301EB850C5F5C16F8DE
:109660000CC087EA0C075F54491CC9B20429F3D324
:10967000521CD2B2042AEAD3F0BD000014300020FC
:109680001838002000228B5C8354521CD2B2102A5E
:10969000F9D3704710B50020FFF7D4FF5FF0010445
:1096A00000F034FA00F014FA00F04CF92046FFF70D
:1096B000C9FF641CE4B20A2CF2D300F027FA00F0D0
:1096C00007FABDE810400A20FFF7BCBF10B5B12172
:1096D00000203CDF08B100F095FFBFF34F8F054835
:1096E0000168054A01F4E06111430160BFF34F8F47
:1096F00000BFFDE70CED00E00400FA0510B5054AD7
:109700000021054800F0BAFF041E01D000F07AFFE6
:10971000204610BDCD960100B43A02002DE9F04775
:1097200000268AB0DFF85091B0464FF480750124CE
:1097300037460696284605F029FC38B1D9F80403C7
:10974000204203D0284605F017FC26432D1D640057
:109750007F1CADB2082FEDD34FF4BE74204605F048
:1097600015FC48B1204605F007FC46F0004606AA65
:109770000121002005F0ECFB404D16F0FF0F15D045
:109780000127002437420DD009EB8401D1F81005E0
:10979000D1F81015C0F3042055F82420C1F301417D
:1097A00002B190477F00641C082CEBD3002E5FDAD7
:1097B0004FF0FF30CDF8108054E0281910F8507F9A
:1097C00090F9000027F0C008401C3BD007A9404694
:1097D00004F0C1FB10B34FEA9719404602F0B6FE01
:1097E00055F820701FB1B9F1030F03D006E0B9F1AD
:1097F000030F27D104A9404604F0B5FB4FF0A04168
:1098000001EB8800D0F8000706A9C0F3014A4046E2
:1098100004F0A1FB18B1BAF1020F03D012E0BAF1C3
:10982000030F0FD1B9F1030F08D1BAF1020F1DD008
:109830000221404605F062FB761CF6B217B149469C
:109840004046B847641C042CB7D3002E10D06A469B
:109850000121002005F07CFB06990098884207D082
:1098600006900498002634460790A6E70321E0E717
:109870000AB0BDE8F087000000600040183A002000
:1098800078B52D492D4A0020496800BF11F82030D5
:1098900002F8203001EB800302EB80045D786570F4
:1098A0009D78A570DB78401CE3700428EED33FE080
:1098B000002183006D461B1F5C18145D6C54491C0D
:1098C0000429F9D381071AD11D4E9DF801309DF866
:1098D00002509DF803409DF80010F35C755D8DF813
:1098E0000150345D8DF80240715C8DF8031006F56F
:1098F000007101EB900109784B408DF8003002EBCC
:1099000080019DF8004011F8103D634002F82030BE
:109910004B789DF8014063404B748B789DF8024072
:1099200063408B74CB789DF803406340CB74401C3C
:109930002C28BDD378BD000014300020183800203A
:10994000883B02002DE9F04323480024D0F800C0F2
:109950000CEB84071CF824107E78BB7881EA0602A1
:10996000FD784FEAD21883EA050908EBC80882EAB5
:10997000090008EB480888EA420242404A400CF8D5
:10998000242086EA03024FEAD21808EBC80808EB45
:10999000480888EA4202424056404FEAD91202EB98
:1099A000C20202EB420282EA49024240534085EA87
:1099B0000102D10901EBC10101EB410181EA420140
:1099C00041407E704D40641CBB70E4B2FD70042CBD
:1099D000BED3BDE8F08300001430002070B54FF412
:1099E0008076304604F0D8FB114CB50560B13046A6
:1099F00004F0D9FB0120C5F80803607920B90120E3
:109A000060712168002088474FF48276304604F068
:109A1000C3FB00280AD0304604F0C5FB0220C5F87D
:109A200008032168BDE870400120084770BD0000B0
:109A30004C300020064882B0002101600068009090
:109A4000044800680449C0B2496802B008470000F1
:109A500000D1004008D5004068300020024902488B
:109A6000091F096800680847A030002000F0D0BA3C
:109A700070B50E46144900EB400001EBC0051446DA
:109A8000E86A183520B101280FD0022805D113E06B
:109A9000284600F0F1FAA04201D2002411E022464B
:109AA0003146284600F020FB0BE0284600F0E4FA9F
:109AB000A042F4D20446F2E73146284600F0E7FA25
:109AC0000446204670BD00004443002006F090B8D4
:109AD0000D480068417842794270427A4271427B77
:109AE000427241738178827A827081728179827B3D
:109AF00082718173C178C27BC270C27AC273C2792B
:109B0000C272C171704700001430002030B509499D
:109B1000094C00200B68002103EB8102491C155CF5
:109B2000C9B20429655D1554F6D3401CC0B204289F
:109B3000F1D330BD14300020883B02002DE9F047FE
:109B4000AC4F4FF001093E1D3978351D4FF0805460
:109B500006290BD13078000708D12878C0F303100C
:109B6000032806D0042804D0052802D0062907D0EF
:109B700011E0B4F82403A049C0F30420086002E017
:109B80003078000707D12878C0F30310032802D1EA
:109B90009B499A48486703F0BFF828B1D4F84402BB
:109BA0009849C0F3423008603878B84606280CD18E
:109BB0003078000709D12878C0F30310032804D1B6
:109BC0009148016821F08071016003F0CBF8002713
:109BD00040B14FF08040C0F80C71C0F81071894856
:109BE000001F076098F80000062807D131780907A0
:109BF00004D12978C1F30311032902D0062805D026
:109C000019E0804A03216432116007E031780907C6
:109C100011D12978C1F3031103290CD17B4B052203
:109C20001A607A4A7832C2F80090784908310F6099
:109C30003F211A1D1160D4F830210A2A04D1D4F82A
:109C4000341159B1012909D0062807D13178090703
:109C500004D12978C1F30311052955D16C4909684C
:109C60006C4B19606A49091D09681B1D1960684918
:109C7000083109681B1D196065490C3109681B1DF5
:109C800019606349103109681B1D1960604914315E
:109C900009681B1D19605E49183109685D4B203346
:109CA00019605B491C3109681B1D19605849203136
:109CB00009681B1D19605649243109681B1D19606C
:109CC0005349283109681B1D196051492C31096815
:109CD0001B1D19604E49303109684E4B40331960E5
:109CE0004B49343109681B1D1960494938310968ED
:109CF0001B1D196046493C3109681B1D1960444908
:109D0000403109681B1D19600A2A05D1D4F83411A5
:109D100011B9414AFB211160DFF80081062811D1F9
:109D2000307800070ED12878C0F30310032803D041
:109D3000042801D0052805D1D4F8580200F04F01BD
:109D4000C8F8001002F0C2FF30B135480168C907F9
:109D500002D06FF001010160D4F83001062803D170
:109D6000D4F83411062902D00A2806D008E02D487C
:109D7000016841F48061016002E0D4F8340128B147
:109D8000D8F8001041F00F01C8F800104FF0102172
:109D9000D1F80002002803DBD1F80402002823DAFE
:109DA000214AC2F8009021480368002BFCD01523FB
:109DB000C1F800320468002CFCD0C1F804320168FC
:109DC0000029FCD0176001680029FCD0BFF34F8F39
:109DD0000D48F0380168164A01F4E0611143016052
:109DE000BFF34F8F00BFFDE7134912480860BDE87D
:109DF000F0870000E00F00F0403501400DF0ADBAF3
:109E000000C007403C050040FCED00E0105600405B
:109E10000404001020C5004018F50040E40E004086
:109E2000000400403C17004004E5014000E401400C
:109E30000400FA050090D00368310020014902486F
:109E400008F0C4BEC43A0020003000400148006859
:109E500000470000543000200A4808B50021C170B6
:109E6000094801224260C0F80811D0F808010090AA
:109E700000F05CFC002803D0BDE8084000F0C2BB45
:109E800008BD0000882D00200020004010B5054AC4
:109E90000021054800F0F2FB041E01D000F0B2FBE7
:109EA000204610BD599E0100B83A020070B5114D10
:109EB0001149124A6868891A401CC908032202EB3A
:109EC000014468600A280DD320460D4A0DA105F013
:109ED0004BFA0B48001F006800F022FC02F088FDDE
:109EE0000020686020466B68BDE87040044A10A1FD
:109EF00005F041BAC42F0020304C0200B04B0200E4
:109F00003C3B02005B25735D206E6F2061757468B9
:109F100020636F6E6E65637465642C206175746F69
:109F200020646973636F6E6E6563742100000000C6
:109F30005B25735D2047554152445F54494D455F51
:109F40005345434F4E44533A25640000024801688C
:109F5000491C016070470000F42F002038B5064C02
:109F600020680025002805D0044840688047256007
:109F70002068009038BD00000001014070300020D2
:109F800070B5A0B080216846FFF7A1FAAB208DF82C
:109F9000000000208DF8010007238DF80230FF2318
:109FA0008DF8033058238DF8043080238DF8053068
:109FB0008DF8060001218DF808008DF80710882023
:109FC0008DF809000A216A4600208C1E531807E00C
:109FD000165C13F8025C401C354403F8025CC0B206
:109FE000A042F5DB104607F0E5FF20B070BD000091
:109FF000064A10B592680021435C545C63404354A8
:10A00000491CC9B21029F7D310BD0000143000203C
:10A0100010B5124C02202061606111A0A06104F112
:10A020007800E0614FF4007020620020A06260625E
:10A030000BA1A164E06204F51E71E1641021A0652A
:10A04000C4E91410E06509A1E01DFFF75FFA08A15B
:10A050002046FFF75BFA2020A07110BD444300208A
:10A060005465726D696E616C0000000052545400BA
:10A0700053454747455200000269C1688A4203D8E8
:10A080008068401A104400E0501A401E70472DE9C5
:10A09000F047C4681746894606464FF00008306905
:10A0A000A04201D9051B02E0B168201A0D1AB06860
:10A0B0006D1E001BA84200D80546BD4200D33D4698
:10A0C00070682A4620444946FFF7E8F9B0687F1BCC
:10A0D0002C44A844A944A04200D10024F460002FDD
:10A0E000DDD14046BDE8F0872DE9F04104468846C1
:10A0F000D4E90207C51BE168606816460844B5420A
:10A1000006D94146FFF7CAF9B819E060BDE8F08109
:10A110002A464146FFF7C2F9761B08EB0501324695
:10A120006068FFF7BBF9E660F0E702E008C8121FBD
:10A1300008C1002AFAD170477047002001E001C130
:10A14000121F002AFBD170470121202803DA814029
:10A150000548014003E0402802DA2038814009B177
:10A160000120704700207047FC06FFBDF0B589B0A4
:10A17000054620216846FFF7AAF9AB2100208DF89B
:10A1800000108DF8010008218DF80210FF218DF8D4
:10A19000031058218DF8041080218DF805108DF8DA
:10A1A00006008DF8080088200A21012603248DF876
:10A1B00009006A468DF80750ADF82010002008E02D
:10A1C000531812F800C013F8027D401C67441F703A
:10A1D00080B28B1E9842F3DB0D4808AA694643897A
:10A1E000343001F050FE82B20A480B49401AC008D0
:10A1F00004EB0040044609A105F0B6F8002D05D196
:10A2000009480AA10670204605F0AAF809B0F0BD79
:10A21000882D0020304C0200B04B02006572726F36
:10A22000723A2578200D0A00F22F00202058585845
:10A23000585858206E6F7420666F756E64200D0A32
:10A24000000000002DE9FF410021009101910291E1
:10A250000391014610226846FFF720F9144815497A
:10A260000024401AC008114F032101EB004500BF34
:10A2700007EB041010226946FFF73BF930B1641C6C
:10A28000E4B20A2CF4D30A2C06D00AE028460AA12C
:10A2900005F066F80126F6E728460BA105F060F800
:10A2A000002604B03046BDE8F081000038370020B9
:10A2B000304C0200B04B02003D3D3D3D3D3D3D3D3B
:10A2C0002066696E640000003D3D3D3D3D3D3D3DE5
:10A2D000206E6F742066696E64000000800701D0F4
:10A2E0000020704701207047C3688B4206D8114494
:10A2F0000069491E814201D8012070470020704743
:10A3000090F824001F20704710B501220221002080
:10A3100001F070FF08B1072810D1072202210120A7
:10A3200001F068FF08B1072808D100210A22084679
:10A3300001F060FF08B1072800D1002010BD000027
:10A3400010B5B2B0AC216846FFF7C1F800242D94D7
:10A350002BA82E946DDF1F489DF8B21002220170C9
:10A360009DF8B11041709DF8B01081709DF8AF104C
:10A37000C1709DF8AE1001719DF8AD10417101687A
:10A380002D918088ADF8B8002DA8319006208DF869
:10A3900000208DF80240ADF8C0008DF803002FA812
:10A3A00009904FF496500121CDE922048DF87C10DC
:10A3B0000948ADF8BC1029906946084800F060FCD7
:10A3C00008B100F01FF90121044800F056FC32B03A
:10A3D00010BD0000CC2F0020810A0200E8340020CC
:10A3E00010B520B1BDE81040084800F013B80321B3
:10A3F000064800F0FAFC064A02210028117003D03A
:10A40000BDE8104000F0FEB810BD0000E8340020A8
:10A41000C42F002090F8540074DF02490020087017
:10A4200070470000C42F0020F0B589B02021684695
:10A43000FFF74DF8AB208DF8000000208DF80100EB
:10A4400006228DF80220FF228DF80320B0228DF81D
:10A450000420802201218DF805208DF806108DF84A
:10A46000070088208DF8080009266C460323002089
:10A47000B11EA21908E000BF275C12F8025C401C64
:10A480003D4402F8025C80B28842F5DB0B480C497F
:10A490000025401AC00803EB00470AE0605D00F0A9
:10A4A000C5F9635D38462A4606A104F064FF6D1CB9
:10A4B000ADB2B542F2D309B0F0BD0000304C02009D
:10A4C000B04B0200636F6E6E656374656420256433
:10A4D0003A2534780D0A0000FEB500200090AB212B
:10A4E0008DF800108DF8010006218DF80210FF2173
:10A4F0008DF803100190B0218DF8041080218DF8A3
:10A5000005108DF8060002908DF8070088208DF860
:10A51000080009266C4603230020B11EA21907E09B
:10A52000275C12F8025C401C3D4402F8025C80B2D9
:10A530008842F5DB0A480B490025401AC00803EBA6
:10A5400000470AE0605D00F071F9635D38462A4615
:10A5500005A104F010FF6D1CADB2B542F2D3FEBDF3
:10A56000304C0200B04B0200646973636F6E6E651D
:10A57000637465642025643A2534780D0A00000070
:10A5800072B604F097FF00BF04F0D0FD0028FBD1A5
:10A5900011481249401AC408012000EB044010A1E0
:10A5A00004F0DEFE11480068C00700D000BE0220A3
:10A5B00000EB04400EA104F0D3FEBFF34F8F0B4815
:10A5C000E43801680E4A01F4E06111430160BFF311
:10A5D0004F8F00BFFDE70000304C0200B04B02007F
:10A5E000466174616C206572726F7200F0ED00E07C
:10A5F00053797374656D2072657365740000000093
:10A600000400FA050EB500210091CDE901106A465B
:10A6100044F20100FFF7B4FF0EBD10B58268C368B5
:10A62000934203D002F04BFC002010BD052010BD6A
:10A6300029B112B1531E134203D0092070470E20D6
:10A6400070470160838000218160C16008467047C7
:10A6500010B58268C3689A1A83889A4203D802F0B8
:10A6600038FC002010BD042010BD01207047000000
:10A67000014802F008BA0000803000203AB10068BA
:10A680000129426100D000210161002070470720AC
:10A690007047000038B511480823582241680091DE
:10A6A0000F49006803F076FB002815D10D4A694672
:10A6B0000D4802F0EDF904000ED101210A4802F024
:10A6C0005EFA0123094A1946074802F0B4F906491F
:10A6D000012008390870204638BD0000043F020000
:10A6E000583B00202D1B020080300020FFFF7F0020
:10A6F00070B50446007F0D4608B1002070BDA26110
:10A7000002F0F2FD401941F10001C4E902012069A3
:10A7100000B125612146BDE87040002008F06CB909
:10A72000014600200877012008F066B9074810B5F7
:10A730000178074A515C19B1001D06F09BF802E050
:10A740000C3005F019FF002010BD0000F030002093
:10A750004030002070B50A4E01460A48B578FFF730
:10A760005CFF04464DB10020B070711C0122C81D71
:10A7700003F0FCFE08B1FFF745FF204670BD000066
:10A78000E8300020683D0020F0B5244E89B01F4617
:10A790000D00044672603FD0A888296882B2204824
:10A7A000FFF746FF002835D1A889A96882B21C4866
:10A7B0001030FFF73DFF00282CD1202219496846B0
:10A7C000FEF76CFE60690690207C00B101208DF8D8
:10A7D00014008DF81C70607C00B10E208DF81500FF
:10A7E000E0680290A0680390206801906068009083
:10A7F0000A480D4A6946083003F084FE002809D152
:10A80000B0702068401C05D004490122491CC81DB5
:10A8100003F0ACFE09B0F0BD0720FBE7E8300020F4
:10A82000683D002048410200AD3102002DE9F047AB
:10A830004FF0A0444FF480358146C4F80C55174EB4
:10A840000A274FF47A48711C404688477F1EFAD188
:10A85000C4F8085549461248FFF7FAFE040019D11A
:10A860001048114A0178515C19B1001D05F0F4FF40
:10A8700002E00C3005F070FE60B90A49084808395A
:10A88000FFF7CBFE30B9074901220839054803F02C
:10A890007DFE04462046BDE8F087000040410200EE
:10A8A000783D0020F03000204030002030B5EFF33C
:10A8B000108172B60D4A9468012324B103700029F7
:10A8C00000D162B630BD93604FF0E023D3F88051E1
:10A8D000074C25401560C3F88041D3F8844154608B
:10A8E0005A17C3F8842100220270E8E7B03B002029
:10A8F000FC06FFBD0B498A68002A11D000280FD141
:10A90000EFF3108072B60B684FF0E022C2F800310E
:10A910004B68C2F8043100228A60002800D162B678
:10A9200070470000B03B00202DE9F0410646086862
:10A930000C46411C4FF0A0474FF0010506D005FA28
:10A9400000F1C7F80815206804F0C4FA6068411CDB
:10A9500002D0002104F0A4FA3168A069C1F82405EE
:10A96000607D227D31681043C1F86C05D4E9001286
:10A970003068C0F81425C0F80C15207D012815D1C9
:10A98000A068411C02D0002104F08AFAE068411C52
:10A9900005D08540C7F80855E06804F09BFAD4E973
:10A9A00002123068C0F80825C0F81015BDE8F08123
:10A9B0002DE9F041064608680C46411C4FF0A047BF
:10A9C0004FF0010506D005FA00F1C7F80815206818
:10A9D00004F08AFA6068411C02D0032104F069FA8D
:10A9E0003168A069C1F82405607D217D3268084383
:10A9F000C2F86C05D4E900123068C0F80C15C0F834
:10AA00001425207D012815D1A068411C02D0002109
:10AA100004F04FFAE068411C05D08540C7F808559E
:10AA2000E06804F061FAD4E902123068C0F8082541
:10AA3000C0F81015BDE8F081A023034A4FF41C3183
:10AA4000024803F0C7BF0000383700206C310020F7
:10AA500070B51500044609D00020286034B1206884
:10AA600020B1A079800703D0072070BD0E2070BDF3
:10AA7000084600F0EFFAC0B2142804D021798142D0
:10AA800003D8042070BD052070BDE288216800FB5A
:10AA900002102860002070BD2DE9FC4700251788B2
:10AAA0000646158090F82D001446894630B13A4686
:10AAB0002146484600F0ECFA051E09D1B0784FF067
:10AAC0000C0A18B32088C846001DB84202D9504667
:10AAD000BDE8FC87684679DF0028F9D1208803218A
:10AAE00008F8001020881921401C80B2208008F846
:10AAF00000102088401C80B2208000EB0801BDF8C7
:10AB0000000008F0F4FC218808442080F07802223C
:10AB1000C8B1218896F9033001F1030C4846BC45C1
:10AB2000D5D8425421884FF0010C491C89B22180AC
:10AB300000F801C02188491C89B2218009F8013040
:10AB40002088401C20807068B8B1218890F90030BE
:10AB500001F1030C4846BC45B9D8425421880A2269
:10AB6000491C89B2218042542188491C89B2218024
:10AB700009F801302088401C2080308950B1CDE98F
:10AB800000474B460622022106F1080008F046FE67
:10AB9000051E9DD1308A50B1CDE900474B460722B2
:10ABA000032106F1100008F039FE051E90D1308B0C
:10ABB00050B1CDE900474B461522142106F118008B
:10ABC00008F02CFE051E83D1306A30B13B46224688
:10ABD000494601F0D8FD051EDBD1706A30B13B4615
:10ABE0002246494602F0E3FF051ED2D196F82C001A
:10ABF00038B13B4622464946304607F099FC051ECF
:10AC0000C7D1307838B13B4622464946304603F03A
:10AC100057F8051EBDD128465AE718B5044600204E
:10AC2000ADF8000013466A46204600F006F80028FA
:10AC300002D0BDF80000204418BD70B5C8B1C2B143
:10AC40000024158803E0065D641C3444A4B2A542C8
:10AC500003D8061976789E4201D08C42F3D38C42F9
:10AC600007D2005DA31C401E9BB280B21C188C4210
:10AC700001D9002070BD138070BD80F8301070477E
:10AC80002DE9F0410D00044606D02CB195F87A006C
:10AC90000026012803D006E00E20BDE8F08195F8DB
:10ACA0009800012829D0D5F8A000042825D0D5F88F
:10ACB0009C00042821D04FF00108A6702C2205F139
:10ACC0007801201DFEF7EAFB84F83060D5F8A40077
:10ACD0006063D5F8A800A0634FF6FF70A4F8E80001
:10ACE00004F1D400C4F8E400C4F8EA60A4F8EE600B
:10ACF00084F8F060207810B104E00720CDE7FF2051
:10AD000084F8540004F155072046C4F8D470FFF7C6
:10AD1000F7FAA4F8D80004F1D80239462846FFF71C
:10AD2000BBFE0028B9D104F19300C4F8DC00204632
:10AD3000FFF7E6FAA4F8E00004F1E00205F13C00B8
:10AD4000D4F8DC10FFF7A8FE0028A6D184F85180C3
:10AD5000208BA4F8480084F83C80266484F8506076
:10AD6000606900216064454604F13C02781E72DF90
:10AD7000002892D1257090E72C22001DFEF78EBB93
:10AD800010B50288102A1BD0112A20D0262A1DD1E6
:10AD9000007A0C46012801D0022817D1A07805219D
:10ADA000401CB0FBF1F201FB1201204600F01DF83F
:10ADB00000280BD0A16B002908D0BDE8104008473F
:10ADC000C27B012A02D18088A1F8E80010BD0C46A0
:10ADD000002184F8F2108088B4F8E8108842F5D198
:10ADE00020790028F2D10121DFE72DE9F05F044648
:10ADF00000780F4698B1A7700025C4F8EA50A4F86F
:10AE0000EE5084F8F050A079012608B1012F09D046
:10AE1000E07980B1012F05D0022F03D00BE008208C
:10AE2000BDE8F09F616B21B184F8F160082088478C
:10AE300001E084F8F15004F1EB0100200A5C0AB152
:10AE4000304603E0401C0628F8D300204FF00208EB
:10AE50004FF0030A4FF0040B012F06D0022F0CD045
:10AE6000032F0FD0042F15D110E0A17929B194F848
:10AE7000241011B908B130460DE0E17911B108B1E3
:10AE8000404608E0207A08B1504604E0607A08B1F4
:10AE9000584600E02846A070616B41B1032801D0FC
:10AEA000042804D1607910B194F8F20098B184F8C4
:10AEB000F35004F13C0018210746FEF708FB84F824
:10AEC0003C6004F12C0006F0F9F958B194F82C001C
:10AED00084F8510008E084F8F45084F8F360072007
:10AEE0008847E6E784F8516094F8240058B104F1EB
:10AEF000280006F0E3F920B194F8280084F8520005
:10AF000001E084F8526084F85050A27804F1EA011C
:10AF100004F1D409052A4DD2DFE802F065030F1BC6
:10AF2000320084F83160C4F8E450C4E9101584F8A4
:10AF30003C808020A4F848003EE084F8318087F807
:10AF400000A0228ABA81C4F8E4507960E168B9604F
:10AF500032E06069B860208BB8813D4684F83C607F
:10AF6000204608F03DFC40B185F8148004212046BD
:10AF700001F0BDFFF0B9052115E084F831A017E01C
:10AF8000E069B860208CB8813D4684F83C6020467A
:10AF900008F026FC50B185F814800421204601F009
:10AFA000A6FF38B9062184F8311001E084F831B0E9
:10AFB000C4F8E490A07878B13A4604F15400D4F88B
:10AFC000E41072DF00287FF42BAF94F8301094F86F
:10AFD000540073DF0028F6D1616B11B194F8310091
:10AFE000884700201CE784F83150F5E770B504006D
:10AFF00012D001461C221448FEF750FA1248134D95
:10B000000560206850B17ADF002806D12068016809
:10B0100029604068686005E00E2070BD0B487BDF4A
:10B020000028FAD108484FF6FF711438084A20F872
:10B03000041B0549343901600021FFF71FFB00287C
:10B04000EBD0032070BD00006C39002038300020A8
:10B050007937020010B5044600F010F808B1204618
:10B0600010BD142010BD00000346034880680A4646
:10B07000194601F050BF000088390020142801D380
:10B08000002070470146014802F0CEBE8C390020F6
:10B090007CB5054608880C460930904201D90C2041
:10B0A0007CBD68466DDF0028FAD1218808206854ED
:10B0B00020881B21401C80B2208029542088401CFD
:10B0C00080B220802844DDF801100160BDF8051031
:10B0D00081802088801D80B220809DF80010490862
:10B0E00000D0012129542088401C208000207CBDF4
:10B0F00010B503F081F8002809D105484FF0030C82
:10B1000000DF002803D1BDE8104003F0E3B810BD14
:10B11000E845002018B103490860002070470E2060
:10B12000704700006431002010B54FF0FF3100205F
:10B130003DDF00280BD1B1213CDF002807D10448B6
:10B14000416901208847022004F0B2FA002010BDB6
:10B15000CC450020044810B50068416900208847AC
:10B16000BDE81040FFF7E0BF6431002010B588B0A3
:10B17000044620216846FEF7AAF90320ADF8000036
:10B1800020788DF802009DF80D00172140F028006E
:10B190008DF80D0001208DF810008DF81300ADF82A
:10B1A00004108DF812008DF80C008DF811006088E5
:10B1B000A21D694601F0D2F908B010BD10B5184CB7
:10B1C00086B01ECC8DE81E0048B1164C4FF6FF71BC
:10B1D000A180006800216061217618B104E00E2092
:10B1E00006B010BD104860610E48FFF793FF0028BD
:10B1F000F6D101208DF812004FF65960ADF810001D
:10B20000A21C04A90120A8DF0028E9D1054968464D
:10B2100062DF0028E4D10348FFF7A8FFE0E7000061
:10B2200050420200CC4500207DCC010010B5002822
:10B2300023D003881C4C102B17D02146112B8A8851
:10B2400015D0C988512B19D0532B16D1C0888842EC
:10B2500013D1207E002810D0FFF77CFF00280CD0EF
:10B260006169BDE8104002200847808804E08088BA
:10B27000824202D14FF6FF70A08010BD83889342B6
:10B28000FBD110F8062F022AF7D142888A42F4D166
:10B29000017A0429F1D00629EFD00529EDD0BDE8C7
:10B2A0001040801C05F0F4BCCC4500202DE9F04195
:10B2B0000546007B042601272E4C012811D00228C8
:10B2C0002CD00226287B314600F08EF818B1206879
:10B2D000416903208847206841690220BDE8F041A8
:10B2E000084720684FF00008417E49B1062101203F
:10B2F00000F07AF800283BD0206841690320EDE790
:10B3000007760121084600F06FF8002830D0226847
:10B31000112882F81880D5D10626D3E76A7B142A33
:10B3200022D80AB3DFF8508005F10E0108F10400BD
:10B33000FEF7B4F8697BC8F8181021684046497ECA
:10B340000029BFD1A0F10C010A68011F904768B124
:10B350000F28B7D109480A49401AC00807EB004036
:10B36000084903F0FDFFADE70526ABE72068477607
:10B37000BDE8F08164310020F4450020304C02002B
:10B38000B04B0200E449020070B5154900250A6877
:10B39000002A24D04A68002A21D008319047082882
:10B3A0001DD0104C0028206845760ED006210220C2
:10B3B00000F01AF818B12068416903208847206816
:10B3C00041690220BDE8704008470121022000F0D9
:10B3D0000BF8002803D0206841690320F2E770BD14
:10B3E000E84500206431002086B00323ADF800302A
:10B3F00020238DF814308DF8150000220E4801929C
:10B4000002928DF81610C188ADF8041002218DF853
:10B41000061005A90491ADF80820CDF80CD080885D
:10B4200001A9AEDF002804D1BDF80010032900D027
:10B430000C2006B070470000CC45002030B52349F1
:10B44000234B01250322C91AC9088BB002EB014422
:10B4500078B101282DD01D4A1946511AC908012278
:10B4600002EB0142022827D00328104627D019A159
:10B4700026E0204621A103F073FF68462C21FEF749
:10B4800026F84FF496500490002005908DF8045053
:10B490008DF8005069462548FFF76EFC00212448CE
:10B4A000FFF7E2FD0246204622A103F05DFF0BB04C
:10B4B00030BD204625A103E010462DA100E03BA1B0
:10B4C0000BB0BDE8304003F04BBF0000304C020031
:10B4D000B04B0200556E6B6E6F776E206576656EB1
:10B4E000742066726F6D20626C655F6466755F6262
:10B4F0007574746F6E6C6573732E000044657669A5
:10B50000636520697320707265706172696E67206F
:10B51000746F20656E74657220626F6F746C6F61FA
:10B52000646572206D6F64652E000000E8340020B1
:10B53000BDC90100446973636F6E6E6563746564B1
:10B54000202564206C696E6B732E0000446576695B
:10B5500063652077696C6C20656E74657220626F1C
:10B560006F746C6F61646572206D6F64652E00008E
:10B570005265717565737420746F20656E746572A1
:10B5800020626F6F746C6F61646572206D6F6465AB
:10B59000206661696C6564206173796E6368726F9F
:10B5A0006E656F75736C792E0000000052657175C1
:10B5B00065737420746F2073656E642061207265FA
:10B5C00073706F6E736520746F20636C69656E7441
:10B5D000206661696C65642E000000002DE9FC4165
:10B5E0005D495E4A0546891ACA080088032101EBB5
:10B5F0000244192871D00DDC594EA0F110004FF013
:10B60000010709281ED2DFE800F02E465E696D7141
:10B61000751D7C003A2871D016DC4FF000062128F9
:10B6200077D022287FD026280CD120464D4A4EA123
:10B6300003F09AFE0096A88869468FDF002801D0A3
:10B64000FEF7E0FFBDE8FC813B2876D055287DD091
:10B650005628F7D12046434A4AA103F085FEA88820
:10B66000132176DFEAE7884620464CA103F078FEF6
:10B670003770072000F0E0FD08B1FEF7C3FFA9888E
:10B680007181494802F010FD08B1FEF7BBFF474940
:10B6900081F80080D6E72B7A082B0CD0314A132B87
:10B6A00020460CD042A103F066FE20464AA103F0DA
:10B6B00057FE7770C6E720462A4A4BA100E054A106
:10B6C00003F052FEF1E72046264A5DA103F04CFE4E
:10B6D00005F10801708975DFB4E716E02046214ABC
:10B6E0005DA136E020461F4A61A132E020461D4A96
:10B6F00065A12EE020461B4A69A12AE019E008E076
:10B7000011E02046174A6BA123E02046154A6EA19E
:10B710001FE02046134A71A103F026FE0196A88877
:10B7200001A98FDF8AE720460E4A73A111E004E0E9
:10B730000CE020460B4A75A10BE02046094A7CA18B
:10B7400003F012FEA888132176DF77E72046054A2A
:10B750007DA103F009FE75E7304C0200B04B0200FA
:10B76000882D0020E53A02005B25735D2061647638
:10B7700020736574207465726D696E617465642EE2
:10B78000000000005B25735D2067617474732065A1
:10B7900076742074696D656F75742E00436F6E6EDC
:10B7A00065637465642E0000DC340020C42F002023
:10B7B0005B25735D20446973636F6E6E65637465AA
:10B7C000643A206F7468657220726561736F6E28C9
:10B7D0002530325829000000446973636F6E6E652E
:10B7E000637465642E0000005B25735D20446973FB
:10B7F000636F6E6E65637465643A20636F6E6E6529
:10B800006374696F6E2074696D656F75742E0000C6
:10B810005B25735D20446973636F6E6E6563746549
:10B82000643A2075736572207465726D696E617417
:10B83000656420636F6E6E656374696F6E2E0000C1
:10B840005B25735D20636F6E6E20706172616D2089
:10B850007570646174652E005B25735D207372637F
:10B8600020706172616D20726571756573742E0050
:10B870005B25735D2073656320696E666F2075704C
:10B88000646174652E0000005B25735D2070617338
:10B89000736B657920646973706C61792E000000A8
:10B8A0005B25735D206B65792070726573736564C9
:10B8B0002E0000005B25735D2064686B6579207243
:10B8C0006571756573742E005B25735D20617574F9
:10B8D00068207374617475732E0000005B25735DBE
:10B8E00020504859207570646174652072657175C7
:10B8F0006573742E000000005B25735D205048596D
:10B90000207570646174652E000000005B25735D16
:10B91000206761747463206576742065786368615C
:10B920006E6765206D7475207273702E00000000C4
:10B930005B25735D20676174746320657674207481
:10B94000696D656F75742E005B25735D206761748A
:10B950007473206576742065786368616E6765200E
:10B960006D747520726571756573742E000000002A
:10B9700010B51A4C0188606810290ED011292BD1FE
:10B98000401E606028D1FEF7BFFC002824D021684B
:10B99000002921D0BDE810400847D0B9002101227C
:10B9A000084600F027FC08B107280FD10722022122
:10B9B000012000F01FFC08B1072807D10422022152
:10B9C000002000F017FC20B1072802D0216801B147
:10B9D00088476068401C606010BD00003030002067
:10B9E0002DE9F04701883B4E40F2F3194FF6FF7501
:10B9F00010291BD011293ED0122954D0502946D1EC
:10BA0000C188F289841D914241D1618902293ED1C8
:10BA10008688304601F01CFE050038D004F10C0089
:10BA200000F00AFBA8B3294630464EE0C17B878868
:10BA3000044601292BD1A846284601F009FE05003D
:10BA400017D02F8000202872234843464A460168B9
:10BA5000C5F80A104068C5F80E0004F1100105F1A0
:10BA60000A0001F0C1FE6872F08900280FD1294652
:10BA70002AE0042013E0808801F0EAFD040006D0EB
:10BA80006068FEF74DFE08B106F0C0FA2580BDE8FB
:10BA9000F087FFE76868FEF743FE0028F7D0BDE8AF
:10BAA000F04706F0B3BA87880646384601F0D0FD65
:10BAB0000400ECD02B464A4606F1080104F10A00C6
:10BAC00001F092FE607221463846BDE8F04700F072
:10BAD000A1BE00006C390020383000202DE9F04F65
:10BAE000044686880188424897B0834610290CD0C6
:10BAF000112950D0103019296AD01A2974D1217A0D
:10BB00000C09042C4DD301224CE0394D083DA868A6
:10BB1000C0430B9069680BA802F0AAF90B990CA816
:10BB200000F012FE2C220CA96846FDF7B7FC002796
:10BB3000E946A84610E000BF09EB47005FF00005AA
:10BB4000B0F804A008EB85005146001D02F061F931
:10BB50006D1C1E2DF6D37F1C0098B842ECD8142E15
:10BB600005D317B00420BDE8F04FFEF74BBD3146BA
:10BB7000584602F064F9314608F1040002F05FF91A
:10BB8000E07B012830D017B03146BDE8F04F1848AF
:10BB9000001D02F054B917B03146BDE8F04F02F075
:10BBA00038B90022314601F09DF9032C01D301225E
:10BBB00000E000220E4831460C3001F093F9022CCF
:10BBC00001D3012200E0002209483146083006E096
:10BBD000217A002908D1617AC1F3C002314617B039
:10BBE000BDE8F04F01F07EB917B0BDE8F08F00005E
:10BBF000903900202DE9F04391B00C4605000DD09E
:10BC000064B1A07A0A2805D8207C0A2802D8207EB0
:10BC10000A2805D9072011B0BDE8F0830E20FAE705
:10BC20002068286060686860A07AA874207C85F825
:10BC30007800207E85F8DE0001268DF8226041F62E
:10BC40001200ADF8200005F1080208A93046A8DF6F
:10BC50000028E0D1002709E0A06B01AA30F81710F6
:10BC60002889A9DF0028D6D17F1CFFB294F83600BE
:10BC7000B842F1D8207A4FF0000808B9607A38B39A
:10BC800094F83C9094F83D708DF83060202168461F
:10BC9000FDF71DFC42F64E20ADF800000CA8029006
:10BCA0009DF80D00ADF8046040F006008DF80D0021
:10BCB0008DF81190ADF806608DF812708DF80F6058
:10BCC000288905F10A02694600F048FC0028A2D143
:10BCD0002146284601F086FC00289CD1207C18B320
:10BCE000606908B300271CE06069CDF8108000EBA4
:10BCF000C7039DF8100007EB870140F00E008DF898
:10BD0000100005EB4100191D7A30CDE9001033F821
:10BD1000022B04A9284605F0E1FD002899D17F1CDB
:10BD2000FFB2207CB842DFD8207E18B3E06908B3A8
:10BD300000271CE0E069CDF80C8000EBC7039DF8FC
:10BD40000C0007EB870140F00A008DF80C0005EBB2
:10BD50004100191DE030CDE9001033F8022B03A992
:10BD6000284605F0BBFD0028B1D17F1CFFB2207E24
:10BD7000B842DFD82146284605F0FDFD0028A6D1AF
:10BD8000207A70B305F5A770009004F142030822F1
:10BD900042F62221284600F059F9002897D12021A7
:10BDA0006846FDF794FB42F63220ADF800009DF89E
:10BDB0000D00ADF8046040F00E008DF80D0094F811
:10BDC00045008DF8110094F846008DF812008DF8AA
:10BDD0000F60288905F5AB72694600F0BFFB0028AB
:10BDE0009CD1607A60B105F5AF70009004F13F031B
:10BDF000082242F63321284600F028F900288DD188
:10BE00002146284601F0CFFA002887D194F83E70E9
:10BE10008DF80880202109A8FDF759FB42F64C2037
:10BE2000ADF824009DF83100ADF8286040F0040022
:10BE30008DF8310002A88DF83670ADF82A600B90AD
:10BE4000288905F5B77209A900F088FB00288BD175
:10BE5000E168C5F87C116169C5F88011E169C5F830
:10BE60008411D8E60A46014610460A88102A05D0F1
:10BE7000502A05D0512A05D105F074B804F06CBEE3
:10BE800005F01AB97047F0B585B016460F460400A4
:10BE90001D4614D004AA19466069FEF7D9FD002892
:10BEA0000BD1A5F57F40FF380BD0049848B100783E
:10BEB00048B13088F42808D9072005B0F0BD0E201D
:10BEC000FBE70520F9E70820F7E700200090019044
:10BED00002900390A088ADF8000001208DF80200C8
:10BEE000CDE9026769462846AEDFE6E770B5334D17
:10BEF00004008EB02DCD08AE86E82D005BD0E9B3EE
:10BF00000868A061214608A862DF002851D1207886
:10BF100001258DF83200ADF83050A21C0CA928463E
:10BF2000A8DF002845D120216846FDF7D0FA02207D
:10BF3000ADF8000020788DF802008DF80C509DF8C7
:10BF40000D00F426ADF8046040F00C008DF811509F
:10BF5000ADF806508DF80D008DF81250608804F190
:10BF60000C02694600F0FAFA002822D12021684626
:10BF7000FDF7ADFA0320ADF8000000E01BE02078EB
:10BF80008DF802008DF80C509DF80D008DF81150C1
:10BF9000ADF8046040F010008DF81250ADF8065076
:10BFA0008DF80D008DF813506088221D694600F051
:10BFB000D5FA0EB070BD0E20FBE70000384202003B
:10BFC00070B588B00446002924D0002C22D0084641
:10BFD0002188102920D0502924D057291AD105466C
:10BFE000A188406906AAFEF733FD002812D1069EFB
:10BFF000307800280ED018216846FDF768FA012035
:10C000008DF800000195A088ADF808000396A96995
:10C010006846884708B070BD08B02146BDE870404A
:10C0200004F064BD08B02146BDE8704005F001B8D9
:10C030000078C0F340007047007800F001007047BE
:10C040000A78027049784170022070472DE9F0416A
:10C0500088B00F4605461C46164620216846DDF886
:10C060003880FDF734FA9DF80D00ADF8007040F00F
:10C070000201ADF804608DF80D10607810B141F048
:10C08000080101E021F0080141F010008DF80D00D9
:10C0900020788DF8110060788DF81200A0788DF866
:10C0A000130001208DF80F0028894246694600F0F0
:10C0B00055FA08B0BDE8F08107490B5C4FF0A0418C
:10C0C000D1F804250120984020EA0203C1F8083580
:10C0D0001040C1F80C057047873E02000249085C19
:10C0E000012102F02ABF0000873E02000249085CDD
:10C0F000002102F022BF0000873E02000649095CD1
:10C100004FF0A040D0F80405C84010F0010000D066
:10C11000012080F001007047873E020010B5002426
:10C120002046FFF7DBFF641C042CF9D310BD10B5CB
:10C1300000242046FFF7DAFF641C042CF9D310BD5D
:10C1400010B50246064B4FF0FF3000215C5C944274
:10C1500001D1084610BD491C0429F7D310BD0000C9
:10C160008B3E02002DE9F0470D468146FFF7E8FFC0
:10C170000446042836D2DFF874801B481C4EA8F110
:10C180000C0725B3012D0ED0022D2BD104EB44005A
:10C1900030444578002D25D0B968002922D02846A2
:10C1A000BDE8F047084704EB4401755C0E44717824
:10C1B00049B10E4A4FF48041093A8068FEF798FA77
:10C1C00008B987F80390B17808F80410E2E78068AE
:10C1D000FEF7A6FA04EB4401314418F804008D7808
:10C1E000A842D7D0BDE8F087903E02002C30002056
:10C1F0000839002070B50023042810D20D4D00EB43
:10C200004004012A02D101290CD00022094E00EB82
:10C210004000304461B1012906D0022906D007232D
:10C22000184670BD0E30C2B22A55F9E74270F7E7E2
:10C230008270F5E708390020044A0146002012798F
:10C24000D20702D0084600F003B870472030002023
:10C250002DE9F05F6E4C054600266078B34618B1B4
:10C2600084F801B001F0E8FA6A4F4FF47A694FF4AC
:10C27000C87A4FF00108182D69D2DFE805F00C13D9
:10C2800013384754696E727B727BC58484848484BE
:10C29000B3B6B9BCC5C501F0CFFA3868FEF740FAAD
:10C2A00006465CE00020FFF729FF00284FF0000061
:10C2B00008D0FFF713FF022D02D14FF4E16008E030
:10C2C000484606E0FFF712FF022D01D1C82000E02A
:10C2D0005046410CC0034FF47A72801841F10001BE
:10C2E000257052000023FDF795F801462AE0002052
:10C2F000FFF704FF00284FF0000004D0FFF7EEFE28
:10C300004FF44870E5E7FFF7F1FEDFE70020FFF7A5
:10C31000F5FE00284FF0000002D0FFF7DFFECFE768
:10C32000FFF7E4FED4E70020FFF7E8FE00284FF017
:10C33000000002D0FFF7D2FE01E0FFF7D7FE257024
:10C3400040F6CD4100223868FEF7D2F9064646E0B5
:10C350000020FFF7B1FE257008E0002051E02570B5
:10C360003DE084F801800120FFF7A6FE002240F2A4
:10C370006661E8E784F801800120FFF79DFE002256
:10C380004FF40051DFE77868FEF7CAF90646D5F1A9
:10C39000110000D02EB10220FFF7A0FE84F802B0F9
:10C3A0001DE0012816D980B2C8214843C117C9032E
:10C3B00041EA5041C0034FF47A72801841F1000104
:10C3C00052000023FDF726F8014600227868FEF7A8
:10C3D0008FF906460220FFF789FE84F80280304676
:10C3E000BDE8F09F01F028FAB9E701F025FAB4E7BB
:10C3F00001F022FA04E001F01FFA0020FFF776FEB8
:10C400000120FFF773FEAAE7FFF791FEA7E7000000
:10C4100020300020903E02002DE9F8430546861C9E
:10C4200000208DF8000090460F464FF00109684645
:10C43000FEF73CFA1B4C20683860D4E90001401A32
:10C44000A16804F21C47081A0EE00121384601F0E9
:10C4500009FD01F011FA0146384601F003FDD4E967
:10C460000001401AA168081A401C8642EDD8B8F1B4
:10C47000000F03D0052065F3891002E0062065F364
:10C480009F50A2682168114004EB8101C8602068B8
:10C49000304420609DF80000FEF72CFA4846BDE8C5
:10C4A000F8830000203F002070B50D4604460A299D
:10C4B00002D10D21FFF7F8FFA0682268411CA1609E
:10C4C0001554D4E90101814204D32046BDE87040EF
:10C4D00002F079B870BD0000034803C8814201D161
:10C4E0000120704700207047203F0020032805D11D
:10C4F0000349A9200860002003F0DAB87047000063
:10C5000020050040F0B54FF0FF3512B1002308269A
:10C5100001E008230C260C4C05E000BF54F8237002
:10C520007F1C04D05B1CB342F8D32846F0BD26180C
:10C530005DB286F8305044F82310002AF5D1E11896
:10C5400081F84800F1E70000183A00200249084449
:10C5500090F9300070470000183A00202DE9F043B0
:10C560008146887891B090460C4600B901208DF83C
:10C570003E002088ADF83C0000250095607C6946AF
:10C5800006F046F86E46A07C711C06F041F8E07B90
:10C5900000289DF8020002D040F0080001E020F0E1
:10C5A00008008DF80200217C11B140F0100001E07C
:10C5B00020F010008DF80200217B11B140F0010045
:10C5C00001E020F001008DF80200217D09B1022177
:10C5D00000E0012161F342008DF802001C2102A855
:10C5E000FCF775FF607BC10601D4800617D50E9558
:10C5F0000EAFE07C791C06F00BF89DF83800079729
:10C6000020F00F00401C20F0F00010308DF83800B2
:10C610009DF83A0020F00600801C8DF83A00607BFF
:10C620008DF80800A07B8DF80900142109A8FCF7FB
:10C630004EFF0FA8CDE90906A088ADF83000A0682C
:10C6400020B1E088ADF82C00A0680D90A06998B3E7
:10C6500001950088ADF81000A06901AD01A94088DE
:10C66000ADF81200A069406806950390A069007BB0
:10C6700005F0CEFFA069691C407B05F0C9FFA069E9
:10C68000807A00289DF8060002D040F0080001E002
:10C6900020F008008DF80600A169C97A11B140F0B8
:10C6A000100001E020F010008DF80600A169097A61
:10C6B00019B140F0010002E00DE020F001008DF81A
:10C6C0000600A169897B09B1022100E0012161F323
:10C6D00042008DF80600E06900B10590434609AAC2
:10C6E00002A94846AADF11B0BDE8F08370B5084C36
:10C6F000050009D010342168002907D0086820609F
:10C70000496828468847F6E70834F4E770BD00001A
:10C71000043A0020054A012120B1012805D1917079
:10C72000FFF7E4BF51700020FAE77047043A002099
:10C7300010B5D0E90234D1E90220D11AA04101D3C9
:10C74000012010BD002010BD73B58CB0064600203E
:10C7500000900D9880B100246D4621460DA801F08F
:10C7600063FB30B1009805EB400084800098401CCA
:10C770000090641C142CF0D32C2269463046FCF740
:10C780008DFE0EB070BD2DE9F04117880646B81D2C
:10C7900014460D46984202D90C20BDE8F08131883C
:10C7A000072206290AD34FF4486C4FF6FF73614500
:10C7B00001D9994202D17088062801D21046ECE7CF
:10C7C000604501D99842F9D1994203D0984201D0ED
:10C7D0008142F3D80520E85520881221401C80B200
:10C7E000208029542088401C80B220804119308844
:10C7F00006F07DFE2188084480B2208041197088AF
:10C8000006F075FE2188084420800020C5E7FDF76A
:10C81000F9BE000038B54A7A0F4B62B100220A72A5
:10C820005969002906D001228DF80020ADF80200D8
:10C830006846884738BD0A7A62B19B684C680246F0
:10C8400019462046FDF754FF0028F3D0BDE83840D4
:10C8500005F0DCBB5B68F1E76C3900200268136807
:10C86000526831B19A4202D38068801A07E0981A60
:10C8700070479A4201D3D01A70478068C01A401C92
:10C88000704700002DE9FF410C4620B14FF40640EF
:10C8900004B0BDE8F0812079002748F2096538B17D
:10C8A00041F61D5601281BD0022826D0681DEFE74F
:10C8B0000220207102970397E0680190694601A861
:10C8C00004F070FF50B102988188E18000882081D7
:10C8D000BDF80010029804F0E3FFD9E72846D7E737
:10C8E0000A4B6A460021A01D04F014FF38B1074925
:10C8F00018398F61CF61A842CAD13046C8E70348D2
:10C900008188019804F0CCFFF5E70000C0300020DA
:10C91000F0B587B00C4607461646142101A8FCF76F
:10C92000D6FDA07800B901208DF81A002088ADF856
:10C93000180006A80190A079694605F069FE6D46C9
:10C94000E079691C05F064FEE07800289DF802009B
:10C9500002D040F0080001E020F008008DF802004D
:10C96000217911B140F0100001E020F010008DF8A5
:10C970000200617911B140F0010001E020F00100F6
:10C980008DF80200217A09B1022100E0012161F352
:10C9900042008DF8020002956089ADF80C00A08974
:10C9A000ADF80E00E089ADF8100020690590324620
:10C9B00001A93846ABDF07B0F0BD000030B4044633
:10C9C000132176DF03000BD0064807492246401AA0
:10C9D000C008022101EB004030BC044902F0CBBC8E
:10C9E00030BC7047304C0200B04B0200E8420200FD
:10C9F00002481321408976DF70470000882D00200F
:10CA000010B50021024801F043FA80F3100010BD78
:10CA10003C4300204FF480328A400168C1F848232B
:10CA20000068C0F8082370474FF4A07202EB810140
:10CA300089B200F03ABA2DE9F04105460E464FF4AE
:10CA4000A07000EB860081B228684FF48034B440B7
:10CA5000984622F07F47C0F808432868C0F848434A
:10CA6000286802F0F3FE286800EB8600C0F84075E5
:10CA70002868C0F84443B8F1000F02D02868C0F815
:10CA80000443BDE8F0810068D0F804057047000059
:10CA900070B54379224C44F823204279241D04EBDD
:10CAA000C202204B1579204A9A1AD3082DB10824C6
:10CAB000022000EB03401DA12EE002680D88C2F8A1
:10CAC000085590F904208978002A4FEA411106DAC6
:10CAD00002F00F0202F1E02282F8141D03E002F1DD
:10CAE000E02282F8001490F90410012201F01F05E1
:10CAF00002FA05F54909890001F1E021C1F8005168
:10CB0000417904EBC1010A71417944F831000320F5
:10CB1000002400EB03400EA102F022FC204670BD71
:10CB20009C300020104C0200B04B020052544320B5
:10CB3000696E7374616E636520616C72656164799E
:10CB400020696E697469616C697A65642E00000001
:10CB50005254433A20696E697469616C697A6564FC
:10CB60002E00000090F90400012100F01F02914006
:10CB70004009800000F1E020C0F8001270470A462A
:10CB8000022100F089B94FF4827100F08EB900687B
:10CB900001210160704700680121416070472DE963
:10CBA000F05F07460C464FF4A07000EB84001FFABC
:10CBB00080FA38684FF48036A6409B4622F07F45C5
:10CBC000C0F848633868C0F808633868D0F804854E
:10CBD00000EB8402D2F84095C2F84085514638688F
:10CBE00002F034FEA9EB080020F07F40012806D1B6
:10CBF000102003F03FF95146386802F027FE3868EC
:10CC0000D0F80485C0F84463A5EB080121F07F410A
:10CC10003868012900EB840010D0C0F8405538680E
:10CC2000D0F804156FF07F4C6A1A521E22F07F4232
:10CC3000ACEB0B03934217D362B118E06D1CC0F844
:10CC40004055102003F016F93868D0F80405404527
:10CC50000AD10CE000EB84006D1CC0F84055386828
:10CC6000D0F80405884202D00D20BDE8F09F0122D3
:10CC70003146384600F010F90020F6E77047000012
:10CC80002DE9F843104D0F4680461E4691466946F1
:10CC9000286801F092F8040014D01C21FCF717FC5E
:10CCA00001202071C4F81490380BC4F80080C4E946
:10CCB00002606946286801F0A1F804F0D1FC002068
:10CCC000BDE8F8830420FBE7B03F02004FF080503E
:10CCD000D0F830110A2904D1D0F83401B8B10128B4
:10CCE00014D00C480078062811D10A48001D00789D
:10CCF00000070CD1074808300078C0F30310032860
:10CD000005D0042803D0052801D000207047012059
:10CD100070470000E00F00F04FF08050D0F8301165
:10CD20000A2904D1D0F83401B8B1012814D00C4834
:10CD30000078062811D10A48001D007800070CD1A0
:10CD4000074808300078C0F30310032805D00428F2
:10CD500003D0052801D00020704701207047000053
:10CD6000E00F00F04FF08050D0F830110A2904D1C4
:10CD7000D0F83401B8B1012814D00C480078062846
:10CD800011D10A48001D007800070CD1074808306F
:10CD90000078C0F30310032805D0042803D0052829
:10CDA00001D000207047012070470000E00F00F024
:10CDB00010B503780022072B06D2DFE803F0050444
:10CDC0000610202930000A7010BD01230B70038962
:10CDD0008B818388CB81C06888600A7410BD022271
:10CDE0000A7002898A818288CA81C2688A60807DCD
:10CDF000062802D00020087410BD0120FBE70322A2
:10CE00000A70C2888A810289CA81C068886010BDA0
:10CE100004230B70C0888881CA818A6010BD0520F8
:10CE2000087010BD70B5064D0646002455F8241054
:10CE300009B130468847641C042CF7D370BD00004C
:10CE4000D83B002030B50446006887B00D468068A6
:10CE500000281FD018216846FCF739FB0195A0680F
:10CE60000590207910B1012810D107E001208DF83C
:10CE7000000020690290E068039005E002208DF830
:10CE80000000E068000302906069049020688168F7
:10CE90006846884707B030BD0368C3F84413002ACA
:10CEA00002D00068C0F80413704710B500684258FB
:10CEB0001AB102F0CBFC012010BD002010BD826829
:10CEC00083881A4003689A5C0A708168491C8160F3
:10CED0007047C26883881A4003689954C168491C26
:10CEE000C16070470AB100F0AABF00F092BF70B5F0
:10CEF0000D460446B0F8D810D0F8D4000122FDF752
:10CF00008CFE00B1057004F13C0204F1D40104F17F
:10CF1000540072DF70BDF7B517460E0011D00098AF
:10CF2000002560B100242146684600F07DFF18B15D
:10CF3000A0B23946B0476D1C641C142CF3D32846AC
:10CF4000FEBD0020FEBD406804F0B6BA10B505492C
:10CF50000022054801F0CCFCBDE81040024804F076
:10CF600039BA0000C03F02006C310020014643681E
:10CF70000D480E4A801AC008032202EB004013B18C
:10CF80000B4902F0EDB90A78012A07D0022A09D12B
:10CF90008B680A6907A100BF02F0EDB98B680A69C6
:10CFA00012A1F9E770470000304C0200B04B0200BC
:10CFB0002C4302002D2D3E204576656E742072654F
:10CFC0006365697665643A206572617365642025DE
:10CFD0006420706167652066726F6D2061646472A1
:10CFE00065737320307825782E0000002D2D3E20AB
:10CFF0004576656E742072656365697665643A206E
:10D0000077726F746520256420627974657320617E
:10D010007420616464726573732030782578000031
:10D020000C484A8843899A4213D10A88A2F52063A2
:10D03000773B0ED189880A4AC91E8BB28381064884
:10D040000649401AC008032101EB004005A102F087
:10D0500092B97047882D0020304C0200B04B02007E
:10D06000D43A02005B25735D2044617461206C65D5
:10D070006E2069732073657420746F3A2564000014
:10D0800070B510B14FF4064070BD1A4C0025207BDE
:10D0900008B1257301E000F0A1F82078082826D215
:10D0A000DFE800F02504080C10251420BDE87040CE
:10D0B00000F022B8BDE8704000F07EB8BDE87040D6
:10D0C00000F060B8BDE8704000F03CB860880949E5
:10D0D00000EB8000283901EB80004068BDE870401B
:10D0E00004F0CCB86560BDE8704004F0D5B848F2F3
:10D0F0000E6070BD9C3C00201149F0B48A1C0020D9
:10D100000346A1F128050C18A67A4EB1A37200EBD4
:10D11000800405EB8404E66816B9247C012C0AD04F
:10D12000401C80B20228EED30B704B804B60F0BCE9
:10D1300041F61D5070471080F0BC00F03DB8000073
:10D140009C3C00200C48418801EB8102A0F12801A1
:10D1500001EB8201CA6852B1052101700748022122
:10D160008180016800230122054801F025BB0422CB
:10D1700002704968F6E700009C3C0020D030002097
:10D180008031002038B50A49084803240B684268FA
:10D19000898803EB810153880470DB1C00201B0489
:10D1A00000909B0B034801F033FD38BD9C3C0020F0
:10D1B000D030002080310020074910B54888091D73
:10D1C00004F040FB18B1BDE81040FFF7DBBFBDE83D
:10D1D0001040FFF7B7BF00009C3C0020F0B51F488F
:10D1E0001F490125067802248B88A0F12802082E09
:10D1F00019D2DFE806F00418181B222F2F17018917
:10D20000491C01810021418080F80C1001EB810351
:10D2100012F8233043B100234418491C89B2A37289
:10D220000229F3D30570F0BD0123F5E74268528867
:10D23000D21C1A448A800470F0BD46880D6806EB43
:10D24000860602EB860256680E60556013818C805C
:10D25000062100E007210170F0BD00009C3C002089
:10D26000D030002070B5A0B080216846FCF72FF9BF
:10D27000AB208DF8000000208DF8010007218DF80B
:10D280000210FF218DF80310B4218DF804108021C5
:10D290008DF8051013498DF806000A2609788DF8D7
:10D2A000080088208DF809006C468DF807100020D2
:10D2B000B21EA11908E000BF255C11F8023C401C19
:10D2C0002B4401F8023CC0B29042F5DB002504E09B
:10D2D000605DFDF7ABFA6D1CEDB2B542F8D320B03E
:10D2E00070BD0000C42F002010B50B48FFF7CBFB2A
:10D2F000094A083AD2E90434C018D2E9063244F1A6
:10D300000001C31A71EB020204D24FF08072801840
:10D3100041F1000110BD00008030002010B5054A29
:10D3200001210548FDF7AAF9002802D0FDF76AF9A6
:10D33000002010BDAD9E0100383B020010B5084B27
:10D3400038B11868BDE8104000224FF48041FDF765
:10D35000CFB91868FDF7E4F9024A0021516010BD09
:10D36000383B0200C42F0020428800EB82020C32BE
:10D370008A4201D9022070478188A1F57F42FF3A95
:10D3800006D0018821B18068401C01D00020704780
:10D3900001207047884204D20068401C01D001205F
:10D3A00070470020704770B50C468AB0064634F8C6
:10D3B000300F8DF82000000A8DF82100A0788DF83C
:10D3C0002200E0788DF82300042520216846FCF730
:10D3D0007EF842F64A20ADF800009DF80D00ADF849
:10D3E000045040F002008DF80D0020798DF81100F6
:10D3F00008A8ADF806500290308906F5B372694668
:10D40000FFF7ACF80AB070BDF0B5334893B0002513
:10D41000C561056245628562C56205631C300821ED
:10D42000018085700126C6700224847144710471E4
:10D430000830032706808570C47044710471083079
:10D44000482104808570C770047144716846FCF7F8
:10D450003EF822480090224801901F488DF808604D
:10D460001C300390083005908DF809508DF80A6043
:10D47000083007908DF810604C20ADF82400194852
:10D48000089040F20110ADF830008DF832508DF860
:10D4900033708DF818608DF844408DF83C400E488C
:10D4A0008DF836508DF82C408DF845408DF83D4074
:10D4B0000E958DF834408DF842408DF846408DF839
:10D4C0003E4069465030FEF795FB002801D0FDF73D
:10D4D00099F813B0F0BD0000882D0020AD0D0200BA
:10D4E000B9250200602F002010B50A4941600A48A2
:10D4F00000F0B5FC58B902F08DFB07491C238C22C3
:10D50000087404488C39001F006800F043FC0020B8
:10D5100010BD0000B43F0200483D00202DE9F0415D
:10D520002D4F002520B17D604FF40640BDE8F0810D
:10D530000879012258B1294E01280CD0264C4FF011
:10D5400002080834022820D0032841D127E00A71BC
:10D5500003F0A2FE3AE0002000EB800116F8211053
:10D56000022908D0401C80B20228F5D33A707D60B1
:10D5700041F61D50DAE700EB800006F8205006EB7C
:10D580008000406803F07AFE20E00D71A4F804806A
:10D59000002301221248216801F00EF916E00D71F6
:10D5A000206803F06BFE0D4923682831498801EBA0
:10D5B000810206EB8201D1F804C0C4F800C04B60C0
:10D5C000A3880B81A4F8048006F822500028ADD06F
:10D5D0007D6048F20D60A9E7C8300020743C00204F
:10D5E00080310020FEB50646887A0D4670B3E868A3
:10D5F00060B3002427E0E86800EBC4030020029039
:10D600009DF8080040F002008DF80800597911B12A
:10D6100040F0080001E020F0080040F010008DF814
:10D62000080004EB840006EB4000191D1430CDE91E
:10D63000001033F8022B02A9304604F04FF90028FD
:10D6400005D1641CE4B2A87AA042D4D80020FEBD63
:10D650000146034802888A4200D00020704700003B
:10D66000583900202DE9FC5F0E008346DDE90C47A8
:10D67000C6F1000098469246814600D4084601252E
:10D6800003E000BF90FBFAF06D1C5045FADAA845A4
:10D6900000D9454624B1002E01DB780700D5641E71
:10D6A000B80702D5B8F1000F0AD0F80708D13CB18D
:10D6B000A54205D220215846641EFEF7F5FEF6E786
:10D6C000002E02DA4E462D2102E0780703D52B21E9
:10D6D0005846FEF7E9FE07F0030002280BD1B8F127
:10D6E000000F08D13CB1A54205D230215846641E36
:10D6F000FEF7DAFEF6E7CDE90047434652463146EB
:10D70000584605F009FFBDE8FC9F000070B50D46C6
:10D71000044600684FF4887102F069FB4FF4907181
:10D72000206802F064FB4FF49271206802F05FFB06
:10D730004FF4A271206802F05AFB4FF4AC712068DC
:10D7400002F055FB20681149C0F8041320686907EE
:10D7500040F30730090E002806DA00F00F0000F150
:10D76000E02080F8141D03E000F1E02080F80014B0
:10D770002068012140F3073000F01F02914040096A
:10D78000800000F1E020C0F8001170BD10034200DD
:10D79000024600201268530713D502F00300012847
:10D7A00002D002280CD105E0C2F383100B68801C64
:10D7B000184404E00223086803EB92521044086006
:10D7C0000120704710B5102001F07CFBBDE810402F
:10D7D000102001F0A4BB00000248007A002800D00D
:10D7E00001207047483D0020F0B58488A518944278
:10D7F00000D82246A41AC288D6189A4200D81346E6
:10D80000D21A4B880788BB420CD34088834209D880
:10D810008888A04206D3A84204D8C888904201D381
:10D82000B04201D90020F0BD0120F0BD800701D039
:10D8300000207047012070470A4810B5807860B119
:10D84000002401E0022C06D02046FEF747FC641CB1
:10D85000042CF7D310BD0324F6E7BDE81040FEF713
:10D860005DBC000020300020F7210180172141809D
:10D8700000210171417170472DE9FF4100262348C5
:10D8800000F0EAFA2148001F074600F0E5FA204CB4
:10D8900060680090A56800E000986946284004EBA5
:10D8A00080000C30FFF774FF0028F5D101AA009921
:10D8B00001EA050304EB8303491CDB6842F82030CE
:10D8C000401C00910228F2D3019800F003000128C7
:10D8D0000BD0022810D10198032101EB9050009940
:10D8E000BDF80A6001EB900005E00198BDF80A6000
:10D8F000C0F3831008440090384600F0AAFA08B13B
:10D900000098606004B03046BDE8F08138430020E4
:10D91000203F002090B0FDF7EBFB08B1FCF772FE52
:10D920004FF48041002001F08FFD08B1FCF76AFE42
:10D9300001F0EEFB18227E4905A8FBF7AFFD7D48FC
:10D940000B904FF480707C490E90CDE90C010723B9
:10D950007A4A0BA905A8FCF717FF08B1FCF752FE9D
:10D9600005F0F8F8FFF7F2FAFFF72CFFFDF764F87F
:10D97000FCF790FE08B1FCF745FE04F03FFFFBF713
:10D98000BDFEFCF783FA01F075FE08B1FCF73AFE24
:10D9900002F0F4F808B1FCF735FE002401A90120DB
:10D9A000019401F063FF08B1FCF72CFE01A801F01F
:10D9B000F3FF08B1FCF726FE9DF8180060A120F0E7
:10D9C0000F00401C20F0F00010308DF818001022DD
:10D9D00006A87CDF08B1FCF715FE00945020ADF8D6
:10D9E0000000A0200194ADF80200ADF804404FF40F
:10D9F000C870ADF8060068467ADF08B1FCF702FE91
:10DA00005449554800F0C5FA08B1FCF7FBFDF72171
:10DA1000514800F0B2FA08B1FCF7F4FDFCF790FCB5
:10DA200004F0CCFD1C2105A8FBF751FD4FF4A030FC
:10DA3000CDE905404FF4F020079048480A900325AF
:10DA400047488DF820500B90ADF822408DF82440C7
:10DA500005A8FDF7CBFA08B1FCF7D4FDFFF75EFC93
:10DA600040484149401AC00805EB00403FA101F081
:10DA700077FC012004F0D2FE0020FCF7B1FC00206E
:10DA800000F0BCFC08B1FCF7BDFD294A02AB18321E
:10DA900007CA83E8070002A8384902F097FF08B1D7
:10DAA000FCF7B0FD364802F055FF08B1FCF7AAFDBF
:10DAB00002F07EFF04F0BCFF00F055F9314D01206B
:10DAC000287004F0C1FE2C702D4F2F4D2F4EDFF823
:10DAD000C080DFF8C090083F387A02F05DFF2878F8
:10DAE00010B12C7004F09AFA307810B1347005F04F
:10DAF0006DFD98F8001041B188F800402648FCF709
:10DB0000A1FB89F80000FCF731FB387808B104F07C
:10DB1000DBFA787808B104F0D7FAB87808B104F0E5
:10DB2000D3FA01F003FB0028D6D101F0B7FDD3E70B
:10DB3000083B0200CC320020CC330020BD2F020075
:10DB4000522053656E696F7220576174636830317B
:10DB50000000000021D00100CC340020D10A0200D6
:10DB60000FC80100304C0200B04B02006D61696EBD
:10DB700020737461727465642E000000EB3802003B
:10DB8000902D002004300020F22F002000300020D3
:10DB9000013000200230002008380020002360F30C
:10DBA0000F03184661F3174062F31F60704770B5AA
:10DBB000144682880E4605462088111D0144921C99
:10DBC000994201D8FE2A01D90C2070BD521C325452
:10DBD0002088FF21401C80B2208031542088401CC6
:10DBE00080B220808119288805F081FC21880844B2
:10DBF00080B22080AA8842B1A96841B13044FBF7C5
:10DC00004DFC2088A98808442080002070BD072092
:10DC100070BD2DE9F047C5881E1DB6FBF5F7894696
:10DC2000B6FBF5F1044605FB176C407916686843AE
:10DC3000DDF820A0F718001F874200D9C61A166029
:10DC400001E02468491E0029FBD1A5EB0C0788469A
:10DC5000B74216D818E004EB0C00001D09EB0803CE
:10DC6000BAF1000F3A4602D00146184600E01946C4
:10DC7000FBF714FC2468F61B4FF0000CB844B542C7
:10DC800001D9374600E02F46002EE4D1BDE8F087E9
:10DC900030B5024651B101F0F5FB0021074C08E018
:10DCA00034F821301568AB4202D11160002030BD3C
:10DCB000491C8142F4D3052030BD00000000000063
:10DCC000F8B50F46017814460546012901D1687858
:10DCD00030B12088821C9A4232D8012902D006E055
:10DCE0000720F8BD69780144891C994228D8181A80
:10DCF000801E86B2ADF800602188B81C08446946D1
:10DD00007DDF0028EDD12978022904D06878BDF89C
:10DD10000020904205D3BDF80000B04201D8092090
:10DD20000AE00820012905D16978B14202D8ADF88E
:10DD3000001001E0ADF80060BDF80010FE2901D927
:10DD40000C20F8BD2288491CB9542188491C89B28D
:10DD5000218078542088401C2080BDF800100844A1
:10DD600020800020F8BD10B54FF0A0414FF4803066
:10DD7000C1F808050A2000F01FFABDE81040102085
:10DD800001F0CDB810B5FBF790FA08B1002010BD36
:10DD9000112010BD10B531B1B2FBF3F403FB142414
:10DDA0001CB1092010BD0E2010BD01600021416092
:10DDB00081608281C381084610BD70B50C4605465E
:10DDC000FBF728FA002802D021882868084470BD93
:10DDD00010B50A8849888A4203D1FBF75DFA012011
:10DDE00010BD002010BD70B50C460546FBF737FA94
:10DDF000002802D061882868084470BD10B50A88E0
:10DE000049888A4203D1FBF721FA012010BD002086
:10DE100010BD01F01F0301229A40D243490900EBD3
:10DE20008100114600F024B84A0950F8220001F0A0
:10DE30001F0201219140084000D00120704701F0ED
:10DE40001F0301229A40490900EB8100114600F0AE
:10DE500024B8002100F012B8012100F01EB8012101
:10DE600000F011B808B56A46FBF76BFA009808BDD8
:10DE700008B56A46FBF74BFA009808BD08B56A4634
:10DE8000FBF745FA08BD08B56A46FBF733FA08BD4B
:10DE900008B56A46FBF722FA08BD08B56A46FBF7E3
:10DEA00029FA009808BD08B56A46FBF757FA0098AA
:10DEB00008BD38B5044600258DF800506846FCF7CB
:10DEC000F5FC21686268086890420ED9401E08601F
:10DED0000178238AE26801FB0325227A2168101A5F
:10DEE000C0B20A79824200D208719DF80000FCF7A6
:10DEF00001FD284638BD38B5054600208DF80000E4
:10DF00000C466846FCF7D2FCE868298A201AB0FB68
:10DF1000F1F12A681068431C136001709DF800003D
:10DF2000FCF7E8FC38BD10B530B1017A42680368EF
:10DF3000891AC9B21A6006E00E2010BD03681A687B
:10DF4000541C1C601170491EC9B2F7D20068002130
:10DF50000171084610BDC20800F007030120895C6A
:10DF600098400840704710B5C20800F00703885C6D
:10DF700001249C402043885410BD28B1A1F1170210
:10DF8000E12A03D3072070470E207047018000204C
:10DF9000704710B560B1C160F72120F8021B20F86E
:10DFA000021B1B2100F8021BFFF75EFC002010BDC6
:10DFB0000E2010BD7CB50C468188002933D1028823
:10DFC0000025102A06D0112A09D03A2A0BD0552A4A
:10DFD0002ED129E00146204602F014FE28E0A01DC3
:10DFE000FFF742FC24E02246408934F8063F834292
:10DFF00000D818466080172800D217206080D068AB
:10E0000078B1607968B1184BD3E90003CDE900031A
:10E01000ADF802106088ADF80400D3686946104678
:10E020009847657125717CBD0146204602F066FE69
:10E03000A07A0028F7D02846E188A5DF012680B124
:10E040001128F0D001F086FE02460848084902B0C7
:10E05000401AC00806EB0040BDE8704005A101F081
:10E0600083B9A572E6727CBDBC3E0200B04B0200D3
:10E07000B04B020073645F626C655F6761747463C8
:10E080005F65786368616E67655F6D74755F726503
:10E09000717565737428292072657475726E656474
:10E0A0002025732E0000000020B10278DE2A03D064
:10E0B000082070470E20704741800020704760B1F3
:10E0C00059B10278DE2A0AD009684160DE21017068
:10E0D0004FF6FF714180002070470E2070470820E6
:10E0E00070477FB5054600294DD0002D4BD00878EC
:10E0F0000C46DE2847D1A8886188884202D1204694
:10E1000005F07AFB2888012825D002283BD0112869
:10E110003AD0512837D135F8040F6188884232D17E
:10E12000A978A81C02292ED1017A042903D0062936
:10E1300001D0052927D10021009102228DF800206D
:10E1400001914FF4C07202910391ADF80420007A5E
:10E1500005280FD010E0297A2046012913D1A9887B
:10E16000428891420FD10121017204B0BDE8704094
:10E1700005F042BBADF8041028886946B0DF0028DE
:10E1800001D0616888477FBDA88861888842FAD13C
:10E190004FF6FF7060807FBD00F18040006800286E
:10E1A00000D00120704708B500F1804000210160D7
:10E1B0000068009008BD00002DE9F041040007D080
:10E1C000044E4FF47A47751C3846A847641EFAD1AE
:10E1D000BDE8F081C03A02002DE9F041040007D00B
:10E1E000044E4FF47A47751C3846A847641EFAD18E
:10E1F000BDE8F081603B020070B540F6F87004683D
:10E20000601C02D14FF0102044691248124B4FF0AD
:10E210000102A3EB00004FEAD000611C02EB0045B5
:10E2200012D0032101EB004022460CA101F09CF822
:10E23000204613DF040005D0284613A101F090F812
:10E24000204670BD002070BD28461CA101F088F852
:10E25000042070BDB04B0200304C02005365747452
:10E26000696E6720766563746F72207461626C6595
:10E2700020746F20626F6F746C6F616465723A20F6
:10E2800030782530387800004661696C656420720A
:10E29000756E6E696E672073645F736F6674646514
:10E2A000766963655F766563746F725F7461626CD3
:10E2B000655F626173655F73657400004E6F206215
:10E2C0006F6F746C6F616465722077617320666F25
:10E2D000756E640070B50C480C490D4A401AC508AB
:10E2E000032000EB05400BA101F03EF8084813DFC6
:10E2F000040007D0012000EB054011A101F030F827
:10E30000204670BD002070BD304C0200B04B0200B2
:10E310000090010053657474696E672076656374BC
:10E320006F72207461626C6520746F206D61696E1C
:10E33000206170703A203078253038780000000075
:10E340004661696C65642072756E6E696E672073D4
:10E35000645F736F66746465766963655F76656331
:10E36000746F725F7461626C655F626173655F7325
:10E370006574000070B50B4C207808B185250FE05E
:10E380000020A06060602061E060074801F04CFD63
:10E39000054601F03FFC08B901F030FD0120207076
:10E3A000284670BD043A002015C7010038B5002585
:10E3B0008DF800506846FCF779FA074CE068401E7B
:10E3C000E060E06810B901F03FFDA5709DF8000025
:10E3D000FCF790FA38BD0000043A002010B504465E
:10E3E00001F018FC18B1204630DF002803D00248A5
:10E3F00001F00AFA207010BD6C4C020038B5124CC6
:10E400000025217809B1852038BD00B90F48008862
:10E41000A4F8010000208DF800006846FCF746FAD9
:10E4200001F0F8FB38B90A49601C01F037FE05001D
:10E43000EAD101F05FFE012020709DF80000FCF79A
:10E4400059FA284638BD000064300020003F020021
:10E45000650002002DE9F8430F468046002542F290
:10E46000070600BF8DF800506846FCF71FFA01F060
:10E47000D1FB58B19DF80000FCF73CFA3946404604
:10E4800031DF0446B0420DD105240DE03A46414645
:10E49000074801F09AF9044601F02CFE9DF80000AF
:10E4A000FCF728FA022CDDD02046BDE8F8830000F6
:10E4B0006C4C02002DE9F041064604780B481546E5
:10E4C0000F4640F82420001D40F82430487B10B14E
:10E4D000084604F0DFFA0DB1054A00E000222346A9
:10E4E0003946301DBDE8F04101F044BE5C300020EB
:10E4F0008D2B020038B5001D049C009401F0C2FE73
:10E5000038BD0000F0B505460478154889B01646B8
:10E5100040F82420124A0869121DA2F1080742F8A7
:10E520002400487F385520226846FAF7B7FF049444
:10E530002878385C48B10EB10A4A00E000226946EA
:10E54000281D02F07BF809B0F0BD0EB1064A00E0CC
:10E550000022694605F10C0001F0CCFEF3E7000053
:10E5600044300020AD3302005132020030B4037851
:10E57000054CE35C1BB130BC001D02F095B830BC0B
:10E580000C3001F01FBF00004030002030B4037891
:10E59000054CE35C1BB130BC001D02F007B930BC78
:10E5A0000C3001F085BF0000403000200FB408B5EA
:10E5B0000399002904D004AA00926A4600F00FF8DB
:10E5C00001B05DF814FB10B582680446002A05D03E
:10E5D000D4E90403216898470020A06010BD2DE90C
:10E5E000FC4791460C00804676D014F8011B39B1E7
:10E5F00025290ED04046FDF757FF20780028F4D19A
:10E6000098F80C00002867D04046BDE8FC47FFF7AB
:10E61000DABF0020012221782B291BD02D2902D01E
:10E62000302908D102E040F0010001E040F0020092
:10E63000641C002AEFD100252A290ED02178A1F1EF
:10E6400030020A2A11D205EB850201EB4205641C57
:10E65000303DF1E740F00400EAE7D9F800100B1D67
:10E66000C9F800300968641C0D44217800232E2964
:10E670000BD114F8011FA1F130020A2A05D203EBD5
:10E68000830201EB4203303BF3E76C290DD068298C
:10E690000BD0692921D00BDC252918D0582931D07D
:10E6A00063290ED0642915D117E014F8011FECE797
:10E6B000702969D0732932D075291BD0782909D1E6
:10E6C00020E0D9F80000011DC9F80010017840468B
:10E6D000FDF7EAFE641C90E76CE0D9F800100A1D13
:10E6E000C9F800200968CDE900500A224046FEF72B
:10E6F000B9FFEFE7D9F800100A1DC9F80020096832
:10E700000A2206E0D9F800100A1DC9F8002009689D
:10E710001022CDE90050404604F0FEFEDAE7D9F8B9
:10E72000001000270A1DC9F800200E68C00705D197
:10E7300012E04046761C7F1CFDF7B6FE31780029BA
:10E74000F7D104E0202140466D1EFDF7ADFEBD422D
:10E75000C0D9002DF6D1BDE74EB13046FAF7C2FE62
:10E76000074604E0202140466D1EFDF79DFEBD4298
:10E7700006D9002DF6D103E04046761CFDF794FE45
:10E7800031780029F8D1A5E7D9F80000011DC9F8B2
:10E790000010056830214046FDF786FE782140468E
:10E7A000FDF782FE08200021CDE90001034610227A
:10E7B0002946B0E7BDE8FC872DE9F8438846050007
:10E7C0002C482D499946A0EB01004FEAD0004FF0AC
:10E7D0000101164601EB004424D0286800282CD003
:10E7E000002E34D0696840464FF010070A68511E69
:10E7F00011EA080F11D1014672432846FBF774FD58
:10E8000000282ED028684B463246046901B04146A4
:10E810002846A446BDE8F04360472046174B18A29F
:10E82000009722E00E2000902046144B1EA220A14B
:10E8300000F0A9FD0E20BDE8F883082000902046D6
:10E840000E4B26A21AA100F09EFD0820F3E7092036
:10E8500000902046094B24A215A100F094FD092048
:10E86000E9E7064B214A2046009711A100F08BFDF5
:10E870001020E0E7184C0200B04B02009B3F020062
:10E88000616464725F69735F706167655F616C6921
:10E89000676E656428705F66732C20706167655FC2
:10E8A0006164647229000000705F667300000000FC
:10E8B000257320636865636B206661696C656420FD
:10E8C000696E202573282920776974682076616C29
:10E8D000756520307825782E00000000705F667323
:10E8E0002D3E705F617069006C656E0070430200C0
:10E8F00038B503001148124D4FF00E04A0EB05008F
:10E900004FEAD0004FF0010505EB004009D061B19E
:10E9100019600C6801B0A446BDE8304011461846A5
:10E920006047084B08A2009402E0064B08A200943E
:10E9300009A100F028FD0E2038BD0000184C02008F
:10E94000B04B0200503F0200705F66730000000091
:10E95000705F617069000000257320636865636BF8
:10E96000206661696C656420696E20257328292002
:10E97000776974682076616C756520307825782E0B
:10E98000000000002DE9F04128B1016819B1C96902
:10E99000BDE8F04108470D4D0D480024461B1427E3
:10E9A0000DE000BF04EB840005EB8000016829B195
:10E9B000C969884710B10120BDE8F081641CB6FB2D
:10E9C000F7F0A042EED80020F6E700006C310020FE
:10E9D000943100202DE9F843904689462F49304A6A
:10E9E0000500A1EB02014FEAD1014FF001021E46E2
:10E9F0004FF00E0002EB01441ED0B8F1000F20D002
:10EA0000286840B3002E30D04846FBF767FC10273B
:10EA1000002834D0324649462846FBF765FC0028DA
:10EA200032D0286833464246846801B049462846B9
:10EA3000A446BDE8F043604700902046194B1AA257
:10EA400003E00090174B204619A21BA100F09BFC8D
:10EA50000E20BDE8F883082000902046114B21A22B
:10EA600015A100F090FC0820F3E709200090204653
:10EA70000C4B1FA210A100F086FC0920E9E72046FC
:10EA8000084B1CA2009703E0064B20461FA20097EC
:10EA900009A100F078FC1020DBE70000184C020010
:10EAA000B04B0200763F0200705F6673000000000A
:10EAB000705F646573740000257320636865636B21
:10EAC000206661696C656420696E202573282920A1
:10EAD000776974682076616C756520307825782EAA
